{
  "contractName": "Cashless",
  "abi": [
    {
      "anonymous": false,
      "inputs": [
        {
          "indexed": false,
          "internalType": "uint256",
          "name": "billId",
          "type": "uint256"
        },
        {
          "indexed": false,
          "internalType": "uint256",
          "name": "patientId",
          "type": "uint256"
        },
        {
          "indexed": false,
          "internalType": "uint256",
          "name": "amount",
          "type": "uint256"
        }
      ],
      "name": "BillGenerated",
      "type": "event"
    },
    {
      "anonymous": false,
      "inputs": [
        {
          "indexed": false,
          "internalType": "uint256",
          "name": "hospitalId",
          "type": "uint256"
        },
        {
          "indexed": false,
          "internalType": "address",
          "name": "hospitalAddress",
          "type": "address"
        }
      ],
      "name": "HospitalRegistered",
      "type": "event"
    },
    {
      "anonymous": false,
      "inputs": [
        {
          "indexed": false,
          "internalType": "uint256",
          "name": "patientId",
          "type": "uint256"
        },
        {
          "indexed": false,
          "internalType": "address",
          "name": "insuranceCompany",
          "type": "address"
        }
      ],
      "name": "InsuranceCompanyAssigned",
      "type": "event"
    },
    {
      "anonymous": false,
      "inputs": [
        {
          "indexed": false,
          "internalType": "uint256",
          "name": "insuranceCompanyId",
          "type": "uint256"
        },
        {
          "indexed": false,
          "internalType": "uint256[]",
          "name": "networkHospitals",
          "type": "uint256[]"
        }
      ],
      "name": "InsuranceCompanyRegistered",
      "type": "event"
    },
    {
      "anonymous": false,
      "inputs": [
        {
          "indexed": false,
          "internalType": "uint256",
          "name": "patientId",
          "type": "uint256"
        },
        {
          "indexed": false,
          "internalType": "string",
          "name": "name",
          "type": "string"
        }
      ],
      "name": "PatientRegistered",
      "type": "event"
    },
    {
      "anonymous": false,
      "inputs": [
        {
          "indexed": false,
          "internalType": "uint256",
          "name": "policyId",
          "type": "uint256"
        },
        {
          "indexed": false,
          "internalType": "string",
          "name": "description",
          "type": "string"
        }
      ],
      "name": "PolicyCreated",
      "type": "event"
    },
    {
      "anonymous": false,
      "inputs": [
        {
          "indexed": false,
          "internalType": "uint256",
          "name": "preauthorizationId",
          "type": "uint256"
        }
      ],
      "name": "PreauthorizationApproved",
      "type": "event"
    },
    {
      "anonymous": false,
      "inputs": [
        {
          "indexed": false,
          "internalType": "uint256",
          "name": "preauthorizationId",
          "type": "uint256"
        }
      ],
      "name": "PreauthorizationRejected",
      "type": "event"
    },
    {
      "anonymous": false,
      "inputs": [
        {
          "indexed": false,
          "internalType": "uint256",
          "name": "preauthorizationId",
          "type": "uint256"
        },
        {
          "indexed": false,
          "internalType": "uint256",
          "name": "patientId",
          "type": "uint256"
        },
        {
          "indexed": false,
          "internalType": "uint256",
          "name": "policyId",
          "type": "uint256"
        },
        {
          "indexed": false,
          "internalType": "uint256",
          "name": "isCashless",
          "type": "uint256"
        }
      ],
      "name": "PreauthorizationRequested",
      "type": "event"
    },
    {
      "inputs": [
        {
          "internalType": "uint256",
          "name": "_patientId",
          "type": "uint256"
        },
        {
          "internalType": "uint256",
          "name": "billId",
          "type": "uint256"
        },
        {
          "internalType": "address",
          "name": "_insuranceCompany",
          "type": "address"
        }
      ],
      "name": "assignInsuranceCompanyForMedicalBill",
      "outputs": [],
      "stateMutability": "nonpayable",
      "type": "function"
    },
    {
      "inputs": [
        {
          "internalType": "uint256",
          "name": "_patientId",
          "type": "uint256"
        },
        {
          "internalType": "address",
          "name": "_insuranceCompany",
          "type": "address"
        },
        {
          "internalType": "uint256",
          "name": "_policyId",
          "type": "uint256"
        }
      ],
      "name": "assignInsurancePolicy",
      "outputs": [],
      "stateMutability": "nonpayable",
      "type": "function"
    },
    {
      "inputs": [
        {
          "internalType": "uint256",
          "name": "",
          "type": "uint256"
        }
      ],
      "name": "billCounters",
      "outputs": [
        {
          "internalType": "uint256",
          "name": "",
          "type": "uint256"
        }
      ],
      "stateMutability": "view",
      "type": "function",
      "constant": true
    },
    {
      "inputs": [
        {
          "internalType": "uint256",
          "name": "_patientId",
          "type": "uint256"
        },
        {
          "internalType": "string",
          "name": "_details",
          "type": "string"
        },
        {
          "internalType": "uint256",
          "name": "_amount",
          "type": "uint256"
        },
        {
          "internalType": "uint256",
          "name": "_hospitalId",
          "type": "uint256"
        }
      ],
      "name": "createMedicalBill",
      "outputs": [],
      "stateMutability": "nonpayable",
      "type": "function"
    },
    {
      "inputs": [
        {
          "internalType": "string",
          "name": "_description",
          "type": "string"
        },
        {
          "internalType": "address",
          "name": "_insuranceCompany",
          "type": "address"
        },
        {
          "internalType": "bool",
          "name": "_isPolicyCashless",
          "type": "bool"
        },
        {
          "internalType": "bool",
          "name": "_isPolicyReimbursement",
          "type": "bool"
        },
        {
          "internalType": "uint256",
          "name": "_sumAssured",
          "type": "uint256"
        },
        {
          "components": [
            {
              "internalType": "uint256",
              "name": "annual",
              "type": "uint256"
            },
            {
              "internalType": "uint256",
              "name": "perInstance",
              "type": "uint256"
            }
          ],
          "internalType": "struct MainStructure.Deductible",
          "name": "_deductible",
          "type": "tuple"
        },
        {
          "components": [
            {
              "internalType": "uint256",
              "name": "fixedCharge",
              "type": "uint256"
            },
            {
              "internalType": "uint256",
              "name": "percentageCharge",
              "type": "uint256"
            }
          ],
          "internalType": "struct MainStructure.Copayment",
          "name": "_copayment",
          "type": "tuple"
        },
        {
          "components": [
            {
              "internalType": "bool",
              "name": "facelift",
              "type": "bool"
            },
            {
              "internalType": "bool",
              "name": "hairTransplant",
              "type": "bool"
            },
            {
              "internalType": "bool",
              "name": "alternativeTherapy",
              "type": "bool"
            }
          ],
          "internalType": "struct MainStructure.NoncoveredExpense",
          "name": "_noncoveredExpense",
          "type": "tuple"
        },
        {
          "components": [
            {
              "internalType": "uint256",
              "name": "roomRentLimit",
              "type": "uint256"
            },
            {
              "internalType": "uint256",
              "name": "surgeryLimit",
              "type": "uint256"
            }
          ],
          "internalType": "struct MainStructure.Sublimit",
          "name": "_sublimit",
          "type": "tuple"
        }
      ],
      "name": "createPolicy",
      "outputs": [],
      "stateMutability": "nonpayable",
      "type": "function"
    },
    {
      "inputs": [
        {
          "internalType": "uint256",
          "name": "_patientId",
          "type": "uint256"
        }
      ],
      "name": "getAllMedicalBillByPatientId",
      "outputs": [
        {
          "components": [
            {
              "internalType": "uint256",
              "name": "billId",
              "type": "uint256"
            },
            {
              "internalType": "uint256",
              "name": "patientId",
              "type": "uint256"
            },
            {
              "internalType": "address",
              "name": "assignedInsuranceCompany",
              "type": "address"
            },
            {
              "internalType": "string",
              "name": "details",
              "type": "string"
            },
            {
              "internalType": "uint256",
              "name": "timestamp",
              "type": "uint256"
            },
            {
              "internalType": "uint256",
              "name": "treatmentDate",
              "type": "uint256"
            },
            {
              "internalType": "uint256",
              "name": "amount",
              "type": "uint256"
            }
          ],
          "internalType": "struct MainStructure.MedicalBill[]",
          "name": "",
          "type": "tuple[]"
        }
      ],
      "stateMutability": "view",
      "type": "function",
      "constant": true
    },
    {
      "inputs": [
        {
          "internalType": "uint256",
          "name": "_hospitalId",
          "type": "uint256"
        }
      ],
      "name": "getAllPatientsByHospital",
      "outputs": [
        {
          "components": [
            {
              "internalType": "uint256",
              "name": "patientId",
              "type": "uint256"
            },
            {
              "internalType": "string",
              "name": "name",
              "type": "string"
            },
            {
              "internalType": "uint256",
              "name": "age",
              "type": "uint256"
            },
            {
              "internalType": "string",
              "name": "otherDetails",
              "type": "string"
            },
            {
              "internalType": "address",
              "name": "patientAddress",
              "type": "address"
            },
            {
              "internalType": "uint256",
              "name": "hospitalId",
              "type": "uint256"
            },
            {
              "internalType": "uint256[]",
              "name": "billIds",
              "type": "uint256[]"
            }
          ],
          "internalType": "struct MainStructure.Patient[]",
          "name": "",
          "type": "tuple[]"
        }
      ],
      "stateMutability": "view",
      "type": "function",
      "constant": true
    },
    {
      "inputs": [
        {
          "internalType": "address",
          "name": "_insuranceCompanyAddress",
          "type": "address"
        }
      ],
      "name": "getPoliciesByInsuranceCompany",
      "outputs": [
        {
          "components": [
            {
              "internalType": "uint256",
              "name": "policyId",
              "type": "uint256"
            },
            {
              "internalType": "string",
              "name": "description",
              "type": "string"
            },
            {
              "internalType": "address",
              "name": "insuranceCompany",
              "type": "address"
            },
            {
              "internalType": "enum MainStructure.PolicyType",
              "name": "policyType",
              "type": "uint8"
            },
            {
              "internalType": "uint256",
              "name": "sumAssured",
              "type": "uint256"
            },
            {
              "components": [
                {
                  "internalType": "uint256",
                  "name": "annual",
                  "type": "uint256"
                },
                {
                  "internalType": "uint256",
                  "name": "perInstance",
                  "type": "uint256"
                }
              ],
              "internalType": "struct MainStructure.Deductible",
              "name": "deductible",
              "type": "tuple"
            },
            {
              "components": [
                {
                  "internalType": "uint256",
                  "name": "fixedCharge",
                  "type": "uint256"
                },
                {
                  "internalType": "uint256",
                  "name": "percentageCharge",
                  "type": "uint256"
                }
              ],
              "internalType": "struct MainStructure.Copayment",
              "name": "copayment",
              "type": "tuple"
            },
            {
              "components": [
                {
                  "internalType": "bool",
                  "name": "facelift",
                  "type": "bool"
                },
                {
                  "internalType": "bool",
                  "name": "hairTransplant",
                  "type": "bool"
                },
                {
                  "internalType": "bool",
                  "name": "alternativeTherapy",
                  "type": "bool"
                }
              ],
              "internalType": "struct MainStructure.NoncoveredExpense",
              "name": "noncoveredExpense",
              "type": "tuple"
            },
            {
              "components": [
                {
                  "internalType": "uint256",
                  "name": "roomRentLimit",
                  "type": "uint256"
                },
                {
                  "internalType": "uint256",
                  "name": "surgeryLimit",
                  "type": "uint256"
                }
              ],
              "internalType": "struct MainStructure.Sublimit",
              "name": "sublimit",
              "type": "tuple"
            }
          ],
          "internalType": "struct MainStructure.Policy[]",
          "name": "",
          "type": "tuple[]"
        }
      ],
      "stateMutability": "view",
      "type": "function",
      "constant": true
    },
    {
      "inputs": [
        {
          "internalType": "uint256",
          "name": "_patientId",
          "type": "uint256"
        },
        {
          "internalType": "uint256",
          "name": "_billId",
          "type": "uint256"
        }
      ],
      "name": "getSingleMedicalBill",
      "outputs": [
        {
          "components": [
            {
              "internalType": "uint256",
              "name": "billId",
              "type": "uint256"
            },
            {
              "internalType": "uint256",
              "name": "patientId",
              "type": "uint256"
            },
            {
              "internalType": "address",
              "name": "assignedInsuranceCompany",
              "type": "address"
            },
            {
              "internalType": "string",
              "name": "details",
              "type": "string"
            },
            {
              "internalType": "uint256",
              "name": "timestamp",
              "type": "uint256"
            },
            {
              "internalType": "uint256",
              "name": "treatmentDate",
              "type": "uint256"
            },
            {
              "internalType": "uint256",
              "name": "amount",
              "type": "uint256"
            }
          ],
          "internalType": "struct MainStructure.MedicalBill",
          "name": "",
          "type": "tuple"
        }
      ],
      "stateMutability": "view",
      "type": "function",
      "constant": true
    },
    {
      "inputs": [],
      "name": "hospitalCount",
      "outputs": [
        {
          "internalType": "uint256",
          "name": "",
          "type": "uint256"
        }
      ],
      "stateMutability": "view",
      "type": "function",
      "constant": true
    },
    {
      "inputs": [],
      "name": "insuranceCompanyCount",
      "outputs": [
        {
          "internalType": "uint256",
          "name": "",
          "type": "uint256"
        }
      ],
      "stateMutability": "view",
      "type": "function",
      "constant": true
    },
    {
      "inputs": [],
      "name": "patientCount",
      "outputs": [
        {
          "internalType": "uint256",
          "name": "",
          "type": "uint256"
        }
      ],
      "stateMutability": "view",
      "type": "function",
      "constant": true
    },
    {
      "inputs": [],
      "name": "policyCount",
      "outputs": [
        {
          "internalType": "uint256",
          "name": "",
          "type": "uint256"
        }
      ],
      "stateMutability": "view",
      "type": "function",
      "constant": true
    },
    {
      "inputs": [],
      "name": "preauthorizationCount",
      "outputs": [
        {
          "internalType": "uint256",
          "name": "",
          "type": "uint256"
        }
      ],
      "stateMutability": "view",
      "type": "function",
      "constant": true
    },
    {
      "inputs": [
        {
          "internalType": "string",
          "name": "_hospitalName",
          "type": "string"
        },
        {
          "internalType": "string[]",
          "name": "_doctorList",
          "type": "string[]"
        }
      ],
      "name": "registerHospital",
      "outputs": [],
      "stateMutability": "nonpayable",
      "type": "function"
    },
    {
      "inputs": [
        {
          "internalType": "uint256[]",
          "name": "_networkHospitals",
          "type": "uint256[]"
        },
        {
          "internalType": "string",
          "name": "_details",
          "type": "string"
        }
      ],
      "name": "registerInsuranceCompany",
      "outputs": [],
      "stateMutability": "nonpayable",
      "type": "function"
    },
    {
      "inputs": [
        {
          "internalType": "uint256",
          "name": "_hospitalId",
          "type": "uint256"
        },
        {
          "internalType": "string",
          "name": "_name",
          "type": "string"
        },
        {
          "internalType": "uint256",
          "name": "_age",
          "type": "uint256"
        },
        {
          "internalType": "string",
          "name": "_otherDetails",
          "type": "string"
        },
        {
          "internalType": "address",
          "name": "_patientAddress",
          "type": "address"
        }
      ],
      "name": "registerPatient",
      "outputs": [],
      "stateMutability": "nonpayable",
      "type": "function"
    },
    {
      "inputs": [
        {
          "internalType": "uint256",
          "name": "_patientId",
          "type": "uint256"
        },
        {
          "internalType": "uint256",
          "name": "_billId",
          "type": "uint256"
        }
      ],
      "name": "requestPreauthorization",
      "outputs": [],
      "stateMutability": "nonpayable",
      "type": "function"
    },
    {
      "inputs": [
        {
          "internalType": "uint256",
          "name": "_preauthorizationId",
          "type": "uint256"
        }
      ],
      "name": "approvePreauthorization",
      "outputs": [],
      "stateMutability": "nonpayable",
      "type": "function"
    },
    {
      "inputs": [
        {
          "internalType": "uint256",
          "name": "_preauthorizationId",
          "type": "uint256"
        }
      ],
      "name": "rejectPreauthorization",
      "outputs": [],
      "stateMutability": "nonpayable",
      "type": "function"
    },
    {
      "inputs": [
        {
          "internalType": "address",
          "name": "_insuranceCompanyAddress",
          "type": "address"
        }
      ],
      "name": "getPreauthorizationRequestsByInsuranceCompany",
      "outputs": [
        {
          "components": [
            {
              "internalType": "uint256",
              "name": "patientId",
              "type": "uint256"
            },
            {
              "internalType": "uint256",
              "name": "billId",
              "type": "uint256"
            },
            {
              "internalType": "address",
              "name": "insuranceCompanyAddress",
              "type": "address"
            },
            {
              "internalType": "uint256",
              "name": "policyId",
              "type": "uint256"
            },
            {
              "internalType": "enum Cashless.PreauthorizationStatus",
              "name": "isPreauthorized",
              "type": "uint8"
            },
            {
              "internalType": "uint256",
              "name": "requestTimestamp",
              "type": "uint256"
            },
            {
              "internalType": "uint256",
              "name": "approvedTimestamp",
              "type": "uint256"
            },
            {
              "internalType": "uint256",
              "name": "preAuthId",
              "type": "uint256"
            }
          ],
          "internalType": "struct Cashless.Preauthorization[]",
          "name": "",
          "type": "tuple[]"
        }
      ],
      "stateMutability": "view",
      "type": "function",
      "constant": true
    }
  ],
  "bytecode": "0x608060405234801561001057600080fd5b50614767806100206000396000f3fe608060405234801561001057600080fd5b50600436106101375760003560e01c8063ac12aaaa116100b8578063de54d4291161007c578063de54d42914610310578063ea1b22be1461032e578063f2b650d01461035e578063f4300c3e1461038e578063f535befb146103aa578063fc941bbd146103da57610137565b8063ac12aaaa14610284578063b5302361146102a0578063b779f051146102bc578063c44a9277146102d8578063c66533c1146102f457610137565b806341f9fbba116100ff57806341f9fbba146101e25780634c53b9df1461021257806358b799461461022e578063a0303c411461024a578063a5e6e51d1461026857610137565b8063041917931461013c578063044554191461015a57806315a3f262146101785780632993b37314610194578063350dadb7146101c4575b600080fd5b61014461040a565b60405161015191906128fd565b60405180910390f35b610162610410565b60405161016f91906128fd565b60405180910390f35b610192600480360381019061018d9190612b66565b610416565b005b6101ae60048036038101906101a99190612c3c565b610542565b6040516101bb9190612e50565b60405180910390f35b6101cc6107eb565b6040516101d991906128fd565b60405180910390f35b6101fc60048036038101906101f79190612e72565b6107f1565b6040516102099190612fcd565b60405180910390f35b61022c60048036038101906102279190612fef565b610a10565b005b61024860048036038101906102439190613042565b610a6a565b005b610252610ce9565b60405161025f91906128fd565b60405180910390f35b610282600480360381019061027d91906130c5565b610cef565b005b61029e60048036038101906102999190613259565b610f48565b005b6102ba60048036038101906102b591906132d1565b611073565b005b6102d660048036038101906102d19190612e72565b61121b565b005b6102f260048036038101906102ed919061348f565b61144a565b005b61030e600480360381019061030991906132d1565b61178e565b005b610318611952565b60405161032591906128fd565b60405180910390f35b610348600480360381019061034391906132d1565b611958565b6040516103559190613791565b60405180910390f35b610378600480360381019061037391906132d1565b611cdc565b60405161038591906128fd565b60405180910390f35b6103a860048036038101906103a391906137b3565b611cf4565b005b6103c460048036038101906103bf9190612c3c565b611ef9565b6040516103d19190613ab4565b60405180910390f35b6103f460048036038101906103ef91906132d1565b6122e9565b6040516104019190613c34565b60405180910390f35b600b5481565b60085481565b6008600081548092919061042990613c85565b9190505550604051806080016040528060085481526020018381526020018281526020013373ffffffffffffffffffffffffffffffffffffffff168152506001600060085481526020019081526020016000206000820151816000015560208201518160010190805190602001906104a29291906125a9565b5060408201518160020190816104b89190613ed9565b5060608201518160030160006101000a81548173ffffffffffffffffffffffffffffffffffffffff021916908373ffffffffffffffffffffffffffffffffffffffff1602179055509050507fe77c8f37e34b74b41e1166c293f6133d1504890d12bb06d801af627515495cf36008548360405161053692919061401a565b60405180910390a15050565b6060600080600190505b600b5481116105e0578373ffffffffffffffffffffffffffffffffffffffff16600c600083815260200190815260200160002060020160009054906101000a900473ffffffffffffffffffffffffffffffffffffffff1673ffffffffffffffffffffffffffffffffffffffff16036105cd5781806105c990613c85565b9250505b80806105d890613c85565b91505061054c565b5060008167ffffffffffffffff8111156105fd576105fc612942565b5b60405190808252806020026020018201604052801561063657816020015b6106236125f6565b81526020019060019003908161061b5790505b509050600080600190505b600b5481116107df578573ffffffffffffffffffffffffffffffffffffffff16600c600083815260200190815260200160002060020160009054906101000a900473ffffffffffffffffffffffffffffffffffffffff1673ffffffffffffffffffffffffffffffffffffffff16036107cc57600c60008281526020019081526020016000206040518061010001604052908160008201548152602001600182015481526020016002820160009054906101000a900473ffffffffffffffffffffffffffffffffffffffff1673ffffffffffffffffffffffffffffffffffffffff1673ffffffffffffffffffffffffffffffffffffffff168152602001600382015481526020016004820160009054906101000a900460ff16600281111561076b5761076a612cb3565b5b600281111561077d5761077c612cb3565b5b815260200160058201548152602001600682015481526020016007820154815250508383815181106107b2576107b161404a565b5b602002602001018190525081806107c890613c85565b9250505b80806107d790613c85565b915050610641565b50819350505050919050565b60075481565b6107f9612663565b60008311801561080b5750600a548311155b61084a576040517f08c379a0000000000000000000000000000000000000000000000000000000008152600401610841906140d6565b60405180910390fd5b60008211801561088057508160056000858152602001908152602001600020600084815260200190815260200160002060000154145b6108bf576040517f08c379a00000000000000000000000000000000000000000000000000000000081526004016108b690614142565b60405180910390fd5b6005600084815260200190815260200160002060008381526020019081526020016000206040518060e001604052908160008201548152602001600182015481526020016002820160009054906101000a900473ffffffffffffffffffffffffffffffffffffffff1673ffffffffffffffffffffffffffffffffffffffff1673ffffffffffffffffffffffffffffffffffffffff16815260200160038201805461096890613cfc565b80601f016020809104026020016040519081016040528092919081815260200182805461099490613cfc565b80156109e15780601f106109b6576101008083540402835291602001916109e1565b820191906000526020600020905b8154815290600101906020018083116109c457829003601f168201915b505050505081526020016004820154815260200160058201548152602001600682015481525050905092915050565b806006600085815260200190815260200160002060008473ffffffffffffffffffffffffffffffffffffffff1673ffffffffffffffffffffffffffffffffffffffff16815260200190815260200160002081905550505050565b8060008082815260200190815260200160002060010160009054906101000a900473ffffffffffffffffffffffffffffffffffffffff1673ffffffffffffffffffffffffffffffffffffffff163373ffffffffffffffffffffffffffffffffffffffff1614610b0e576040517f08c379a0000000000000000000000000000000000000000000000000000000008152600401610b05906141d4565b60405180910390fd5b600060016004600088815260200190815260200160002054610b3091906141f4565b9050600460008781526020019081526020016000206000815480929190610b5690613c85565b9190505550600360008781526020019081526020016000206006018190806001815401808255809150506001900390600052602060002001600090919091909150556040518060e00160405280878152602001828152602001600073ffffffffffffffffffffffffffffffffffffffff1681526020018681526020014281526020016201518042610be79190614257565b815260200185815250600560008881526020019081526020016000206000838152602001908152602001600020600082015181600001556020820151816001015560408201518160020160006101000a81548173ffffffffffffffffffffffffffffffffffffffff021916908373ffffffffffffffffffffffffffffffffffffffff1602179055506060820151816003019081610c849190613ed9565b506080820151816004015560a0820151816005015560c082015181600601559050507f6746258bd4dc3961de3bd0fef53a987639aae292ced878d1044663960b5b3e59818786604051610cd993929190614288565b60405180910390a1505050505050565b600a5481565b8460008082815260200190815260200160002060010160009054906101000a900473ffffffffffffffffffffffffffffffffffffffff1673ffffffffffffffffffffffffffffffffffffffff163373ffffffffffffffffffffffffffffffffffffffff1614610d93576040517f08c379a0000000000000000000000000000000000000000000000000000000008152600401610d8a906141d4565b60405180910390fd5b600a6000815480929190610da690613c85565b91905055506040518060e00160405280600a5481526020018681526020018581526020018481526020018373ffffffffffffffffffffffffffffffffffffffff168152602001878152602001600067ffffffffffffffff811115610e0d57610e0c612942565b5b604051908082528060200260200182016040528015610e3b5781602001602082028036833780820191505090505b5081525060036000600a548152602001908152602001600020600082015181600001556020820151816001019081610e739190613ed9565b50604082015181600201556060820151816003019081610e939190613ed9565b5060808201518160040160006101000a81548173ffffffffffffffffffffffffffffffffffffffff021916908373ffffffffffffffffffffffffffffffffffffffff16021790555060a0820151816005015560c0820151816006019080519060200190610f019291906125a9565b509050507f6c19f22d83a1ce20713b4c747e3a78c3036498ced71d283c697d587033783bd0600a5486604051610f389291906142f8565b60405180910390a1505050505050565b60076000815480929190610f5b90613c85565b9190505550604051806080016040528060075481526020013373ffffffffffffffffffffffffffffffffffffffff1681526020018381526020018281525060008060075481526020019081526020016000206000820151816000015560208201518160010160006101000a81548173ffffffffffffffffffffffffffffffffffffffff021916908373ffffffffffffffffffffffffffffffffffffffff16021790555060408201518160020190816110139190613ed9565b5060608201518160030190805190602001906110309291906126b6565b509050507fa1fd3231f7912e48ffbf52db08250262416750cd0c9618106dd67eee527a1f0260075433604051611067929190614337565b60405180910390a15050565b600c600082815260200190815260200160002060020160009054906101000a900473ffffffffffffffffffffffffffffffffffffffff168073ffffffffffffffffffffffffffffffffffffffff163373ffffffffffffffffffffffffffffffffffffffff1614611118576040517f08c379a000000000000000000000000000000000000000000000000000000000815260040161110f906143d2565b60405180910390fd5b60028081111561112b5761112a612cb3565b5b600c600084815260200190815260200160002060040160009054906101000a900460ff16600281111561116157611160612cb3565b5b036111a1576040517f08c379a00000000000000000000000000000000000000000000000000000000081526004016111989061443e565b60405180910390fd5b6002600c600084815260200190815260200160002060040160006101000a81548160ff021916908360028111156111db576111da612cb3565b5b02179055507f56d74882d0df5b525123b8a0a5b1b16cd6918f15897439e113fb15bed337b7e98260405161120f91906128fd565b60405180910390a15050565b600b600081548092919061122e90613c85565b9190505550600060056000848152602001908152602001600020600083815260200190815260200160002060020160009054906101000a900473ffffffffffffffffffffffffffffffffffffffff16905060006006600085815260200190815260200160002060008373ffffffffffffffffffffffffffffffffffffffff1673ffffffffffffffffffffffffffffffffffffffff1681526020019081526020016000205490506040518061010001604052808581526020018481526020018373ffffffffffffffffffffffffffffffffffffffff1681526020018281526020016000600281111561132257611321612cb3565b5b815260200142815260200160008152602001600b54815250600c6000600b548152602001908152602001600020600082015181600001556020820151816001015560408201518160020160006101000a81548173ffffffffffffffffffffffffffffffffffffffff021916908373ffffffffffffffffffffffffffffffffffffffff1602179055506060820151816003015560808201518160040160006101000a81548160ff021916908360028111156113df576113de612cb3565b5b021790555060a0820151816005015560c0820151816006015560e082015181600701559050507fc92afee2df9da8514d602cb137349226cae98de592c5ae8199917bfdea9a1e24600b5485838660405161143c949392919061445e565b60405180910390a150505050565b878073ffffffffffffffffffffffffffffffffffffffff163373ffffffffffffffffffffffffffffffffffffffff16146114b9576040517f08c379a00000000000000000000000000000000000000000000000000000000081526004016114b0906143d2565b60405180910390fd5b600960008154809291906114cc90613c85565b919050555060008015158915151480156114ea575060001515881515145b1561152a576040517f08c379a0000000000000000000000000000000000000000000000000000000008152600401611521906144ef565b60405180910390fd5b600115158915150361153f576000905061155a565b60011515881515036115545760019050611559565b600290505b5b60405180610120016040528060095481526020018c81526020018b73ffffffffffffffffffffffffffffffffffffffff1681526020018260028111156115a3576115a2612cb3565b5b8152602001888152602001878152602001868152602001858152602001848152506002600060095481526020019081526020016000206000820151816000015560208201518160010190816115f89190613ed9565b5060408201518160020160006101000a81548173ffffffffffffffffffffffffffffffffffffffff021916908373ffffffffffffffffffffffffffffffffffffffff16021790555060608201518160020160146101000a81548160ff0219169083600281111561166b5761166a612cb3565b5b02179055506080820151816003015560a0820151816004016000820151816000015560208201518160010155505060c0820151816006016000820151816000015560208201518160010155505060e08201518160080160008201518160000160006101000a81548160ff02191690831515021790555060208201518160000160016101000a81548160ff02191690831515021790555060408201518160000160026101000a81548160ff021916908315150217905550505061010082015181600901600082015181600001556020820151816001015550509050507f80968e0cf0f9fbad1f441d6bcbc63de0fe2c2a21dcbd37b22b46e61c7695031f6009548c6040516117799291906142f8565b60405180910390a15050505050505050505050565b600c600082815260200190815260200160002060020160009054906101000a900473ffffffffffffffffffffffffffffffffffffffff168073ffffffffffffffffffffffffffffffffffffffff163373ffffffffffffffffffffffffffffffffffffffff1614611833576040517f08c379a000000000000000000000000000000000000000000000000000000000815260040161182a906143d2565b60405180910390fd5b6001600281111561184757611846612cb3565b5b600c600084815260200190815260200160002060040160009054906101000a900460ff16600281111561187d5761187c612cb3565b5b036118bd576040517f08c379a00000000000000000000000000000000000000000000000000000000081526004016118b490614581565b60405180910390fd5b6001600c600084815260200190815260200160002060040160006101000a81548160ff021916908360028111156118f7576118f6612cb3565b5b021790555042600c6000848152602001908152602001600020600601819055507f109612b3153463a13d8c2840918ef74c26d7d0cae1746f6f5735a8e7e1f8bbb78260405161194691906128fd565b60405180910390a15050565b60095481565b606060008211801561196c57506007548211155b6119ab576040517f08c379a00000000000000000000000000000000000000000000000000000000081526004016119a2906145ed565b60405180910390fd5b600080600190505b600a5481116119fb57836003600083815260200190815260200160002060050154036119e85781806119e490613c85565b9250505b80806119f390613c85565b9150506119b3565b5060008167ffffffffffffffff811115611a1857611a17612942565b5b604051908082528060200260200182016040528015611a5157816020015b611a3e61270f565b815260200190600190039081611a365790505b509050600080600190505b600a548111611cd05785600360008381526020019081526020016000206005015403611cbd57600360008281526020019081526020016000206040518060e001604052908160008201548152602001600182018054611aba90613cfc565b80601f0160208091040260200160405190810160405280929190818152602001828054611ae690613cfc565b8015611b335780601f10611b0857610100808354040283529160200191611b33565b820191906000526020600020905b815481529060010190602001808311611b1657829003601f168201915b5050505050815260200160028201548152602001600382018054611b5690613cfc565b80601f0160208091040260200160405190810160405280929190818152602001828054611b8290613cfc565b8015611bcf5780601f10611ba457610100808354040283529160200191611bcf565b820191906000526020600020905b815481529060010190602001808311611bb257829003601f168201915b505050505081526020016004820160009054906101000a900473ffffffffffffffffffffffffffffffffffffffff1673ffffffffffffffffffffffffffffffffffffffff1673ffffffffffffffffffffffffffffffffffffffff1681526020016005820154815260200160068201805480602002602001604051908101604052809291908181526020018280548015611c8757602002820191906000526020600020905b815481526020019060010190808311611c73575b505050505081525050838381518110611ca357611ca261404a565b5b60200260200101819052508180611cb990613c85565b9250505b8080611cc890613c85565b915050611a5c565b50819350505050919050565b60046020528060005260406000206000915090505481565b826003600082815260200190815260200160002060040160009054906101000a900473ffffffffffffffffffffffffffffffffffffffff1673ffffffffffffffffffffffffffffffffffffffff163373ffffffffffffffffffffffffffffffffffffffff1614611d99576040517f08c379a0000000000000000000000000000000000000000000000000000000008152600401611d909061467f565b60405180910390fd5b600073ffffffffffffffffffffffffffffffffffffffff1660056000868152602001908152602001600020600085815260200190815260200160002060020160009054906101000a900473ffffffffffffffffffffffffffffffffffffffff1673ffffffffffffffffffffffffffffffffffffffff1603611eb8578160056000868152602001908152602001600020600085815260200190815260200160002060020160006101000a81548173ffffffffffffffffffffffffffffffffffffffff021916908373ffffffffffffffffffffffffffffffffffffffff1602179055507fe8dfa1000a377c1be6687e0c2f30a28b8ab10bc929a3272894b169f3385dea8b8483604051611eab929190614337565b60405180910390a1611ef3565b6040517f08c379a0000000000000000000000000000000000000000000000000000000008152600401611eea90614711565b60405180910390fd5b50505050565b6060600080600190505b6009548111611f97578373ffffffffffffffffffffffffffffffffffffffff166002600083815260200190815260200160002060020160009054906101000a900473ffffffffffffffffffffffffffffffffffffffff1673ffffffffffffffffffffffffffffffffffffffff1603611f84578180611f8090613c85565b9250505b8080611f8f90613c85565b915050611f03565b5060008167ffffffffffffffff811115611fb457611fb3612942565b5b604051908082528060200260200182016040528015611fed57816020015b611fda612762565b815260200190600190039081611fd25790505b509050600080600190505b60095481116122dd578573ffffffffffffffffffffffffffffffffffffffff166002600083815260200190815260200160002060020160009054906101000a900473ffffffffffffffffffffffffffffffffffffffff1673ffffffffffffffffffffffffffffffffffffffff16036122ca576002600082815260200190815260200160002060405180610120016040529081600082015481526020016001820180546120a390613cfc565b80601f01602080910402602001604051908101604052809291908181526020018280546120cf90613cfc565b801561211c5780601f106120f15761010080835404028352916020019161211c565b820191906000526020600020905b8154815290600101906020018083116120ff57829003601f168201915b505050505081526020016002820160009054906101000a900473ffffffffffffffffffffffffffffffffffffffff1673ffffffffffffffffffffffffffffffffffffffff1673ffffffffffffffffffffffffffffffffffffffff1681526020016002820160149054906101000a900460ff1660028111156121a05761219f612cb3565b5b60028111156121b2576121b1612cb3565b5b8152602001600382015481526020016004820160405180604001604052908160008201548152602001600182015481525050815260200160068201604051806040016040529081600082015481526020016001820154815250508152602001600882016040518060600160405290816000820160009054906101000a900460ff161515151581526020016000820160019054906101000a900460ff161515151581526020016000820160029054906101000a900460ff16151515158152505081526020016009820160405180604001604052908160008201548152602001600182015481525050815250508383815181106122b0576122af61404a565b5b602002602001018190525081806122c690613c85565b9250505b80806122d590613c85565b915050611ff8565b50819350505050919050565b60606000821180156122fd5750600a548211155b61233c576040517f08c379a0000000000000000000000000000000000000000000000000000000008152600401612333906140d6565b60405180910390fd5b60006003600084815260200190815260200160002060060180548060200260200160405190810160405280929190818152602001828054801561239e57602002820191906000526020600020905b81548152602001906001019080831161238a575b505050505090506000815167ffffffffffffffff8111156123c2576123c1612942565b5b6040519080825280602002602001820160405280156123fb57816020015b6123e8612663565b8152602001906001900390816123e05790505b50905060005b825181101561259e576005600086815260200190815260200160002060008483815181106124325761243161404a565b5b602002602001015181526020019081526020016000206040518060e001604052908160008201548152602001600182015481526020016002820160009054906101000a900473ffffffffffffffffffffffffffffffffffffffff1673ffffffffffffffffffffffffffffffffffffffff1673ffffffffffffffffffffffffffffffffffffffff1681526020016003820180546124cd90613cfc565b80601f01602080910402602001604051908101604052809291908181526020018280546124f990613cfc565b80156125465780601f1061251b57610100808354040283529160200191612546565b820191906000526020600020905b81548152906001019060200180831161252957829003601f168201915b5050505050815260200160048201548152602001600582015481526020016006820154815250508282815181106125805761257f61404a565b5b6020026020010181905250808061259690613c85565b915050612401565b508092505050919050565b8280548282559060005260206000209081019282156125e5579160200282015b828111156125e45782518255916020019190600101906125c9565b5b5090506125f291906127ee565b5090565b6040518061010001604052806000815260200160008152602001600073ffffffffffffffffffffffffffffffffffffffff168152602001600081526020016000600281111561264857612647612cb3565b5b81526020016000815260200160008152602001600081525090565b6040518060e001604052806000815260200160008152602001600073ffffffffffffffffffffffffffffffffffffffff168152602001606081526020016000815260200160008152602001600081525090565b8280548282559060005260206000209081019282156126fe579160200282015b828111156126fd5782518290816126ed9190613ed9565b50916020019190600101906126d6565b5b50905061270b919061280b565b5090565b6040518060e0016040528060008152602001606081526020016000815260200160608152602001600073ffffffffffffffffffffffffffffffffffffffff16815260200160008152602001606081525090565b6040518061012001604052806000815260200160608152602001600073ffffffffffffffffffffffffffffffffffffffff168152602001600060028111156127ad576127ac612cb3565b5b8152602001600081526020016127c161282f565b81526020016127ce612849565b81526020016127db612863565b81526020016127e861288a565b81525090565b5b808211156128075760008160009055506001016127ef565b5090565b5b8082111561282b576000818161282291906128a4565b5060010161280c565b5090565b604051806040016040528060008152602001600081525090565b604051806040016040528060008152602001600081525090565b60405180606001604052806000151581526020016000151581526020016000151581525090565b604051806040016040528060008152602001600081525090565b5080546128b090613cfc565b6000825580601f106128c257506128e1565b601f0160209004906000526020600020908101906128e091906127ee565b5b50565b6000819050919050565b6128f7816128e4565b82525050565b600060208201905061291260008301846128ee565b92915050565b6000604051905090565b600080fd5b600080fd5b600080fd5b6000601f19601f8301169050919050565b7f4e487b7100000000000000000000000000000000000000000000000000000000600052604160045260246000fd5b61297a82612931565b810181811067ffffffffffffffff8211171561299957612998612942565b5b80604052505050565b60006129ac612918565b90506129b88282612971565b919050565b600067ffffffffffffffff8211156129d8576129d7612942565b5b602082029050602081019050919050565b600080fd5b6129f7816128e4565b8114612a0257600080fd5b50565b600081359050612a14816129ee565b92915050565b6000612a2d612a28846129bd565b6129a2565b90508083825260208201905060208402830185811115612a5057612a4f6129e9565b5b835b81811015612a795780612a658882612a05565b845260208401935050602081019050612a52565b5050509392505050565b600082601f830112612a9857612a9761292c565b5b8135612aa8848260208601612a1a565b91505092915050565b600080fd5b600067ffffffffffffffff821115612ad157612ad0612942565b5b612ada82612931565b9050602081019050919050565b82818337600083830152505050565b6000612b09612b0484612ab6565b6129a2565b905082815260208101848484011115612b2557612b24612ab1565b5b612b30848285612ae7565b509392505050565b600082601f830112612b4d57612b4c61292c565b5b8135612b5d848260208601612af6565b91505092915050565b60008060408385031215612b7d57612b7c612922565b5b600083013567ffffffffffffffff811115612b9b57612b9a612927565b5b612ba785828601612a83565b925050602083013567ffffffffffffffff811115612bc857612bc7612927565b5b612bd485828601612b38565b9150509250929050565b600073ffffffffffffffffffffffffffffffffffffffff82169050919050565b6000612c0982612bde565b9050919050565b612c1981612bfe565b8114612c2457600080fd5b50565b600081359050612c3681612c10565b92915050565b600060208284031215612c5257612c51612922565b5b6000612c6084828501612c27565b91505092915050565b600081519050919050565b600082825260208201905092915050565b6000819050602082019050919050565b612c9e816128e4565b82525050565b612cad81612bfe565b82525050565b7f4e487b7100000000000000000000000000000000000000000000000000000000600052602160045260246000fd5b60038110612cf357612cf2612cb3565b5b50565b6000819050612d0482612ce2565b919050565b6000612d1482612cf6565b9050919050565b612d2481612d09565b82525050565b61010082016000820151612d416000850182612c95565b506020820151612d546020850182612c95565b506040820151612d676040850182612ca4565b506060820151612d7a6060850182612c95565b506080820151612d8d6080850182612d1b565b5060a0820151612da060a0850182612c95565b5060c0820151612db360c0850182612c95565b5060e0820151612dc660e0850182612c95565b50505050565b6000612dd88383612d2a565b6101008301905092915050565b6000602082019050919050565b6000612dfd82612c69565b612e078185612c74565b9350612e1283612c85565b8060005b83811015612e43578151612e2a8882612dcc565b9750612e3583612de5565b925050600181019050612e16565b5085935050505092915050565b60006020820190508181036000830152612e6a8184612df2565b905092915050565b60008060408385031215612e8957612e88612922565b5b6000612e9785828601612a05565b9250506020612ea885828601612a05565b9150509250929050565b600081519050919050565b600082825260208201905092915050565b60005b83811015612eec578082015181840152602081019050612ed1565b60008484015250505050565b6000612f0382612eb2565b612f0d8185612ebd565b9350612f1d818560208601612ece565b612f2681612931565b840191505092915050565b600060e083016000830151612f496000860182612c95565b506020830151612f5c6020860182612c95565b506040830151612f6f6040860182612ca4565b5060608301518482036060860152612f878282612ef8565b9150506080830151612f9c6080860182612c95565b5060a0830151612faf60a0860182612c95565b5060c0830151612fc260c0860182612c95565b508091505092915050565b60006020820190508181036000830152612fe78184612f31565b905092915050565b60008060006060848603121561300857613007612922565b5b600061301686828701612a05565b935050602061302786828701612c27565b925050604061303886828701612a05565b9150509250925092565b6000806000806080858703121561305c5761305b612922565b5b600061306a87828801612a05565b945050602085013567ffffffffffffffff81111561308b5761308a612927565b5b61309787828801612b38565b93505060406130a887828801612a05565b92505060606130b987828801612a05565b91505092959194509250565b600080600080600060a086880312156130e1576130e0612922565b5b60006130ef88828901612a05565b955050602086013567ffffffffffffffff8111156131105761310f612927565b5b61311c88828901612b38565b945050604061312d88828901612a05565b935050606086013567ffffffffffffffff81111561314e5761314d612927565b5b61315a88828901612b38565b925050608061316b88828901612c27565b9150509295509295909350565b600067ffffffffffffffff82111561319357613192612942565b5b602082029050602081019050919050565b60006131b76131b284613178565b6129a2565b905080838252602082019050602084028301858111156131da576131d96129e9565b5b835b8181101561322157803567ffffffffffffffff8111156131ff576131fe61292c565b5b80860161320c8982612b38565b855260208501945050506020810190506131dc565b5050509392505050565b600082601f8301126132405761323f61292c565b5b81356132508482602086016131a4565b91505092915050565b600080604083850312156132705761326f612922565b5b600083013567ffffffffffffffff81111561328e5761328d612927565b5b61329a85828601612b38565b925050602083013567ffffffffffffffff8111156132bb576132ba612927565b5b6132c78582860161322b565b9150509250929050565b6000602082840312156132e7576132e6612922565b5b60006132f584828501612a05565b91505092915050565b60008115159050919050565b613313816132fe565b811461331e57600080fd5b50565b6000813590506133308161330a565b92915050565b600080fd5b60006040828403121561335157613350613336565b5b61335b60406129a2565b9050600061336b84828501612a05565b600083015250602061337f84828501612a05565b60208301525092915050565b6000604082840312156133a1576133a0613336565b5b6133ab60406129a2565b905060006133bb84828501612a05565b60008301525060206133cf84828501612a05565b60208301525092915050565b6000606082840312156133f1576133f0613336565b5b6133fb60606129a2565b9050600061340b84828501613321565b600083015250602061341f84828501613321565b602083015250604061343384828501613321565b60408301525092915050565b60006040828403121561345557613454613336565b5b61345f60406129a2565b9050600061346f84828501612a05565b600083015250602061348384828501612a05565b60208301525092915050565b60008060008060008060008060006101c08a8c0312156134b2576134b1612922565b5b60008a013567ffffffffffffffff8111156134d0576134cf612927565b5b6134dc8c828d01612b38565b99505060206134ed8c828d01612c27565b98505060406134fe8c828d01613321565b975050606061350f8c828d01613321565b96505060806135208c828d01612a05565b95505060a06135318c828d0161333b565b94505060e06135428c828d0161338b565b9350506101206135548c828d016133db565b9250506101806135668c828d0161343f565b9150509295985092959850929598565b600081519050919050565b600082825260208201905092915050565b6000819050602082019050919050565b600081519050919050565b600082825260208201905092915050565b6000819050602082019050919050565b60006135da8383612c95565b60208301905092915050565b6000602082019050919050565b60006135fe826135a2565b61360881856135ad565b9350613613836135be565b8060005b8381101561364457815161362b88826135ce565b9750613636836135e6565b925050600181019050613617565b5085935050505092915050565b600060e0830160008301516136696000860182612c95565b50602083015184820360208601526136818282612ef8565b91505060408301516136966040860182612c95565b50606083015184820360608601526136ae8282612ef8565b91505060808301516136c36080860182612ca4565b5060a08301516136d660a0860182612c95565b5060c083015184820360c08601526136ee82826135f3565b9150508091505092915050565b60006137078383613651565b905092915050565b6000602082019050919050565b600061372782613576565b6137318185613581565b93508360208202850161374385613592565b8060005b8581101561377f578484038952815161376085826136fb565b945061376b8361370f565b925060208a01995050600181019050613747565b50829750879550505050505092915050565b600060208201905081810360008301526137ab818461371c565b905092915050565b6000806000606084860312156137cc576137cb612922565b5b60006137da86828701612a05565b93505060206137eb86828701612a05565b92505060406137fc86828701612c27565b9150509250925092565b600081519050919050565b600082825260208201905092915050565b6000819050602082019050919050565b6003811061384357613842612cb3565b5b50565b600081905061385482613832565b919050565b600061386482613846565b9050919050565b61387481613859565b82525050565b6040820160008201516138906000850182612c95565b5060208201516138a36020850182612c95565b50505050565b6040820160008201516138bf6000850182612c95565b5060208201516138d26020850182612c95565b50505050565b6138e1816132fe565b82525050565b6060820160008201516138fd60008501826138d8565b50602082015161391060208501826138d8565b50604082015161392360408501826138d8565b50505050565b60408201600082015161393f6000850182612c95565b5060208201516139526020850182612c95565b50505050565b60006101c0830160008301516139716000860182612c95565b50602083015184820360208601526139898282612ef8565b915050604083015161399e6040860182612ca4565b5060608301516139b1606086018261386b565b5060808301516139c46080860182612c95565b5060a08301516139d760a086018261387a565b5060c08301516139ea60e08601826138a9565b5060e08301516139fe6101208601826138e7565b50610100830151613a13610180860182613929565b508091505092915050565b6000613a2a8383613958565b905092915050565b6000602082019050919050565b6000613a4a82613806565b613a548185613811565b935083602082028501613a6685613822565b8060005b85811015613aa25784840389528151613a838582613a1e565b9450613a8e83613a32565b925060208a01995050600181019050613a6a565b50829750879550505050505092915050565b60006020820190508181036000830152613ace8184613a3f565b905092915050565b600081519050919050565b600082825260208201905092915050565b6000819050602082019050919050565b600060e083016000830151613b1a6000860182612c95565b506020830151613b2d6020860182612c95565b506040830151613b406040860182612ca4565b5060608301518482036060860152613b588282612ef8565b9150506080830151613b6d6080860182612c95565b5060a0830151613b8060a0860182612c95565b5060c0830151613b9360c0860182612c95565b508091505092915050565b6000613baa8383613b02565b905092915050565b6000602082019050919050565b6000613bca82613ad6565b613bd48185613ae1565b935083602082028501613be685613af2565b8060005b85811015613c225784840389528151613c038582613b9e565b9450613c0e83613bb2565b925060208a01995050600181019050613bea565b50829750879550505050505092915050565b60006020820190508181036000830152613c4e8184613bbf565b905092915050565b7f4e487b7100000000000000000000000000000000000000000000000000000000600052601160045260246000fd5b6000613c90826128e4565b91507fffffffffffffffffffffffffffffffffffffffffffffffffffffffffffffffff8203613cc257613cc1613c56565b5b600182019050919050565b7f4e487b7100000000000000000000000000000000000000000000000000000000600052602260045260246000fd5b60006002820490506001821680613d1457607f821691505b602082108103613d2757613d26613ccd565b5b50919050565b60008190508160005260206000209050919050565b60006020601f8301049050919050565b600082821b905092915050565b600060088302613d8f7fffffffffffffffffffffffffffffffffffffffffffffffffffffffffffffffff82613d52565b613d998683613d52565b95508019841693508086168417925050509392505050565b6000819050919050565b6000613dd6613dd1613dcc846128e4565b613db1565b6128e4565b9050919050565b6000819050919050565b613df083613dbb565b613e04613dfc82613ddd565b848454613d5f565b825550505050565b600090565b613e19613e0c565b613e24818484613de7565b505050565b5b81811015613e4857613e3d600082613e11565b600181019050613e2a565b5050565b601f821115613e8d57613e5e81613d2d565b613e6784613d42565b81016020851015613e76578190505b613e8a613e8285613d42565b830182613e29565b50505b505050565b600082821c905092915050565b6000613eb060001984600802613e92565b1980831691505092915050565b6000613ec98383613e9f565b9150826002028217905092915050565b613ee282612eb2565b67ffffffffffffffff811115613efb57613efa612942565b5b613f058254613cfc565b613f10828285613e4c565b600060209050601f831160018114613f435760008415613f31578287015190505b613f3b8582613ebd565b865550613fa3565b601f198416613f5186613d2d565b60005b82811015613f7957848901518255600182019150602085019450602081019050613f54565b86831015613f965784890151613f92601f891682613e9f565b8355505b6001600288020188555050505b505050505050565b600082825260208201905092915050565b6000613fc7826135a2565b613fd18185613fab565b9350613fdc836135be565b8060005b8381101561400d578151613ff488826135ce565b9750613fff836135e6565b925050600181019050613fe0565b5085935050505092915050565b600060408201905061402f60008301856128ee565b81810360208301526140418184613fbc565b90509392505050565b7f4e487b7100000000000000000000000000000000000000000000000000000000600052603260045260246000fd5b600082825260208201905092915050565b7f496e76616c69642070617469656e742049440000000000000000000000000000600082015250565b60006140c0601283614079565b91506140cb8261408a565b602082019050919050565b600060208201905081810360008301526140ef816140b3565b9050919050565b7f496e76616c69642062696c6c2049440000000000000000000000000000000000600082015250565b600061412c600f83614079565b9150614137826140f6565b602082019050919050565b6000602082019050818103600083015261415b8161411f565b9050919050565b7f4f6e6c792074686520686f73706974616c2063616e20706572666f726d20746860008201527f697320616374696f6e0000000000000000000000000000000000000000000000602082015250565b60006141be602983614079565b91506141c982614162565b604082019050919050565b600060208201905081810360008301526141ed816141b1565b9050919050565b60006141ff826128e4565b915061420a836128e4565b925082820190508082111561422257614221613c56565b5b92915050565b7f4e487b7100000000000000000000000000000000000000000000000000000000600052601260045260246000fd5b6000614262826128e4565b915061426d836128e4565b92508261427d5761427c614228565b5b828204905092915050565b600060608201905061429d60008301866128ee565b6142aa60208301856128ee565b6142b760408301846128ee565b949350505050565b60006142ca82612eb2565b6142d48185614079565b93506142e4818560208601612ece565b6142ed81612931565b840191505092915050565b600060408201905061430d60008301856128ee565b818103602083015261431f81846142bf565b90509392505050565b61433181612bfe565b82525050565b600060408201905061434c60008301856128ee565b6143596020830184614328565b9392505050565b7f4f6e6c792074686520696e737572616e636520636f6d70616e792063616e207060008201527f6572666f726d207468697320616374696f6e0000000000000000000000000000602082015250565b60006143bc603283614079565b91506143c782614360565b604082019050919050565b600060208201905081810360008301526143eb816143af565b9050919050565b7f497420697320616c72656164792072656a656374656400000000000000000000600082015250565b6000614428601683614079565b9150614433826143f2565b602082019050919050565b600060208201905081810360008301526144578161441b565b9050919050565b600060808201905061447360008301876128ee565b61448060208301866128ee565b61448d60408301856128ee565b61449a60608301846128ee565b95945050505050565b7f506c656173652053656c656374204f6e65205479706500000000000000000000600082015250565b60006144d9601683614079565b91506144e4826144a3565b602082019050919050565b60006020820190508181036000830152614508816144cc565b9050919050565b7f507265617574686f72697a6174696f6e20616c72656164792070726f6365737360008201527f6564000000000000000000000000000000000000000000000000000000000000602082015250565b600061456b602283614079565b91506145768261450f565b604082019050919050565b6000602082019050818103600083015261459a8161455e565b9050919050565b7f496e76616c696420686f73706974616c20494400000000000000000000000000600082015250565b60006145d7601383614079565b91506145e2826145a1565b602082019050919050565b60006020820190508181036000830152614606816145ca565b9050919050565b7f4f6e6c79207468652070617469656e742063616e20706572666f726d2074686960008201527f7320616374696f6e000000000000000000000000000000000000000000000000602082015250565b6000614669602883614079565b91506146748261460d565b604082019050919050565b600060208201905081810360008301526146988161465c565b9050919050565b7f496e737572616e636520436f6d70616e7920616c72656164792061737369676e60008201527f6564000000000000000000000000000000000000000000000000000000000000602082015250565b60006146fb602283614079565b91506147068261469f565b604082019050919050565b6000602082019050818103600083015261472a816146ee565b905091905056fea26469706673582212206e338896be6bfcd320d505aa8ee5bc80b5207f5b7e07ff3ae673af9ff7ffb89f64736f6c63430008110033",
  "immutableReferences": {},
  "source": "// SPDX-License-Identifier: MIT\r\npragma solidity ^0.8.0;\r\n\r\nimport {MainStructure} from \"./Main_Structure.sol\";\r\n\r\n\r\ncontract Cashless is MainStructure{\r\n    struct Preauthorization {\r\n        uint256 patientId;\r\n        uint256 billId;\r\n        address insuranceCompanyAddress;\r\n        uint256 policyId;\r\n        PreauthorizationStatus isPreauthorized; \r\n        uint256 requestTimestamp;\r\n        uint256 approvedTimestamp;\r\n        uint256 preAuthId;\r\n    }\r\n    mapping(uint256 => Preauthorization)  preauthorizations;\r\n    enum PreauthorizationStatus{ PENDING, APPROVED,REJECTED }\r\n    event PreauthorizationRequested(uint256 preauthorizationId, uint256 patientId, uint256 policyId, uint256 isCashless);\r\n    event PreauthorizationApproved(uint256 preauthorizationId);\r\n    event PreauthorizationRejected(uint256 preauthorizationId);\r\n\r\n    function requestPreauthorization(\r\n        uint256 _patientId,\r\n        uint256 _billId\r\n    ) public {\r\n        preauthorizationCount++;\r\n        address insuranceCompany= medicalBills[_patientId][_billId].assignedInsuranceCompany;\r\n        uint256 policyId=patientInsurancePolicies[_patientId][insuranceCompany]; \r\n        preauthorizations[preauthorizationCount] = Preauthorization(\r\n            _patientId,\r\n            _billId,\r\n            insuranceCompany,\r\n            policyId,\r\n            PreauthorizationStatus.PENDING,\r\n            block.timestamp,\r\n            0,\r\n            preauthorizationCount\r\n        );\r\n        emit PreauthorizationRequested(preauthorizationCount, _patientId, policyId, _billId );\r\n    }\r\n\r\n    function approvePreauthorization(uint256 _preauthorizationId) \r\n    public \r\n    onlyInsuranceCompany(preauthorizations[_preauthorizationId].insuranceCompanyAddress)\r\n    {\r\n        require(preauthorizations[_preauthorizationId].isPreauthorized != PreauthorizationStatus.APPROVED, \"Preauthorization already processed\");\r\n        preauthorizations[_preauthorizationId].isPreauthorized = PreauthorizationStatus.APPROVED;\r\n        preauthorizations[_preauthorizationId].approvedTimestamp = block.timestamp;\r\n        emit PreauthorizationApproved(_preauthorizationId);\r\n    }\r\n\r\n    function rejectPreauthorization(uint256 _preauthorizationId) \r\n    public \r\n    onlyInsuranceCompany(preauthorizations[_preauthorizationId].insuranceCompanyAddress)\r\n    {\r\n        require(preauthorizations[_preauthorizationId].isPreauthorized != PreauthorizationStatus.REJECTED, \"It is already rejected\");\r\n       preauthorizations[_preauthorizationId].isPreauthorized = PreauthorizationStatus.REJECTED;\r\n       emit PreauthorizationRejected(_preauthorizationId);\r\n   }\r\n\r\n    modifier cashlessTreatment(uint256 _preauthorizationId) {\r\n        Preauthorization storage preauth = preauthorizations[_preauthorizationId];\r\n        require(preauth.isPreauthorized == PreauthorizationStatus.APPROVED, \"Preauthorization not approved\");\r\n        \r\n        Policy storage policy = policies[preauth.policyId];\r\n        require(policy.policyType == PolicyType.CASHLESS || policy.policyType == PolicyType.BOTH, \"Policy does not cover cashless treatment\");\r\n        _;\r\n    }\r\n\r\n   \r\n    function calculateCopayment(uint256 _policyId, uint256 _billAmount) internal view returns (uint256) {\r\n        Policy storage policy = policies[_policyId];\r\n        uint256 copayment;\r\n        if (policy.copayment.fixedCharge > 0)\r\n        copayment= policy.copayment.fixedCharge;\r\n        \r\n\r\n        if (policy.copayment.percentageCharge > 0) {\r\n            copayment += (_billAmount * policy.copayment.percentageCharge) / 100;\r\n        }\r\n\r\n        return copayment;\r\n    }\r\n\r\n    function calculateDeductible(uint256 _policyId, uint256 _billAmount) internal view returns (uint256) {\r\n        Policy storage policy = policies[_policyId];\r\n        uint256 deductible = 0;\r\n\r\n        if (_billAmount >= policy.deductible.annual) {\r\n            deductible = policy.deductible.annual;\r\n        }    \r\n\r\n        deductible += policy.deductible.perInstance;\r\n\r\n        return deductible;\r\n    }\r\n\r\n    function isNonCoveredExpense(uint256 _policyId, string memory _expenseType) internal view returns (bool) {\r\n        Policy storage policy = policies[_policyId];\r\n        if (keccak256(bytes(_expenseType)) == keccak256(bytes(\"facelift\"))) {\r\n            return policy.noncoveredExpense.facelift;\r\n        } else if (keccak256(bytes(_expenseType)) == keccak256(bytes(\"hairTransplant\"))) {\r\n            return policy.noncoveredExpense.hairTransplant;\r\n        } else if (keccak256(bytes(_expenseType)) == keccak256(bytes(\"alternativeTherapy\"))) {\r\n            return policy.noncoveredExpense.alternativeTherapy;\r\n        }\r\n        return false;\r\n    }\r\n\r\n    function checkSublimits(uint256 _policyId, uint256 _roomRentAmount, uint256 _surgeryAmount) internal view returns (bool, uint256) {\r\n        Policy storage policy = policies[_policyId];\r\n        uint256 sublimitOff = 0; \r\n        \r\n        if (_roomRentAmount > policy.sublimit.roomRentLimit || _surgeryAmount > policy.sublimit.surgeryLimit) \r\n            return (false,0);\r\n        \r\n\r\n        if (_roomRentAmount <= policy.sublimit.roomRentLimit) {\r\n            sublimitOff += policy.sublimit.roomRentLimit - _roomRentAmount;\r\n        }\r\n\r\n        if (_surgeryAmount <= policy.sublimit.surgeryLimit) {\r\n            sublimitOff += policy.sublimit.surgeryLimit - _surgeryAmount;\r\n        }\r\n\r\n        return (true, sublimitOff); \r\n    }\r\n\r\n\r\n    function getPreauthorizationRequestsByInsuranceCompany(address _insuranceCompanyAddress) public view returns (Preauthorization[] memory) {\r\n    uint256 count = 0;\r\n    for (uint256 i = 1; i <= preauthorizationCount; i++) {\r\n        if (preauthorizations[i].insuranceCompanyAddress == _insuranceCompanyAddress) {\r\n            count++;\r\n        }\r\n    }\r\n\r\n    Preauthorization[] memory preauthorizationRequests = new Preauthorization[](count);\r\n    uint256 index = 0;\r\n    for (uint256 i = 1; i <= preauthorizationCount; i++) {\r\n        if (preauthorizations[i].insuranceCompanyAddress == _insuranceCompanyAddress) {\r\n            preauthorizationRequests[index] = preauthorizations[i];\r\n            index++;\r\n        }\r\n    }\r\n\r\n    return preauthorizationRequests;\r\n}\r\n}",
  "sourcePath": "D:\\semester 6\\Block Chain\\Patient-Management-System-Decentralized-App\\contracts\\Cashless.sol",
  "compiler": {
    "name": "solc",
    "version": "0.8.17+commit.8df45f5f.Emscripten.clang"
  },
  "schemaVersion": "3.4.16",
  "updatedAt": "2024-05-21T09:11:34.084Z",
  "networkType": "ethereum",
  "devdoc": {
    "kind": "dev",
    "methods": {},
    "version": 1
  },
  "userdoc": {
    "kind": "user",
    "methods": {},
    "version": 1
  }
}