{
  "contractName": "MainStructure",
  "abi": [
    {
      "anonymous": false,
      "inputs": [
        {
          "indexed": false,
          "internalType": "uint256",
          "name": "billId",
          "type": "uint256"
        },
        {
          "indexed": false,
          "internalType": "uint256",
          "name": "patientId",
          "type": "uint256"
        },
        {
          "indexed": false,
          "internalType": "uint256",
          "name": "amount",
          "type": "uint256"
        }
      ],
      "name": "BillGenerated",
      "type": "event"
    },
    {
      "anonymous": false,
      "inputs": [
        {
          "indexed": false,
          "internalType": "uint256",
          "name": "hospitalId",
          "type": "uint256"
        },
        {
          "indexed": false,
          "internalType": "address",
          "name": "hospitalAddress",
          "type": "address"
        }
      ],
      "name": "HospitalRegistered",
      "type": "event"
    },
    {
      "anonymous": false,
      "inputs": [
        {
          "indexed": false,
          "internalType": "uint256",
          "name": "patientId",
          "type": "uint256"
        },
        {
          "indexed": false,
          "internalType": "address",
          "name": "insuranceCompany",
          "type": "address"
        }
      ],
      "name": "InsuranceCompanyAssigned",
      "type": "event"
    },
    {
      "anonymous": false,
      "inputs": [
        {
          "indexed": false,
          "internalType": "uint256",
          "name": "insuranceCompanyId",
          "type": "uint256"
        },
        {
          "indexed": false,
          "internalType": "uint256[]",
          "name": "networkHospitals",
          "type": "uint256[]"
        }
      ],
      "name": "InsuranceCompanyRegistered",
      "type": "event"
    },
    {
      "anonymous": false,
      "inputs": [
        {
          "indexed": false,
          "internalType": "uint256",
          "name": "patientId",
          "type": "uint256"
        },
        {
          "indexed": false,
          "internalType": "string",
          "name": "name",
          "type": "string"
        }
      ],
      "name": "PatientRegistered",
      "type": "event"
    },
    {
      "anonymous": false,
      "inputs": [
        {
          "indexed": false,
          "internalType": "uint256",
          "name": "policyId",
          "type": "uint256"
        },
        {
          "indexed": false,
          "internalType": "string",
          "name": "description",
          "type": "string"
        }
      ],
      "name": "PolicyCreated",
      "type": "event"
    },
    {
      "inputs": [
        {
          "internalType": "uint256",
          "name": "",
          "type": "uint256"
        }
      ],
      "name": "billCounters",
      "outputs": [
        {
          "internalType": "uint256",
          "name": "",
          "type": "uint256"
        }
      ],
      "stateMutability": "view",
      "type": "function",
      "constant": true
    },
    {
      "inputs": [],
      "name": "hospitalCount",
      "outputs": [
        {
          "internalType": "uint256",
          "name": "",
          "type": "uint256"
        }
      ],
      "stateMutability": "view",
      "type": "function",
      "constant": true
    },
    {
      "inputs": [],
      "name": "insuranceCompanyCount",
      "outputs": [
        {
          "internalType": "uint256",
          "name": "",
          "type": "uint256"
        }
      ],
      "stateMutability": "view",
      "type": "function",
      "constant": true
    },
    {
      "inputs": [],
      "name": "patientCount",
      "outputs": [
        {
          "internalType": "uint256",
          "name": "",
          "type": "uint256"
        }
      ],
      "stateMutability": "view",
      "type": "function",
      "constant": true
    },
    {
      "inputs": [],
      "name": "policyCount",
      "outputs": [
        {
          "internalType": "uint256",
          "name": "",
          "type": "uint256"
        }
      ],
      "stateMutability": "view",
      "type": "function",
      "constant": true
    },
    {
      "inputs": [],
      "name": "preauthorizationCount",
      "outputs": [
        {
          "internalType": "uint256",
          "name": "",
          "type": "uint256"
        }
      ],
      "stateMutability": "view",
      "type": "function",
      "constant": true
    },
    {
      "inputs": [
        {
          "internalType": "string",
          "name": "_hospitalName",
          "type": "string"
        },
        {
          "internalType": "string[]",
          "name": "_doctorList",
          "type": "string[]"
        }
      ],
      "name": "registerHospital",
      "outputs": [],
      "stateMutability": "nonpayable",
      "type": "function"
    },
    {
      "inputs": [
        {
          "internalType": "uint256[]",
          "name": "_networkHospitals",
          "type": "uint256[]"
        },
        {
          "internalType": "string",
          "name": "_details",
          "type": "string"
        }
      ],
      "name": "registerInsuranceCompany",
      "outputs": [],
      "stateMutability": "nonpayable",
      "type": "function"
    },
    {
      "inputs": [
        {
          "internalType": "string",
          "name": "_description",
          "type": "string"
        },
        {
          "internalType": "address",
          "name": "_insuranceCompany",
          "type": "address"
        },
        {
          "internalType": "bool",
          "name": "_isPolicyCashless",
          "type": "bool"
        },
        {
          "internalType": "bool",
          "name": "_isPolicyReimbursement",
          "type": "bool"
        },
        {
          "internalType": "uint256",
          "name": "_sumAssured",
          "type": "uint256"
        },
        {
          "components": [
            {
              "internalType": "uint256",
              "name": "annual",
              "type": "uint256"
            },
            {
              "internalType": "uint256",
              "name": "perInstance",
              "type": "uint256"
            }
          ],
          "internalType": "struct MainStructure.Deductible",
          "name": "_deductible",
          "type": "tuple"
        },
        {
          "components": [
            {
              "internalType": "uint256",
              "name": "fixedCharge",
              "type": "uint256"
            },
            {
              "internalType": "uint256",
              "name": "percentageCharge",
              "type": "uint256"
            }
          ],
          "internalType": "struct MainStructure.Copayment",
          "name": "_copayment",
          "type": "tuple"
        },
        {
          "components": [
            {
              "internalType": "bool",
              "name": "facelift",
              "type": "bool"
            },
            {
              "internalType": "bool",
              "name": "hairTransplant",
              "type": "bool"
            },
            {
              "internalType": "bool",
              "name": "alternativeTherapy",
              "type": "bool"
            }
          ],
          "internalType": "struct MainStructure.NoncoveredExpense",
          "name": "_noncoveredExpense",
          "type": "tuple"
        },
        {
          "components": [
            {
              "internalType": "uint256",
              "name": "roomRentLimit",
              "type": "uint256"
            },
            {
              "internalType": "uint256",
              "name": "surgeryLimit",
              "type": "uint256"
            }
          ],
          "internalType": "struct MainStructure.Sublimit",
          "name": "_sublimit",
          "type": "tuple"
        }
      ],
      "name": "createPolicy",
      "outputs": [],
      "stateMutability": "nonpayable",
      "type": "function"
    },
    {
      "inputs": [
        {
          "internalType": "uint256",
          "name": "_hospitalId",
          "type": "uint256"
        },
        {
          "internalType": "string",
          "name": "_name",
          "type": "string"
        },
        {
          "internalType": "uint256",
          "name": "_age",
          "type": "uint256"
        },
        {
          "internalType": "string",
          "name": "_otherDetails",
          "type": "string"
        },
        {
          "internalType": "address",
          "name": "_patientAddress",
          "type": "address"
        }
      ],
      "name": "registerPatient",
      "outputs": [],
      "stateMutability": "nonpayable",
      "type": "function"
    },
    {
      "inputs": [
        {
          "internalType": "uint256",
          "name": "_patientId",
          "type": "uint256"
        },
        {
          "internalType": "address",
          "name": "_insuranceCompany",
          "type": "address"
        },
        {
          "internalType": "uint256",
          "name": "_policyId",
          "type": "uint256"
        }
      ],
      "name": "assignInsurancePolicy",
      "outputs": [],
      "stateMutability": "nonpayable",
      "type": "function"
    },
    {
      "inputs": [
        {
          "internalType": "uint256",
          "name": "_patientId",
          "type": "uint256"
        },
        {
          "internalType": "string",
          "name": "_details",
          "type": "string"
        },
        {
          "internalType": "uint256",
          "name": "_amount",
          "type": "uint256"
        },
        {
          "internalType": "uint256",
          "name": "_hospitalId",
          "type": "uint256"
        }
      ],
      "name": "createMedicalBill",
      "outputs": [],
      "stateMutability": "nonpayable",
      "type": "function"
    },
    {
      "inputs": [
        {
          "internalType": "uint256",
          "name": "_patientId",
          "type": "uint256"
        },
        {
          "internalType": "uint256",
          "name": "billId",
          "type": "uint256"
        },
        {
          "internalType": "address",
          "name": "_insuranceCompany",
          "type": "address"
        }
      ],
      "name": "assignInsuranceCompanyForMedicalBill",
      "outputs": [],
      "stateMutability": "nonpayable",
      "type": "function"
    },
    {
      "inputs": [
        {
          "internalType": "uint256",
          "name": "_patientId",
          "type": "uint256"
        }
      ],
      "name": "getAllMedicalBillByPatientId",
      "outputs": [
        {
          "components": [
            {
              "internalType": "uint256",
              "name": "billId",
              "type": "uint256"
            },
            {
              "internalType": "uint256",
              "name": "patientId",
              "type": "uint256"
            },
            {
              "internalType": "address",
              "name": "assignedInsuranceCompany",
              "type": "address"
            },
            {
              "internalType": "string",
              "name": "details",
              "type": "string"
            },
            {
              "internalType": "uint256",
              "name": "timestamp",
              "type": "uint256"
            },
            {
              "internalType": "uint256",
              "name": "treatmentDate",
              "type": "uint256"
            },
            {
              "internalType": "uint256",
              "name": "amount",
              "type": "uint256"
            }
          ],
          "internalType": "struct MainStructure.MedicalBill[]",
          "name": "",
          "type": "tuple[]"
        }
      ],
      "stateMutability": "view",
      "type": "function",
      "constant": true
    },
    {
      "inputs": [
        {
          "internalType": "uint256",
          "name": "_patientId",
          "type": "uint256"
        },
        {
          "internalType": "uint256",
          "name": "_billId",
          "type": "uint256"
        }
      ],
      "name": "getSingleMedicalBill",
      "outputs": [
        {
          "components": [
            {
              "internalType": "uint256",
              "name": "billId",
              "type": "uint256"
            },
            {
              "internalType": "uint256",
              "name": "patientId",
              "type": "uint256"
            },
            {
              "internalType": "address",
              "name": "assignedInsuranceCompany",
              "type": "address"
            },
            {
              "internalType": "string",
              "name": "details",
              "type": "string"
            },
            {
              "internalType": "uint256",
              "name": "timestamp",
              "type": "uint256"
            },
            {
              "internalType": "uint256",
              "name": "treatmentDate",
              "type": "uint256"
            },
            {
              "internalType": "uint256",
              "name": "amount",
              "type": "uint256"
            }
          ],
          "internalType": "struct MainStructure.MedicalBill",
          "name": "",
          "type": "tuple"
        }
      ],
      "stateMutability": "view",
      "type": "function",
      "constant": true
    },
    {
      "inputs": [
        {
          "internalType": "address",
          "name": "_insuranceCompanyAddress",
          "type": "address"
        }
      ],
      "name": "getPoliciesByInsuranceCompany",
      "outputs": [
        {
          "components": [
            {
              "internalType": "uint256",
              "name": "policyId",
              "type": "uint256"
            },
            {
              "internalType": "string",
              "name": "description",
              "type": "string"
            },
            {
              "internalType": "address",
              "name": "insuranceCompany",
              "type": "address"
            },
            {
              "internalType": "enum MainStructure.PolicyType",
              "name": "policyType",
              "type": "uint8"
            },
            {
              "internalType": "uint256",
              "name": "sumAssured",
              "type": "uint256"
            },
            {
              "components": [
                {
                  "internalType": "uint256",
                  "name": "annual",
                  "type": "uint256"
                },
                {
                  "internalType": "uint256",
                  "name": "perInstance",
                  "type": "uint256"
                }
              ],
              "internalType": "struct MainStructure.Deductible",
              "name": "deductible",
              "type": "tuple"
            },
            {
              "components": [
                {
                  "internalType": "uint256",
                  "name": "fixedCharge",
                  "type": "uint256"
                },
                {
                  "internalType": "uint256",
                  "name": "percentageCharge",
                  "type": "uint256"
                }
              ],
              "internalType": "struct MainStructure.Copayment",
              "name": "copayment",
              "type": "tuple"
            },
            {
              "components": [
                {
                  "internalType": "bool",
                  "name": "facelift",
                  "type": "bool"
                },
                {
                  "internalType": "bool",
                  "name": "hairTransplant",
                  "type": "bool"
                },
                {
                  "internalType": "bool",
                  "name": "alternativeTherapy",
                  "type": "bool"
                }
              ],
              "internalType": "struct MainStructure.NoncoveredExpense",
              "name": "noncoveredExpense",
              "type": "tuple"
            },
            {
              "components": [
                {
                  "internalType": "uint256",
                  "name": "roomRentLimit",
                  "type": "uint256"
                },
                {
                  "internalType": "uint256",
                  "name": "surgeryLimit",
                  "type": "uint256"
                }
              ],
              "internalType": "struct MainStructure.Sublimit",
              "name": "sublimit",
              "type": "tuple"
            }
          ],
          "internalType": "struct MainStructure.Policy[]",
          "name": "",
          "type": "tuple[]"
        }
      ],
      "stateMutability": "view",
      "type": "function",
      "constant": true
    },
    {
      "inputs": [
        {
          "internalType": "uint256",
          "name": "_hospitalId",
          "type": "uint256"
        }
      ],
      "name": "getAllPatientsByHospital",
      "outputs": [
        {
          "components": [
            {
              "internalType": "uint256",
              "name": "patientId",
              "type": "uint256"
            },
            {
              "internalType": "string",
              "name": "name",
              "type": "string"
            },
            {
              "internalType": "uint256",
              "name": "age",
              "type": "uint256"
            },
            {
              "internalType": "string",
              "name": "otherDetails",
              "type": "string"
            },
            {
              "internalType": "address",
              "name": "patientAddress",
              "type": "address"
            },
            {
              "internalType": "uint256",
              "name": "hospitalId",
              "type": "uint256"
            },
            {
              "internalType": "uint256[]",
              "name": "billIds",
              "type": "uint256[]"
            }
          ],
          "internalType": "struct MainStructure.Patient[]",
          "name": "",
          "type": "tuple[]"
        }
      ],
      "stateMutability": "view",
      "type": "function",
      "constant": true
    }
  ],
  "bytecode": "0x608060405234801561001057600080fd5b50613b07806100206000396000f3fe608060405234801561001057600080fd5b506004361061010b5760003560e01c8063a5e6e51d116100a2578063ea1b22be11610071578063ea1b22be1461027e578063f2b650d0146102ae578063f4300c3e146102de578063f535befb146102fa578063fc941bbd1461032a5761010b565b8063a5e6e51d1461020c578063ac12aaaa14610228578063c44a927714610244578063de54d429146102605761010b565b806341f9fbba116100de57806341f9fbba146101865780634c53b9df146101b657806358b79946146101d2578063a0303c41146101ee5761010b565b80630419179314610110578063044554191461012e57806315a3f2621461014c578063350dadb714610168575b600080fd5b61011861035a565b6040516101259190611f9c565b60405180910390f35b610136610360565b6040516101439190611f9c565b60405180910390f35b61016660048036038101906101619190612205565b610366565b005b610170610492565b60405161017d9190611f9c565b60405180910390f35b6101a0600480360381019061019b919061227d565b610498565b6040516101ad9190612428565b60405180910390f35b6101d060048036038101906101cb9190612476565b6106b7565b005b6101ec60048036038101906101e791906124c9565b610711565b005b6101f6610990565b6040516102039190611f9c565b60405180910390f35b6102266004803603810190610221919061254c565b610996565b005b610242600480360381019061023d91906126e0565b610bef565b005b61025e600480360381019061025991906128e9565b610d1a565b005b61026861105e565b6040516102759190611f9c565b60405180910390f35b610298600480360381019061029391906129d0565b611064565b6040516102a59190612c18565b60405180910390f35b6102c860048036038101906102c391906129d0565b6113e8565b6040516102d59190611f9c565b60405180910390f35b6102f860048036038101906102f39190612c3a565b611400565b005b610314600480360381019061030f9190612c8d565b611605565b6040516103219190612f97565b60405180910390f35b610344600480360381019061033f91906129d0565b6119f5565b6040516103519190613117565b60405180910390f35b600b5481565b60085481565b6008600081548092919061037990613168565b9190505550604051806080016040528060085481526020018381526020018281526020013373ffffffffffffffffffffffffffffffffffffffff168152506001600060085481526020019081526020016000206000820151816000015560208201518160010190805190602001906103f2929190611cb5565b50604082015181600201908161040891906133bc565b5060608201518160030160006101000a81548173ffffffffffffffffffffffffffffffffffffffff021916908373ffffffffffffffffffffffffffffffffffffffff1602179055509050507fe77c8f37e34b74b41e1166c293f6133d1504890d12bb06d801af627515495cf3600854836040516104869291906134fd565b60405180910390a15050565b60075481565b6104a0611d02565b6000831180156104b25750600a548311155b6104f1576040517f08c379a00000000000000000000000000000000000000000000000000000000081526004016104e89061358a565b60405180910390fd5b60008211801561052757508160056000858152602001908152602001600020600084815260200190815260200160002060000154145b610566576040517f08c379a000000000000000000000000000000000000000000000000000000000815260040161055d906135f6565b60405180910390fd5b6005600084815260200190815260200160002060008381526020019081526020016000206040518060e001604052908160008201548152602001600182015481526020016002820160009054906101000a900473ffffffffffffffffffffffffffffffffffffffff1673ffffffffffffffffffffffffffffffffffffffff1673ffffffffffffffffffffffffffffffffffffffff16815260200160038201805461060f906131df565b80601f016020809104026020016040519081016040528092919081815260200182805461063b906131df565b80156106885780601f1061065d57610100808354040283529160200191610688565b820191906000526020600020905b81548152906001019060200180831161066b57829003601f168201915b505050505081526020016004820154815260200160058201548152602001600682015481525050905092915050565b806006600085815260200190815260200160002060008473ffffffffffffffffffffffffffffffffffffffff1673ffffffffffffffffffffffffffffffffffffffff16815260200190815260200160002081905550505050565b8060008082815260200190815260200160002060010160009054906101000a900473ffffffffffffffffffffffffffffffffffffffff1673ffffffffffffffffffffffffffffffffffffffff163373ffffffffffffffffffffffffffffffffffffffff16146107b5576040517f08c379a00000000000000000000000000000000000000000000000000000000081526004016107ac90613688565b60405180910390fd5b6000600160046000888152602001908152602001600020546107d791906136a8565b90506004600087815260200190815260200160002060008154809291906107fd90613168565b9190505550600360008781526020019081526020016000206006018190806001815401808255809150506001900390600052602060002001600090919091909150556040518060e00160405280878152602001828152602001600073ffffffffffffffffffffffffffffffffffffffff168152602001868152602001428152602001620151804261088e919061370b565b815260200185815250600560008881526020019081526020016000206000838152602001908152602001600020600082015181600001556020820151816001015560408201518160020160006101000a81548173ffffffffffffffffffffffffffffffffffffffff021916908373ffffffffffffffffffffffffffffffffffffffff160217905550606082015181600301908161092b91906133bc565b506080820151816004015560a0820151816005015560c082015181600601559050507f6746258bd4dc3961de3bd0fef53a987639aae292ced878d1044663960b5b3e598187866040516109809392919061373c565b60405180910390a1505050505050565b600a5481565b8460008082815260200190815260200160002060010160009054906101000a900473ffffffffffffffffffffffffffffffffffffffff1673ffffffffffffffffffffffffffffffffffffffff163373ffffffffffffffffffffffffffffffffffffffff1614610a3a576040517f08c379a0000000000000000000000000000000000000000000000000000000008152600401610a3190613688565b60405180910390fd5b600a6000815480929190610a4d90613168565b91905055506040518060e00160405280600a5481526020018681526020018581526020018481526020018373ffffffffffffffffffffffffffffffffffffffff168152602001878152602001600067ffffffffffffffff811115610ab457610ab3611fe1565b5b604051908082528060200260200182016040528015610ae25781602001602082028036833780820191505090505b5081525060036000600a548152602001908152602001600020600082015181600001556020820151816001019081610b1a91906133bc565b50604082015181600201556060820151816003019081610b3a91906133bc565b5060808201518160040160006101000a81548173ffffffffffffffffffffffffffffffffffffffff021916908373ffffffffffffffffffffffffffffffffffffffff16021790555060a0820151816005015560c0820151816006019080519060200190610ba8929190611cb5565b509050507f6c19f22d83a1ce20713b4c747e3a78c3036498ced71d283c697d587033783bd0600a5486604051610bdf9291906137ac565b60405180910390a1505050505050565b60076000815480929190610c0290613168565b9190505550604051806080016040528060075481526020013373ffffffffffffffffffffffffffffffffffffffff1681526020018381526020018281525060008060075481526020019081526020016000206000820151816000015560208201518160010160006101000a81548173ffffffffffffffffffffffffffffffffffffffff021916908373ffffffffffffffffffffffffffffffffffffffff1602179055506040820151816002019081610cba91906133bc565b506060820151816003019080519060200190610cd7929190611d55565b509050507fa1fd3231f7912e48ffbf52db08250262416750cd0c9618106dd67eee527a1f0260075433604051610d0e9291906137eb565b60405180910390a15050565b878073ffffffffffffffffffffffffffffffffffffffff163373ffffffffffffffffffffffffffffffffffffffff1614610d89576040517f08c379a0000000000000000000000000000000000000000000000000000000008152600401610d8090613886565b60405180910390fd5b60096000815480929190610d9c90613168565b91905055506000801515891515148015610dba575060001515881515145b15610dfa576040517f08c379a0000000000000000000000000000000000000000000000000000000008152600401610df1906138f2565b60405180910390fd5b6001151589151503610e0f5760009050610e2a565b6001151588151503610e245760019050610e29565b600290505b5b60405180610120016040528060095481526020018c81526020018b73ffffffffffffffffffffffffffffffffffffffff168152602001826002811115610e7357610e72612ce6565b5b815260200188815260200187815260200186815260200185815260200184815250600260006009548152602001908152602001600020600082015181600001556020820151816001019081610ec891906133bc565b5060408201518160020160006101000a81548173ffffffffffffffffffffffffffffffffffffffff021916908373ffffffffffffffffffffffffffffffffffffffff16021790555060608201518160020160146101000a81548160ff02191690836002811115610f3b57610f3a612ce6565b5b02179055506080820151816003015560a0820151816004016000820151816000015560208201518160010155505060c0820151816006016000820151816000015560208201518160010155505060e08201518160080160008201518160000160006101000a81548160ff02191690831515021790555060208201518160000160016101000a81548160ff02191690831515021790555060408201518160000160026101000a81548160ff021916908315150217905550505061010082015181600901600082015181600001556020820151816001015550509050507f80968e0cf0f9fbad1f441d6bcbc63de0fe2c2a21dcbd37b22b46e61c7695031f6009548c6040516110499291906137ac565b60405180910390a15050505050505050505050565b60095481565b606060008211801561107857506007548211155b6110b7576040517f08c379a00000000000000000000000000000000000000000000000000000000081526004016110ae9061395e565b60405180910390fd5b600080600190505b600a54811161110757836003600083815260200190815260200160002060050154036110f45781806110f090613168565b9250505b80806110ff90613168565b9150506110bf565b5060008167ffffffffffffffff81111561112457611123611fe1565b5b60405190808252806020026020018201604052801561115d57816020015b61114a611dae565b8152602001906001900390816111425790505b509050600080600190505b600a5481116113dc57856003600083815260200190815260200160002060050154036113c957600360008281526020019081526020016000206040518060e0016040529081600082015481526020016001820180546111c6906131df565b80601f01602080910402602001604051908101604052809291908181526020018280546111f2906131df565b801561123f5780601f106112145761010080835404028352916020019161123f565b820191906000526020600020905b81548152906001019060200180831161122257829003601f168201915b5050505050815260200160028201548152602001600382018054611262906131df565b80601f016020809104026020016040519081016040528092919081815260200182805461128e906131df565b80156112db5780601f106112b0576101008083540402835291602001916112db565b820191906000526020600020905b8154815290600101906020018083116112be57829003601f168201915b505050505081526020016004820160009054906101000a900473ffffffffffffffffffffffffffffffffffffffff1673ffffffffffffffffffffffffffffffffffffffff1673ffffffffffffffffffffffffffffffffffffffff168152602001600582015481526020016006820180548060200260200160405190810160405280929190818152602001828054801561139357602002820191906000526020600020905b81548152602001906001019080831161137f575b5050505050815250508383815181106113af576113ae61397e565b5b602002602001018190525081806113c590613168565b9250505b80806113d490613168565b915050611168565b50819350505050919050565b60046020528060005260406000206000915090505481565b826003600082815260200190815260200160002060040160009054906101000a900473ffffffffffffffffffffffffffffffffffffffff1673ffffffffffffffffffffffffffffffffffffffff163373ffffffffffffffffffffffffffffffffffffffff16146114a5576040517f08c379a000000000000000000000000000000000000000000000000000000000815260040161149c90613a1f565b60405180910390fd5b600073ffffffffffffffffffffffffffffffffffffffff1660056000868152602001908152602001600020600085815260200190815260200160002060020160009054906101000a900473ffffffffffffffffffffffffffffffffffffffff1673ffffffffffffffffffffffffffffffffffffffff16036115c4578160056000868152602001908152602001600020600085815260200190815260200160002060020160006101000a81548173ffffffffffffffffffffffffffffffffffffffff021916908373ffffffffffffffffffffffffffffffffffffffff1602179055507fe8dfa1000a377c1be6687e0c2f30a28b8ab10bc929a3272894b169f3385dea8b84836040516115b79291906137eb565b60405180910390a16115ff565b6040517f08c379a00000000000000000000000000000000000000000000000000000000081526004016115f690613ab1565b60405180910390fd5b50505050565b6060600080600190505b60095481116116a3578373ffffffffffffffffffffffffffffffffffffffff166002600083815260200190815260200160002060020160009054906101000a900473ffffffffffffffffffffffffffffffffffffffff1673ffffffffffffffffffffffffffffffffffffffff160361169057818061168c90613168565b9250505b808061169b90613168565b91505061160f565b5060008167ffffffffffffffff8111156116c0576116bf611fe1565b5b6040519080825280602002602001820160405280156116f957816020015b6116e6611e01565b8152602001906001900390816116de5790505b509050600080600190505b60095481116119e9578573ffffffffffffffffffffffffffffffffffffffff166002600083815260200190815260200160002060020160009054906101000a900473ffffffffffffffffffffffffffffffffffffffff1673ffffffffffffffffffffffffffffffffffffffff16036119d6576002600082815260200190815260200160002060405180610120016040529081600082015481526020016001820180546117af906131df565b80601f01602080910402602001604051908101604052809291908181526020018280546117db906131df565b80156118285780601f106117fd57610100808354040283529160200191611828565b820191906000526020600020905b81548152906001019060200180831161180b57829003601f168201915b505050505081526020016002820160009054906101000a900473ffffffffffffffffffffffffffffffffffffffff1673ffffffffffffffffffffffffffffffffffffffff1673ffffffffffffffffffffffffffffffffffffffff1681526020016002820160149054906101000a900460ff1660028111156118ac576118ab612ce6565b5b60028111156118be576118bd612ce6565b5b8152602001600382015481526020016004820160405180604001604052908160008201548152602001600182015481525050815260200160068201604051806040016040529081600082015481526020016001820154815250508152602001600882016040518060600160405290816000820160009054906101000a900460ff161515151581526020016000820160019054906101000a900460ff161515151581526020016000820160029054906101000a900460ff16151515158152505081526020016009820160405180604001604052908160008201548152602001600182015481525050815250508383815181106119bc576119bb61397e565b5b602002602001018190525081806119d290613168565b9250505b80806119e190613168565b915050611704565b50819350505050919050565b6060600082118015611a095750600a548211155b611a48576040517f08c379a0000000000000000000000000000000000000000000000000000000008152600401611a3f9061358a565b60405180910390fd5b600060036000848152602001908152602001600020600601805480602002602001604051908101604052809291908181526020018280548015611aaa57602002820191906000526020600020905b815481526020019060010190808311611a96575b505050505090506000815167ffffffffffffffff811115611ace57611acd611fe1565b5b604051908082528060200260200182016040528015611b0757816020015b611af4611d02565b815260200190600190039081611aec5790505b50905060005b8251811015611caa57600560008681526020019081526020016000206000848381518110611b3e57611b3d61397e565b5b602002602001015181526020019081526020016000206040518060e001604052908160008201548152602001600182015481526020016002820160009054906101000a900473ffffffffffffffffffffffffffffffffffffffff1673ffffffffffffffffffffffffffffffffffffffff1673ffffffffffffffffffffffffffffffffffffffff168152602001600382018054611bd9906131df565b80601f0160208091040260200160405190810160405280929190818152602001828054611c05906131df565b8015611c525780601f10611c2757610100808354040283529160200191611c52565b820191906000526020600020905b815481529060010190602001808311611c3557829003601f168201915b505050505081526020016004820154815260200160058201548152602001600682015481525050828281518110611c8c57611c8b61397e565b5b60200260200101819052508080611ca290613168565b915050611b0d565b508092505050919050565b828054828255906000526020600020908101928215611cf1579160200282015b82811115611cf0578251825591602001919060010190611cd5565b5b509050611cfe9190611e8d565b5090565b6040518060e001604052806000815260200160008152602001600073ffffffffffffffffffffffffffffffffffffffff168152602001606081526020016000815260200160008152602001600081525090565b828054828255906000526020600020908101928215611d9d579160200282015b82811115611d9c578251829081611d8c91906133bc565b5091602001919060010190611d75565b5b509050611daa9190611eaa565b5090565b6040518060e0016040528060008152602001606081526020016000815260200160608152602001600073ffffffffffffffffffffffffffffffffffffffff16815260200160008152602001606081525090565b6040518061012001604052806000815260200160608152602001600073ffffffffffffffffffffffffffffffffffffffff16815260200160006002811115611e4c57611e4b612ce6565b5b815260200160008152602001611e60611ece565b8152602001611e6d611ee8565b8152602001611e7a611f02565b8152602001611e87611f29565b81525090565b5b80821115611ea6576000816000905550600101611e8e565b5090565b5b80821115611eca5760008181611ec19190611f43565b50600101611eab565b5090565b604051806040016040528060008152602001600081525090565b604051806040016040528060008152602001600081525090565b60405180606001604052806000151581526020016000151581526020016000151581525090565b604051806040016040528060008152602001600081525090565b508054611f4f906131df565b6000825580601f10611f615750611f80565b601f016020900490600052602060002090810190611f7f9190611e8d565b5b50565b6000819050919050565b611f9681611f83565b82525050565b6000602082019050611fb16000830184611f8d565b92915050565b6000604051905090565b600080fd5b600080fd5b600080fd5b6000601f19601f8301169050919050565b7f4e487b7100000000000000000000000000000000000000000000000000000000600052604160045260246000fd5b61201982611fd0565b810181811067ffffffffffffffff8211171561203857612037611fe1565b5b80604052505050565b600061204b611fb7565b90506120578282612010565b919050565b600067ffffffffffffffff82111561207757612076611fe1565b5b602082029050602081019050919050565b600080fd5b61209681611f83565b81146120a157600080fd5b50565b6000813590506120b38161208d565b92915050565b60006120cc6120c78461205c565b612041565b905080838252602082019050602084028301858111156120ef576120ee612088565b5b835b81811015612118578061210488826120a4565b8452602084019350506020810190506120f1565b5050509392505050565b600082601f83011261213757612136611fcb565b5b81356121478482602086016120b9565b91505092915050565b600080fd5b600067ffffffffffffffff8211156121705761216f611fe1565b5b61217982611fd0565b9050602081019050919050565b82818337600083830152505050565b60006121a86121a384612155565b612041565b9050828152602081018484840111156121c4576121c3612150565b5b6121cf848285612186565b509392505050565b600082601f8301126121ec576121eb611fcb565b5b81356121fc848260208601612195565b91505092915050565b6000806040838503121561221c5761221b611fc1565b5b600083013567ffffffffffffffff81111561223a57612239611fc6565b5b61224685828601612122565b925050602083013567ffffffffffffffff81111561226757612266611fc6565b5b612273858286016121d7565b9150509250929050565b6000806040838503121561229457612293611fc1565b5b60006122a2858286016120a4565b92505060206122b3858286016120a4565b9150509250929050565b6122c681611f83565b82525050565b600073ffffffffffffffffffffffffffffffffffffffff82169050919050565b60006122f7826122cc565b9050919050565b612307816122ec565b82525050565b600081519050919050565b600082825260208201905092915050565b60005b8381101561234757808201518184015260208101905061232c565b60008484015250505050565b600061235e8261230d565b6123688185612318565b9350612378818560208601612329565b61238181611fd0565b840191505092915050565b600060e0830160008301516123a460008601826122bd565b5060208301516123b760208601826122bd565b5060408301516123ca60408601826122fe565b50606083015184820360608601526123e28282612353565b91505060808301516123f760808601826122bd565b5060a083015161240a60a08601826122bd565b5060c083015161241d60c08601826122bd565b508091505092915050565b60006020820190508181036000830152612442818461238c565b905092915050565b612453816122ec565b811461245e57600080fd5b50565b6000813590506124708161244a565b92915050565b60008060006060848603121561248f5761248e611fc1565b5b600061249d868287016120a4565b93505060206124ae86828701612461565b92505060406124bf868287016120a4565b9150509250925092565b600080600080608085870312156124e3576124e2611fc1565b5b60006124f1878288016120a4565b945050602085013567ffffffffffffffff81111561251257612511611fc6565b5b61251e878288016121d7565b935050604061252f878288016120a4565b9250506060612540878288016120a4565b91505092959194509250565b600080600080600060a0868803121561256857612567611fc1565b5b6000612576888289016120a4565b955050602086013567ffffffffffffffff81111561259757612596611fc6565b5b6125a3888289016121d7565b94505060406125b4888289016120a4565b935050606086013567ffffffffffffffff8111156125d5576125d4611fc6565b5b6125e1888289016121d7565b92505060806125f288828901612461565b9150509295509295909350565b600067ffffffffffffffff82111561261a57612619611fe1565b5b602082029050602081019050919050565b600061263e612639846125ff565b612041565b9050808382526020820190506020840283018581111561266157612660612088565b5b835b818110156126a857803567ffffffffffffffff81111561268657612685611fcb565b5b80860161269389826121d7565b85526020850194505050602081019050612663565b5050509392505050565b600082601f8301126126c7576126c6611fcb565b5b81356126d784826020860161262b565b91505092915050565b600080604083850312156126f7576126f6611fc1565b5b600083013567ffffffffffffffff81111561271557612714611fc6565b5b612721858286016121d7565b925050602083013567ffffffffffffffff81111561274257612741611fc6565b5b61274e858286016126b2565b9150509250929050565b60008115159050919050565b61276d81612758565b811461277857600080fd5b50565b60008135905061278a81612764565b92915050565b600080fd5b6000604082840312156127ab576127aa612790565b5b6127b56040612041565b905060006127c5848285016120a4565b60008301525060206127d9848285016120a4565b60208301525092915050565b6000604082840312156127fb576127fa612790565b5b6128056040612041565b90506000612815848285016120a4565b6000830152506020612829848285016120a4565b60208301525092915050565b60006060828403121561284b5761284a612790565b5b6128556060612041565b905060006128658482850161277b565b60008301525060206128798482850161277b565b602083015250604061288d8482850161277b565b60408301525092915050565b6000604082840312156128af576128ae612790565b5b6128b96040612041565b905060006128c9848285016120a4565b60008301525060206128dd848285016120a4565b60208301525092915050565b60008060008060008060008060006101c08a8c03121561290c5761290b611fc1565b5b60008a013567ffffffffffffffff81111561292a57612929611fc6565b5b6129368c828d016121d7565b99505060206129478c828d01612461565b98505060406129588c828d0161277b565b97505060606129698c828d0161277b565b965050608061297a8c828d016120a4565b95505060a061298b8c828d01612795565b94505060e061299c8c828d016127e5565b9350506101206129ae8c828d01612835565b9250506101806129c08c828d01612899565b9150509295985092959850929598565b6000602082840312156129e6576129e5611fc1565b5b60006129f4848285016120a4565b91505092915050565b600081519050919050565b600082825260208201905092915050565b6000819050602082019050919050565b600081519050919050565b600082825260208201905092915050565b6000819050602082019050919050565b6000612a6183836122bd565b60208301905092915050565b6000602082019050919050565b6000612a8582612a29565b612a8f8185612a34565b9350612a9a83612a45565b8060005b83811015612acb578151612ab28882612a55565b9750612abd83612a6d565b925050600181019050612a9e565b5085935050505092915050565b600060e083016000830151612af060008601826122bd565b5060208301518482036020860152612b088282612353565b9150506040830151612b1d60408601826122bd565b5060608301518482036060860152612b358282612353565b9150506080830151612b4a60808601826122fe565b5060a0830151612b5d60a08601826122bd565b5060c083015184820360c0860152612b758282612a7a565b9150508091505092915050565b6000612b8e8383612ad8565b905092915050565b6000602082019050919050565b6000612bae826129fd565b612bb88185612a08565b935083602082028501612bca85612a19565b8060005b85811015612c065784840389528151612be78582612b82565b9450612bf283612b96565b925060208a01995050600181019050612bce565b50829750879550505050505092915050565b60006020820190508181036000830152612c328184612ba3565b905092915050565b600080600060608486031215612c5357612c52611fc1565b5b6000612c61868287016120a4565b9350506020612c72868287016120a4565b9250506040612c8386828701612461565b9150509250925092565b600060208284031215612ca357612ca2611fc1565b5b6000612cb184828501612461565b91505092915050565b600081519050919050565b600082825260208201905092915050565b6000819050602082019050919050565b7f4e487b7100000000000000000000000000000000000000000000000000000000600052602160045260246000fd5b60038110612d2657612d25612ce6565b5b50565b6000819050612d3782612d15565b919050565b6000612d4782612d29565b9050919050565b612d5781612d3c565b82525050565b604082016000820151612d7360008501826122bd565b506020820151612d8660208501826122bd565b50505050565b604082016000820151612da260008501826122bd565b506020820151612db560208501826122bd565b50505050565b612dc481612758565b82525050565b606082016000820151612de06000850182612dbb565b506020820151612df36020850182612dbb565b506040820151612e066040850182612dbb565b50505050565b604082016000820151612e2260008501826122bd565b506020820151612e3560208501826122bd565b50505050565b60006101c083016000830151612e5460008601826122bd565b5060208301518482036020860152612e6c8282612353565b9150506040830151612e8160408601826122fe565b506060830151612e946060860182612d4e565b506080830151612ea760808601826122bd565b5060a0830151612eba60a0860182612d5d565b5060c0830151612ecd60e0860182612d8c565b5060e0830151612ee1610120860182612dca565b50610100830151612ef6610180860182612e0c565b508091505092915050565b6000612f0d8383612e3b565b905092915050565b6000602082019050919050565b6000612f2d82612cba565b612f378185612cc5565b935083602082028501612f4985612cd6565b8060005b85811015612f855784840389528151612f668582612f01565b9450612f7183612f15565b925060208a01995050600181019050612f4d565b50829750879550505050505092915050565b60006020820190508181036000830152612fb18184612f22565b905092915050565b600081519050919050565b600082825260208201905092915050565b6000819050602082019050919050565b600060e083016000830151612ffd60008601826122bd565b50602083015161301060208601826122bd565b50604083015161302360408601826122fe565b506060830151848203606086015261303b8282612353565b915050608083015161305060808601826122bd565b5060a083015161306360a08601826122bd565b5060c083015161307660c08601826122bd565b508091505092915050565b600061308d8383612fe5565b905092915050565b6000602082019050919050565b60006130ad82612fb9565b6130b78185612fc4565b9350836020820285016130c985612fd5565b8060005b8581101561310557848403895281516130e68582613081565b94506130f183613095565b925060208a019950506001810190506130cd565b50829750879550505050505092915050565b6000602082019050818103600083015261313181846130a2565b905092915050565b7f4e487b7100000000000000000000000000000000000000000000000000000000600052601160045260246000fd5b600061317382611f83565b91507fffffffffffffffffffffffffffffffffffffffffffffffffffffffffffffffff82036131a5576131a4613139565b5b600182019050919050565b7f4e487b7100000000000000000000000000000000000000000000000000000000600052602260045260246000fd5b600060028204905060018216806131f757607f821691505b60208210810361320a576132096131b0565b5b50919050565b60008190508160005260206000209050919050565b60006020601f8301049050919050565b600082821b905092915050565b6000600883026132727fffffffffffffffffffffffffffffffffffffffffffffffffffffffffffffffff82613235565b61327c8683613235565b95508019841693508086168417925050509392505050565b6000819050919050565b60006132b96132b46132af84611f83565b613294565b611f83565b9050919050565b6000819050919050565b6132d38361329e565b6132e76132df826132c0565b848454613242565b825550505050565b600090565b6132fc6132ef565b6133078184846132ca565b505050565b5b8181101561332b576133206000826132f4565b60018101905061330d565b5050565b601f8211156133705761334181613210565b61334a84613225565b81016020851015613359578190505b61336d61336585613225565b83018261330c565b50505b505050565b600082821c905092915050565b600061339360001984600802613375565b1980831691505092915050565b60006133ac8383613382565b9150826002028217905092915050565b6133c58261230d565b67ffffffffffffffff8111156133de576133dd611fe1565b5b6133e882546131df565b6133f382828561332f565b600060209050601f8311600181146134265760008415613414578287015190505b61341e85826133a0565b865550613486565b601f19841661343486613210565b60005b8281101561345c57848901518255600182019150602085019450602081019050613437565b868310156134795784890151613475601f891682613382565b8355505b6001600288020188555050505b505050505050565b600082825260208201905092915050565b60006134aa82612a29565b6134b4818561348e565b93506134bf83612a45565b8060005b838110156134f05781516134d78882612a55565b97506134e283612a6d565b9250506001810190506134c3565b5085935050505092915050565b60006040820190506135126000830185611f8d565b8181036020830152613524818461349f565b90509392505050565b600082825260208201905092915050565b7f496e76616c69642070617469656e742049440000000000000000000000000000600082015250565b600061357460128361352d565b915061357f8261353e565b602082019050919050565b600060208201905081810360008301526135a381613567565b9050919050565b7f496e76616c69642062696c6c2049440000000000000000000000000000000000600082015250565b60006135e0600f8361352d565b91506135eb826135aa565b602082019050919050565b6000602082019050818103600083015261360f816135d3565b9050919050565b7f4f6e6c792074686520686f73706974616c2063616e20706572666f726d20746860008201527f697320616374696f6e0000000000000000000000000000000000000000000000602082015250565b600061367260298361352d565b915061367d82613616565b604082019050919050565b600060208201905081810360008301526136a181613665565b9050919050565b60006136b382611f83565b91506136be83611f83565b92508282019050808211156136d6576136d5613139565b5b92915050565b7f4e487b7100000000000000000000000000000000000000000000000000000000600052601260045260246000fd5b600061371682611f83565b915061372183611f83565b925082613731576137306136dc565b5b828204905092915050565b60006060820190506137516000830186611f8d565b61375e6020830185611f8d565b61376b6040830184611f8d565b949350505050565b600061377e8261230d565b613788818561352d565b9350613798818560208601612329565b6137a181611fd0565b840191505092915050565b60006040820190506137c16000830185611f8d565b81810360208301526137d38184613773565b90509392505050565b6137e5816122ec565b82525050565b60006040820190506138006000830185611f8d565b61380d60208301846137dc565b9392505050565b7f4f6e6c792074686520696e737572616e636520636f6d70616e792063616e207060008201527f6572666f726d207468697320616374696f6e0000000000000000000000000000602082015250565b600061387060328361352d565b915061387b82613814565b604082019050919050565b6000602082019050818103600083015261389f81613863565b9050919050565b7f506c656173652053656c656374204f6e65205479706500000000000000000000600082015250565b60006138dc60168361352d565b91506138e7826138a6565b602082019050919050565b6000602082019050818103600083015261390b816138cf565b9050919050565b7f496e76616c696420686f73706974616c20494400000000000000000000000000600082015250565b600061394860138361352d565b915061395382613912565b602082019050919050565b600060208201905081810360008301526139778161393b565b9050919050565b7f4e487b7100000000000000000000000000000000000000000000000000000000600052603260045260246000fd5b7f4f6e6c79207468652070617469656e742063616e20706572666f726d2074686960008201527f7320616374696f6e000000000000000000000000000000000000000000000000602082015250565b6000613a0960288361352d565b9150613a14826139ad565b604082019050919050565b60006020820190508181036000830152613a38816139fc565b9050919050565b7f496e737572616e636520436f6d70616e7920616c72656164792061737369676e60008201527f6564000000000000000000000000000000000000000000000000000000000000602082015250565b6000613a9b60228361352d565b9150613aa682613a3f565b604082019050919050565b60006020820190508181036000830152613aca81613a8e565b905091905056fea2646970667358221220c4b237f870cd1a6681712d85aae94fedf5ffa2b6b4eb335dd4fec558d576986164736f6c63430008110033",
  "immutableReferences": {},
  "source": "// SPDX-License-Identifier: MIT\r\npragma solidity ^0.8.0;\r\n\r\ncontract MainStructure {\r\n    struct Hospital {\r\n        uint256 hospitalId;\r\n        address hospitalAddress;\r\n        string hospitalName;\r\n        string[] doctorList;\r\n    }\r\n\r\n    struct InsuranceCompany {\r\n        uint256 insuranceCompanyId;  \r\n        uint256[] networkHospitals;\r\n        string details;\r\n        address insuranceCompanyAddress;\r\n\r\n    }\r\n    struct Patient {\r\n        uint256 patientId;\r\n        string name;\r\n        uint256 age;\r\n        string otherDetails;\r\n        address patientAddress;\r\n        uint256 hospitalId;       \r\n        uint256[] billIds;\r\n       \r\n    }\r\n\r\n    struct MedicalBill {\r\n        uint256 billId;\r\n        uint256 patientId;\r\n        address assignedInsuranceCompany;\r\n        string details;\r\n        uint256 timestamp;\r\n        uint256 treatmentDate;\r\n        uint256 amount;\r\n    }\r\n\r\n    \r\n    struct Policy {\r\n        uint256 policyId;\r\n        string description;\r\n        address insuranceCompany;\r\n        PolicyType policyType;\r\n        uint256 sumAssured;\r\n        Deductible deductible;\r\n        Copayment copayment;\r\n        NoncoveredExpense noncoveredExpense;\r\n        Sublimit sublimit;\r\n    }\r\n\r\n\r\n\r\n    struct Copayment {\r\n        uint256 fixedCharge;\r\n        uint256 percentageCharge;\r\n    }\r\n\r\n    struct Deductible {\r\n        uint256 annual;\r\n        uint256 perInstance;\r\n    }\r\n\r\n    struct NoncoveredExpense {\r\n        bool facelift;\r\n        bool hairTransplant;\r\n        bool alternativeTherapy;\r\n    }\r\n\r\n    struct Sublimit {\r\n        uint256 roomRentLimit;\r\n        uint256 surgeryLimit;\r\n    }\r\n\r\n\r\n    mapping(uint256 => Hospital)  hospitals;\r\n    mapping(uint256 => InsuranceCompany)  insuranceCompanies;\r\n    mapping(uint256 => Policy)  policies;\r\n    mapping(uint256 => Patient)  patients;\r\n    mapping(uint256 => uint256) public billCounters;\r\n    mapping(uint256 => mapping(uint256 => MedicalBill)) medicalBills;\r\n    mapping(uint256 => mapping(address => uint256))  patientInsurancePolicies;\r\n    \r\n    uint256 public hospitalCount;\r\n    uint256 public insuranceCompanyCount;\r\n    uint256 public policyCount;\r\n    uint256 public patientCount;\r\n    uint256 public preauthorizationCount;\r\n\r\n    enum PolicyType{ CASHLESS, REIMBURSEMENT,BOTH }\r\n\r\n    event HospitalRegistered(uint256 hospitalId, address hospitalAddress);\r\n    event InsuranceCompanyRegistered(uint256 insuranceCompanyId, uint256[] networkHospitals);\r\n    event PolicyCreated(uint256 policyId, string description);\r\n    event PatientRegistered(uint256 patientId, string name);\r\n    event BillGenerated(uint256 billId, uint256 patientId, uint256 amount);\r\n    event InsuranceCompanyAssigned(uint256 patientId, address insuranceCompany);\r\n    \r\n    modifier onlyHospital(uint256 _hospitalId) {\r\n        require(msg.sender == hospitals[_hospitalId].hospitalAddress, \"Only the hospital can perform this action\");\r\n        _;\r\n    }\r\n\r\n    modifier onlyPatient(uint256 _patientId) {\r\n        require(msg.sender == patients[_patientId].patientAddress, \"Only the patient can perform this action\");\r\n        _;\r\n    }\r\n\r\n    modifier onlyInsuranceCompany(address _insuranceCompanyAddress) {\r\n        require(msg.sender == _insuranceCompanyAddress, \"Only the insurance company can perform this action\");\r\n        _;\r\n    }\r\n\r\n    function registerHospital(string memory _hospitalName, string[] memory _doctorList) public {\r\n        hospitalCount++;\r\n        hospitals[hospitalCount] = Hospital(hospitalCount, msg.sender, _hospitalName, _doctorList);\r\n        emit HospitalRegistered(hospitalCount, msg.sender);\r\n    }\r\n\r\n    function registerInsuranceCompany(uint256[] memory _networkHospitals, string memory _details) public {\r\n        insuranceCompanyCount++;\r\n        insuranceCompanies[insuranceCompanyCount] = InsuranceCompany(insuranceCompanyCount, _networkHospitals, _details,msg.sender);\r\n        emit InsuranceCompanyRegistered(insuranceCompanyCount, _networkHospitals);\r\n    }\r\n\r\n    function createPolicy(\r\n        string memory _description,\r\n        address _insuranceCompany,\r\n        bool _isPolicyCashless,\r\n        bool _isPolicyReimbursement,\r\n        uint256 _sumAssured,\r\n        Deductible memory _deductible,\r\n        Copayment memory _copayment,\r\n        NoncoveredExpense memory _noncoveredExpense,\r\n        Sublimit memory _sublimit\r\n    ) public onlyInsuranceCompany(_insuranceCompany){\r\n        policyCount++;\r\n        PolicyType policyType;\r\n        if(_isPolicyCashless == false && _isPolicyReimbursement==false){\r\n            revert(\"Please Select One Type\");\r\n        }\r\n        \r\n        if(_isPolicyCashless == true){\r\n            policyType=PolicyType.CASHLESS;\r\n        }else if(_isPolicyReimbursement==true){\r\n            policyType=PolicyType.REIMBURSEMENT;\r\n        }\r\n        else{\r\n            policyType=PolicyType.BOTH;\r\n        }\r\n        policies[policyCount] = Policy(\r\n            policyCount,\r\n            _description,\r\n            _insuranceCompany,\r\n            policyType,\r\n            _sumAssured,\r\n            _deductible,\r\n            _copayment,\r\n            _noncoveredExpense,\r\n            _sublimit\r\n        );\r\n        emit PolicyCreated(policyCount, _description);\r\n    }\r\n\r\n    function registerPatient(uint256 _hospitalId, string memory _name, uint256 _age, string memory _otherDetails, address _patientAddress )\r\n    public onlyHospital(_hospitalId){\r\n        patientCount++;\r\n        patients[patientCount] = Patient(patientCount, _name, _age, _otherDetails,_patientAddress,_hospitalId,new uint256[](0));\r\n        emit PatientRegistered(patientCount, _name);\r\n    }\r\n\r\n    function assignInsurancePolicy(uint256 _patientId, address _insuranceCompany, uint256 _policyId) \r\n    public {\r\n        patientInsurancePolicies[_patientId][_insuranceCompany] = _policyId;\r\n    }\r\n\r\n    function createMedicalBill(\r\n        uint256 _patientId,\r\n        string memory _details,\r\n        uint256 _amount,\r\n        uint256 _hospitalId\r\n    ) public onlyHospital(_hospitalId) {\r\n        \r\n        uint256 billId = billCounters[_patientId] + 1;\r\n        billCounters[_patientId]++;\r\n        patients[_patientId].billIds.push(billId);\r\n        medicalBills[_patientId][billId] = MedicalBill(\r\n            _patientId,\r\n            billId,\r\n            address(0),     \r\n            _details,\r\n            block.timestamp,\r\n            block.timestamp / 86400,\r\n            _amount\r\n        );\r\n        emit BillGenerated(billId, _patientId, _amount);\r\n    }\r\n\r\n    function assignInsuranceCompanyForMedicalBill(uint256 _patientId, uint256 billId, address _insuranceCompany) \r\n    public onlyPatient(_patientId){\r\n        if (medicalBills[_patientId][billId].assignedInsuranceCompany == address(0)) {\r\n            medicalBills[_patientId][billId].assignedInsuranceCompany = _insuranceCompany;\r\n            emit InsuranceCompanyAssigned(_patientId, _insuranceCompany);\r\n        } else {\r\n            revert(\"Insurance Company already assigned\");\r\n        }\r\n    }\r\n\r\n\r\n\r\n    function getAllMedicalBillByPatientId(uint256 _patientId) public view returns (MedicalBill[] memory)\r\n    {\r\n        require(_patientId > 0 && _patientId <= patientCount, \"Invalid patient ID\");\r\n        uint256[] memory billIds = patients[_patientId].billIds;\r\n        MedicalBill[] memory medicalRecords = new MedicalBill[](billIds.length);\r\n        for (uint256 i = 0; i < billIds.length; i++) {\r\n            medicalRecords[i] = medicalBills[_patientId][billIds[i]];\r\n        }\r\n        return medicalRecords;\r\n    }\r\n\r\n    function getSingleMedicalBill(uint256 _patientId, uint256 _billId) public view returns (MedicalBill memory) {\r\n    require(_patientId > 0 && _patientId <= patientCount, \"Invalid patient ID\");\r\n    require(_billId > 0 && medicalBills[_patientId][_billId].billId == _billId, \"Invalid bill ID\");\r\n\r\n    return medicalBills[_patientId][_billId];\r\n}\r\n\r\n   function getPoliciesByInsuranceCompany(address _insuranceCompanyAddress) public view returns (Policy[] memory) {\r\n    uint256 count = 0;\r\n    for (uint256 i = 1; i <= policyCount; i++) {\r\n        if (policies[i].insuranceCompany == _insuranceCompanyAddress) {\r\n            count++;\r\n        }\r\n    }\r\n\r\n    Policy[] memory insuranceCompanyPolicies = new Policy[](count);\r\n    uint256 index = 0;\r\n    for (uint256 i = 1; i <= policyCount; i++) {\r\n        if (policies[i].insuranceCompany == _insuranceCompanyAddress) {\r\n            insuranceCompanyPolicies[index] = policies[i];\r\n            index++;\r\n        }\r\n    }\r\n\r\n    return insuranceCompanyPolicies;\r\n    }\r\n\r\n\r\n    function getAllPatientsByHospital(uint256 _hospitalId) public view returns (Patient[] memory) {\r\n        require(_hospitalId > 0 && _hospitalId <= hospitalCount, \"Invalid hospital ID\");\r\n\r\n        uint256 count = 0;\r\n        for (uint256 i = 1; i <= patientCount; i++) {\r\n            if (patients[i].hospitalId == _hospitalId) {\r\n                count++;\r\n            }\r\n        }\r\n\r\n        Patient[] memory patientList = new Patient[](count);\r\n        uint256 index = 0;\r\n        for (uint256 i = 1; i <= patientCount; i++) {\r\n            if (patients[i].hospitalId == _hospitalId) {\r\n                patientList[index] = patients[i];\r\n                index++;\r\n            }\r\n        }\r\n\r\n        return patientList;\r\n    }\r\n}",
  "sourcePath": "D:\\semester 6\\Block Chain\\Patient-Management-System-Decentralized-App\\contracts\\Main_Structure.sol",
  "compiler": {
    "name": "solc",
    "version": "0.8.17+commit.8df45f5f.Emscripten.clang"
  },
  "schemaVersion": "3.4.16",
  "updatedAt": "2024-05-21T09:11:34.016Z",
  "networkType": "ethereum",
  "devdoc": {
    "kind": "dev",
    "methods": {},
    "version": 1
  },
  "userdoc": {
    "kind": "user",
    "methods": {},
    "version": 1
  }
}