{
  "contractName": "PatientManagementSystem",
  "abi": [
    {
      "anonymous": false,
      "inputs": [
        {
          "indexed": false,
          "internalType": "uint256",
          "name": "billId",
          "type": "uint256"
        },
        {
          "indexed": false,
          "internalType": "uint256",
          "name": "patientId",
          "type": "uint256"
        },
        {
          "indexed": false,
          "internalType": "uint256",
          "name": "amount",
          "type": "uint256"
        }
      ],
      "name": "BillGenerated",
      "type": "event"
    },
    {
      "anonymous": false,
      "inputs": [
        {
          "indexed": false,
          "internalType": "uint256",
          "name": "hospitalId",
          "type": "uint256"
        },
        {
          "indexed": false,
          "internalType": "address",
          "name": "hospitalAddress",
          "type": "address"
        }
      ],
      "name": "HospitalRegistered",
      "type": "event"
    },
    {
      "anonymous": false,
      "inputs": [
        {
          "indexed": false,
          "internalType": "uint256",
          "name": "patientId",
          "type": "uint256"
        },
        {
          "indexed": false,
          "internalType": "address",
          "name": "insuranceCompany",
          "type": "address"
        }
      ],
      "name": "InsuranceCompanyAssigned",
      "type": "event"
    },
    {
      "anonymous": false,
      "inputs": [
        {
          "indexed": false,
          "internalType": "uint256",
          "name": "insuranceCompanyId",
          "type": "uint256"
        },
        {
          "indexed": false,
          "internalType": "uint256[]",
          "name": "networkHospitals",
          "type": "uint256[]"
        }
      ],
      "name": "InsuranceCompanyRegistered",
      "type": "event"
    },
    {
      "anonymous": false,
      "inputs": [
        {
          "indexed": false,
          "internalType": "uint256",
          "name": "patientId",
          "type": "uint256"
        },
        {
          "indexed": false,
          "internalType": "string",
          "name": "name",
          "type": "string"
        }
      ],
      "name": "PatientRegistered",
      "type": "event"
    },
    {
      "anonymous": false,
      "inputs": [
        {
          "indexed": false,
          "internalType": "uint256",
          "name": "policyId",
          "type": "uint256"
        },
        {
          "indexed": false,
          "internalType": "string",
          "name": "description",
          "type": "string"
        }
      ],
      "name": "PolicyCreated",
      "type": "event"
    },
    {
      "anonymous": false,
      "inputs": [
        {
          "indexed": false,
          "internalType": "uint256",
          "name": "preauthorizationId",
          "type": "uint256"
        }
      ],
      "name": "PreauthorizationApproved",
      "type": "event"
    },
    {
      "anonymous": false,
      "inputs": [
        {
          "indexed": false,
          "internalType": "uint256",
          "name": "preauthorizationId",
          "type": "uint256"
        }
      ],
      "name": "PreauthorizationRejected",
      "type": "event"
    },
    {
      "anonymous": false,
      "inputs": [
        {
          "indexed": false,
          "internalType": "uint256",
          "name": "preauthorizationId",
          "type": "uint256"
        },
        {
          "indexed": false,
          "internalType": "uint256",
          "name": "patientId",
          "type": "uint256"
        },
        {
          "indexed": false,
          "internalType": "uint256",
          "name": "policyId",
          "type": "uint256"
        },
        {
          "indexed": false,
          "internalType": "uint256",
          "name": "isCashless",
          "type": "uint256"
        }
      ],
      "name": "PreauthorizationRequested",
      "type": "event"
    },
    {
      "anonymous": false,
      "inputs": [
        {
          "indexed": false,
          "internalType": "uint256",
          "name": "claimId",
          "type": "uint256"
        },
        {
          "indexed": false,
          "internalType": "uint256",
          "name": "patientId",
          "type": "uint256"
        },
        {
          "indexed": false,
          "internalType": "uint256",
          "name": "billId",
          "type": "uint256"
        },
        {
          "indexed": false,
          "internalType": "uint256",
          "name": "claimAmount",
          "type": "uint256"
        }
      ],
      "name": "ReimbursementClaimSettled",
      "type": "event"
    },
    {
      "anonymous": false,
      "inputs": [
        {
          "indexed": false,
          "internalType": "uint256",
          "name": "claimId",
          "type": "uint256"
        },
        {
          "indexed": false,
          "internalType": "uint256",
          "name": "patientId",
          "type": "uint256"
        },
        {
          "indexed": false,
          "internalType": "uint256",
          "name": "billId",
          "type": "uint256"
        },
        {
          "indexed": false,
          "internalType": "uint256",
          "name": "claimAmount",
          "type": "uint256"
        }
      ],
      "name": "ReimbursementClaimSubmitted",
      "type": "event"
    },
    {
      "inputs": [
        {
          "internalType": "uint256",
          "name": "_preauthorizationId",
          "type": "uint256"
        }
      ],
      "name": "approvePreauthorization",
      "outputs": [],
      "stateMutability": "nonpayable",
      "type": "function"
    },
    {
      "inputs": [
        {
          "internalType": "uint256",
          "name": "_patientId",
          "type": "uint256"
        },
        {
          "internalType": "uint256",
          "name": "billId",
          "type": "uint256"
        },
        {
          "internalType": "address",
          "name": "_insuranceCompany",
          "type": "address"
        }
      ],
      "name": "assignInsuranceCompanyForMedicalBill",
      "outputs": [],
      "stateMutability": "nonpayable",
      "type": "function"
    },
    {
      "inputs": [
        {
          "internalType": "uint256",
          "name": "_patientId",
          "type": "uint256"
        },
        {
          "internalType": "address",
          "name": "_insuranceCompany",
          "type": "address"
        },
        {
          "internalType": "uint256",
          "name": "_policyId",
          "type": "uint256"
        }
      ],
      "name": "assignInsurancePolicy",
      "outputs": [],
      "stateMutability": "nonpayable",
      "type": "function"
    },
    {
      "inputs": [
        {
          "internalType": "uint256",
          "name": "",
          "type": "uint256"
        }
      ],
      "name": "billCounters",
      "outputs": [
        {
          "internalType": "uint256",
          "name": "",
          "type": "uint256"
        }
      ],
      "stateMutability": "view",
      "type": "function",
      "constant": true
    },
    {
      "inputs": [
        {
          "internalType": "uint256",
          "name": "_patientId",
          "type": "uint256"
        },
        {
          "internalType": "string",
          "name": "_details",
          "type": "string"
        },
        {
          "internalType": "uint256",
          "name": "_amount",
          "type": "uint256"
        },
        {
          "internalType": "uint256",
          "name": "_hospitalId",
          "type": "uint256"
        }
      ],
      "name": "createMedicalBill",
      "outputs": [],
      "stateMutability": "nonpayable",
      "type": "function"
    },
    {
      "inputs": [
        {
          "internalType": "string",
          "name": "_description",
          "type": "string"
        },
        {
          "internalType": "address",
          "name": "_insuranceCompany",
          "type": "address"
        },
        {
          "internalType": "bool",
          "name": "_isPolicyCashless",
          "type": "bool"
        },
        {
          "internalType": "bool",
          "name": "_isPolicyReimbursement",
          "type": "bool"
        },
        {
          "internalType": "uint256",
          "name": "_sumAssured",
          "type": "uint256"
        },
        {
          "components": [
            {
              "internalType": "uint256",
              "name": "annual",
              "type": "uint256"
            },
            {
              "internalType": "uint256",
              "name": "perInstance",
              "type": "uint256"
            }
          ],
          "internalType": "struct MainStructure.Deductible",
          "name": "_deductible",
          "type": "tuple"
        },
        {
          "components": [
            {
              "internalType": "uint256",
              "name": "fixedCharge",
              "type": "uint256"
            },
            {
              "internalType": "uint256",
              "name": "percentageCharge",
              "type": "uint256"
            }
          ],
          "internalType": "struct MainStructure.Copayment",
          "name": "_copayment",
          "type": "tuple"
        },
        {
          "components": [
            {
              "internalType": "bool",
              "name": "facelift",
              "type": "bool"
            },
            {
              "internalType": "bool",
              "name": "hairTransplant",
              "type": "bool"
            },
            {
              "internalType": "bool",
              "name": "alternativeTherapy",
              "type": "bool"
            }
          ],
          "internalType": "struct MainStructure.NoncoveredExpense",
          "name": "_noncoveredExpense",
          "type": "tuple"
        },
        {
          "components": [
            {
              "internalType": "uint256",
              "name": "roomRentLimit",
              "type": "uint256"
            },
            {
              "internalType": "uint256",
              "name": "surgeryLimit",
              "type": "uint256"
            }
          ],
          "internalType": "struct MainStructure.Sublimit",
          "name": "_sublimit",
          "type": "tuple"
        }
      ],
      "name": "createPolicy",
      "outputs": [],
      "stateMutability": "nonpayable",
      "type": "function"
    },
    {
      "inputs": [
        {
          "internalType": "uint256",
          "name": "_patientId",
          "type": "uint256"
        }
      ],
      "name": "getAllMedicalBillByPatientId",
      "outputs": [
        {
          "components": [
            {
              "internalType": "uint256",
              "name": "billId",
              "type": "uint256"
            },
            {
              "internalType": "uint256",
              "name": "patientId",
              "type": "uint256"
            },
            {
              "internalType": "address",
              "name": "assignedInsuranceCompany",
              "type": "address"
            },
            {
              "internalType": "string",
              "name": "details",
              "type": "string"
            },
            {
              "internalType": "uint256",
              "name": "timestamp",
              "type": "uint256"
            },
            {
              "internalType": "uint256",
              "name": "treatmentDate",
              "type": "uint256"
            },
            {
              "internalType": "uint256",
              "name": "amount",
              "type": "uint256"
            }
          ],
          "internalType": "struct MainStructure.MedicalBill[]",
          "name": "",
          "type": "tuple[]"
        }
      ],
      "stateMutability": "view",
      "type": "function",
      "constant": true
    },
    {
      "inputs": [
        {
          "internalType": "uint256",
          "name": "_hospitalId",
          "type": "uint256"
        }
      ],
      "name": "getAllPatientsByHospital",
      "outputs": [
        {
          "components": [
            {
              "internalType": "uint256",
              "name": "patientId",
              "type": "uint256"
            },
            {
              "internalType": "string",
              "name": "name",
              "type": "string"
            },
            {
              "internalType": "uint256",
              "name": "age",
              "type": "uint256"
            },
            {
              "internalType": "string",
              "name": "otherDetails",
              "type": "string"
            },
            {
              "internalType": "address",
              "name": "patientAddress",
              "type": "address"
            },
            {
              "internalType": "uint256",
              "name": "hospitalId",
              "type": "uint256"
            },
            {
              "internalType": "uint256[]",
              "name": "billIds",
              "type": "uint256[]"
            }
          ],
          "internalType": "struct MainStructure.Patient[]",
          "name": "",
          "type": "tuple[]"
        }
      ],
      "stateMutability": "view",
      "type": "function",
      "constant": true
    },
    {
      "inputs": [
        {
          "internalType": "address",
          "name": "_insuranceCompanyAddress",
          "type": "address"
        }
      ],
      "name": "getPoliciesByInsuranceCompany",
      "outputs": [
        {
          "components": [
            {
              "internalType": "uint256",
              "name": "policyId",
              "type": "uint256"
            },
            {
              "internalType": "string",
              "name": "description",
              "type": "string"
            },
            {
              "internalType": "address",
              "name": "insuranceCompany",
              "type": "address"
            },
            {
              "internalType": "enum MainStructure.PolicyType",
              "name": "policyType",
              "type": "uint8"
            },
            {
              "internalType": "uint256",
              "name": "sumAssured",
              "type": "uint256"
            },
            {
              "components": [
                {
                  "internalType": "uint256",
                  "name": "annual",
                  "type": "uint256"
                },
                {
                  "internalType": "uint256",
                  "name": "perInstance",
                  "type": "uint256"
                }
              ],
              "internalType": "struct MainStructure.Deductible",
              "name": "deductible",
              "type": "tuple"
            },
            {
              "components": [
                {
                  "internalType": "uint256",
                  "name": "fixedCharge",
                  "type": "uint256"
                },
                {
                  "internalType": "uint256",
                  "name": "percentageCharge",
                  "type": "uint256"
                }
              ],
              "internalType": "struct MainStructure.Copayment",
              "name": "copayment",
              "type": "tuple"
            },
            {
              "components": [
                {
                  "internalType": "bool",
                  "name": "facelift",
                  "type": "bool"
                },
                {
                  "internalType": "bool",
                  "name": "hairTransplant",
                  "type": "bool"
                },
                {
                  "internalType": "bool",
                  "name": "alternativeTherapy",
                  "type": "bool"
                }
              ],
              "internalType": "struct MainStructure.NoncoveredExpense",
              "name": "noncoveredExpense",
              "type": "tuple"
            },
            {
              "components": [
                {
                  "internalType": "uint256",
                  "name": "roomRentLimit",
                  "type": "uint256"
                },
                {
                  "internalType": "uint256",
                  "name": "surgeryLimit",
                  "type": "uint256"
                }
              ],
              "internalType": "struct MainStructure.Sublimit",
              "name": "sublimit",
              "type": "tuple"
            }
          ],
          "internalType": "struct MainStructure.Policy[]",
          "name": "",
          "type": "tuple[]"
        }
      ],
      "stateMutability": "view",
      "type": "function",
      "constant": true
    },
    {
      "inputs": [
        {
          "internalType": "address",
          "name": "_insuranceCompanyAddress",
          "type": "address"
        }
      ],
      "name": "getPreauthorizationRequestsByInsuranceCompany",
      "outputs": [
        {
          "components": [
            {
              "internalType": "uint256",
              "name": "patientId",
              "type": "uint256"
            },
            {
              "internalType": "uint256",
              "name": "billId",
              "type": "uint256"
            },
            {
              "internalType": "address",
              "name": "insuranceCompanyAddress",
              "type": "address"
            },
            {
              "internalType": "uint256",
              "name": "policyId",
              "type": "uint256"
            },
            {
              "internalType": "enum Cashless.PreauthorizationStatus",
              "name": "isPreauthorized",
              "type": "uint8"
            },
            {
              "internalType": "uint256",
              "name": "requestTimestamp",
              "type": "uint256"
            },
            {
              "internalType": "uint256",
              "name": "approvedTimestamp",
              "type": "uint256"
            },
            {
              "internalType": "uint256",
              "name": "preAuthId",
              "type": "uint256"
            }
          ],
          "internalType": "struct Cashless.Preauthorization[]",
          "name": "",
          "type": "tuple[]"
        }
      ],
      "stateMutability": "view",
      "type": "function",
      "constant": true
    },
    {
      "inputs": [
        {
          "internalType": "uint256",
          "name": "_patientId",
          "type": "uint256"
        },
        {
          "internalType": "uint256",
          "name": "_billId",
          "type": "uint256"
        }
      ],
      "name": "getSingleMedicalBill",
      "outputs": [
        {
          "components": [
            {
              "internalType": "uint256",
              "name": "billId",
              "type": "uint256"
            },
            {
              "internalType": "uint256",
              "name": "patientId",
              "type": "uint256"
            },
            {
              "internalType": "address",
              "name": "assignedInsuranceCompany",
              "type": "address"
            },
            {
              "internalType": "string",
              "name": "details",
              "type": "string"
            },
            {
              "internalType": "uint256",
              "name": "timestamp",
              "type": "uint256"
            },
            {
              "internalType": "uint256",
              "name": "treatmentDate",
              "type": "uint256"
            },
            {
              "internalType": "uint256",
              "name": "amount",
              "type": "uint256"
            }
          ],
          "internalType": "struct MainStructure.MedicalBill",
          "name": "",
          "type": "tuple"
        }
      ],
      "stateMutability": "view",
      "type": "function",
      "constant": true
    },
    {
      "inputs": [],
      "name": "hospitalCount",
      "outputs": [
        {
          "internalType": "uint256",
          "name": "",
          "type": "uint256"
        }
      ],
      "stateMutability": "view",
      "type": "function",
      "constant": true
    },
    {
      "inputs": [],
      "name": "insuranceCompanyCount",
      "outputs": [
        {
          "internalType": "uint256",
          "name": "",
          "type": "uint256"
        }
      ],
      "stateMutability": "view",
      "type": "function",
      "constant": true
    },
    {
      "inputs": [],
      "name": "patientCount",
      "outputs": [
        {
          "internalType": "uint256",
          "name": "",
          "type": "uint256"
        }
      ],
      "stateMutability": "view",
      "type": "function",
      "constant": true
    },
    {
      "inputs": [],
      "name": "policyCount",
      "outputs": [
        {
          "internalType": "uint256",
          "name": "",
          "type": "uint256"
        }
      ],
      "stateMutability": "view",
      "type": "function",
      "constant": true
    },
    {
      "inputs": [],
      "name": "preauthorizationCount",
      "outputs": [
        {
          "internalType": "uint256",
          "name": "",
          "type": "uint256"
        }
      ],
      "stateMutability": "view",
      "type": "function",
      "constant": true
    },
    {
      "inputs": [
        {
          "internalType": "string",
          "name": "_hospitalName",
          "type": "string"
        },
        {
          "internalType": "string[]",
          "name": "_doctorList",
          "type": "string[]"
        }
      ],
      "name": "registerHospital",
      "outputs": [],
      "stateMutability": "nonpayable",
      "type": "function"
    },
    {
      "inputs": [
        {
          "internalType": "uint256[]",
          "name": "_networkHospitals",
          "type": "uint256[]"
        },
        {
          "internalType": "string",
          "name": "_details",
          "type": "string"
        }
      ],
      "name": "registerInsuranceCompany",
      "outputs": [],
      "stateMutability": "nonpayable",
      "type": "function"
    },
    {
      "inputs": [
        {
          "internalType": "uint256",
          "name": "_hospitalId",
          "type": "uint256"
        },
        {
          "internalType": "string",
          "name": "_name",
          "type": "string"
        },
        {
          "internalType": "uint256",
          "name": "_age",
          "type": "uint256"
        },
        {
          "internalType": "string",
          "name": "_otherDetails",
          "type": "string"
        },
        {
          "internalType": "address",
          "name": "_patientAddress",
          "type": "address"
        }
      ],
      "name": "registerPatient",
      "outputs": [],
      "stateMutability": "nonpayable",
      "type": "function"
    },
    {
      "inputs": [],
      "name": "reimbursementClaimCount",
      "outputs": [
        {
          "internalType": "uint256",
          "name": "",
          "type": "uint256"
        }
      ],
      "stateMutability": "view",
      "type": "function",
      "constant": true
    },
    {
      "inputs": [
        {
          "internalType": "uint256",
          "name": "_preauthorizationId",
          "type": "uint256"
        }
      ],
      "name": "rejectPreauthorization",
      "outputs": [],
      "stateMutability": "nonpayable",
      "type": "function"
    },
    {
      "inputs": [
        {
          "internalType": "uint256",
          "name": "_patientId",
          "type": "uint256"
        },
        {
          "internalType": "uint256",
          "name": "_billId",
          "type": "uint256"
        }
      ],
      "name": "requestPreauthorization",
      "outputs": [],
      "stateMutability": "nonpayable",
      "type": "function"
    },
    {
      "inputs": [
        {
          "internalType": "uint256",
          "name": "_claimId",
          "type": "uint256"
        }
      ],
      "name": "settleReimbursementClaim",
      "outputs": [],
      "stateMutability": "nonpayable",
      "type": "function"
    },
    {
      "inputs": [
        {
          "internalType": "uint256",
          "name": "_patientId",
          "type": "uint256"
        },
        {
          "internalType": "uint256",
          "name": "_billId",
          "type": "uint256"
        },
        {
          "internalType": "uint256",
          "name": "_claimAmount",
          "type": "uint256"
        },
        {
          "internalType": "address",
          "name": "_insuranceCompanyAddress",
          "type": "address"
        }
      ],
      "name": "submitReimbursementClaim",
      "outputs": [],
      "stateMutability": "nonpayable",
      "type": "function"
    },
    {
      "inputs": [
        {
          "internalType": "uint256",
          "name": "_patientId",
          "type": "uint256"
        },
        {
          "internalType": "uint256",
          "name": "_billId",
          "type": "uint256"
        },
        {
          "internalType": "uint256",
          "name": "_policyId",
          "type": "uint256"
        },
        {
          "internalType": "uint256",
          "name": "_preauthorizationId",
          "type": "uint256"
        },
        {
          "internalType": "enum PatientManagementSystem.PaymentType",
          "name": "_paymentType",
          "type": "uint8"
        }
      ],
      "name": "calculateFinalAmount",
      "outputs": [
        {
          "internalType": "uint256",
          "name": "",
          "type": "uint256"
        }
      ],
      "stateMutability": "view",
      "type": "function",
      "constant": true
    },
    {
      "inputs": [
        {
          "internalType": "uint256",
          "name": "_patientId",
          "type": "uint256"
        },
        {
          "internalType": "uint256",
          "name": "_billId",
          "type": "uint256"
        },
        {
          "internalType": "uint256",
          "name": "_policyId",
          "type": "uint256"
        },
        {
          "internalType": "uint256",
          "name": "_preauthorizationId",
          "type": "uint256"
        }
      ],
      "name": "calculateFinalClaimAmount",
      "outputs": [
        {
          "internalType": "uint256",
          "name": "",
          "type": "uint256"
        }
      ],
      "stateMutability": "view",
      "type": "function",
      "constant": true
    },
    {
      "inputs": [
        {
          "internalType": "uint256",
          "name": "_patientId",
          "type": "uint256"
        },
        {
          "internalType": "uint256",
          "name": "_billId",
          "type": "uint256"
        },
        {
          "internalType": "uint256",
          "name": "_policyId",
          "type": "uint256"
        }
      ],
      "name": "calculateFinalClaimAmountReimbursement",
      "outputs": [
        {
          "internalType": "uint256",
          "name": "",
          "type": "uint256"
        }
      ],
      "stateMutability": "view",
      "type": "function",
      "constant": true
    }
  ],
  "bytecode": "0x608060405234801561001057600080fd5b50615e1e80620000216000396000f3fe608060405234801561001057600080fd5b50600436106101a95760003560e01c8063a5e6e51d116100f9578063ea1b22be11610097578063f535befb11610071578063f535befb146104b6578063f974fdd8146104e6578063fb17ec4514610502578063fc941bbd14610532576101a9565b8063ea1b22be1461043a578063f2b650d01461046a578063f4300c3e1461049a576101a9565b8063b779f051116100d3578063b779f051146103c8578063c44a9277146103e4578063c66533c114610400578063de54d4291461041c576101a9565b8063a5e6e51d14610374578063ac12aaaa14610390578063b5302361146103ac576101a9565b8063350dadb71161016657806358b799461161014057806358b79946146102ec5780638f413b1914610308578063a0303c4114610326578063a074fc4814610344576101a9565b8063350dadb71461028257806341f9fbba146102a05780634c53b9df146102d0576101a9565b806304191793146101ae57806304455419146101cc578063134e24b5146101ea57806315a3f26214610206578063192dfb99146102225780632993b37314610252575b600080fd5b6101b6610562565b6040516101c39190613a83565b60405180910390f35b6101d4610568565b6040516101e19190613a83565b60405180910390f35b61020460048036038101906101ff9190613ade565b61056e565b005b610220600480360381019061021b9190613d19565b6106f9565b005b61023c60048036038101906102379190613db6565b610825565b6040516102499190613a83565b60405180910390f35b61026c60048036038101906102679190613e8f565b6108e6565b60405161027991906140a3565b60405180910390f35b61028a610b8f565b6040516102979190613a83565b60405180910390f35b6102ba60048036038101906102b591906140c5565b610b95565b6040516102c79190614220565b60405180910390f35b6102ea60048036038101906102e59190614242565b610db4565b005b61030660048036038101906103019190614295565b610e0e565b005b61031061108d565b60405161031d9190613a83565b60405180910390f35b61032e611093565b60405161033b9190613a83565b60405180910390f35b61035e60048036038101906103599190614318565b611099565b60405161036b9190613a83565b60405180910390f35b61038e6004803603810190610389919061437f565b61149d565b005b6103aa60048036038101906103a59190614513565b6116f6565b005b6103c660048036038101906103c19190613ade565b611821565b005b6103e260048036038101906103dd91906140c5565b6119c9565b005b6103fe60048036038101906103f9919061471c565b611bf8565b005b61041a60048036038101906104159190613ade565b611f3c565b005b610424612100565b6040516104319190613a83565b60405180910390f35b610454600480360381019061044f9190613ade565b612106565b6040516104619190614a1e565b60405180910390f35b610484600480360381019061047f9190613ade565b61248a565b6040516104919190613a83565b60405180910390f35b6104b460048036038101906104af9190614a40565b6124a2565b005b6104d060048036038101906104cb9190613e8f565b6126a7565b6040516104dd9190614d41565b60405180910390f35b61050060048036038101906104fb9190614d63565b612a97565b005b61051c60048036038101906105179190614dca565b612f0c565b6040516105299190613a83565b60405180910390f35b61054c60048036038101906105479190613ade565b61318d565b6040516105599190614f7b565b60405180910390f35b600b5481565b60085481565b600d600082815260200190815260200160002060050160019054906101000a900473ffffffffffffffffffffffffffffffffffffffff168073ffffffffffffffffffffffffffffffffffffffff163373ffffffffffffffffffffffffffffffffffffffff1614610613576040517f08c379a000000000000000000000000000000000000000000000000000000000815260040161060a90615020565b60405180910390fd5b600d600083815260200190815260200160002060050160009054906101000a900460ff1615610677576040517f08c379a000000000000000000000000000000000000000000000000000000000815260040161066e9061508c565b60405180910390fd5b6000600d6000848152602001908152602001600020905060018160050160006101000a81548160ff0219169083151502179055507f97975cfa1abf3cca6a70f79bc9433ba2a6064ca345ffae03892cefbc37795aac838260010154836002015484600301546040516106ec94939291906150ac565b60405180910390a1505050565b6008600081548092919061070c90615120565b9190505550604051806080016040528060085481526020018381526020018281526020013373ffffffffffffffffffffffffffffffffffffffff1681525060016000600854815260200190815260200160002060008201518160000155602082015181600101908051906020019061078592919061372f565b50604082015181600201908161079b9190615374565b5060608201518160030160006101000a81548173ffffffffffffffffffffffffffffffffffffffff021916908373ffffffffffffffffffffffffffffffffffffffff1602179055509050507fe77c8f37e34b74b41e1166c293f6133d1504890d12bb06d801af627515495cf3600854836040516108199291906154b5565b60405180910390a15050565b600080600181111561083a57610839613f06565b5b82600181111561084d5761084c613f06565b5b036108655761085e86868686611099565b90506108dd565b60018081111561087857610877613f06565b5b82600181111561088b5761088a613f06565b5b036108a25761089b868686612f0c565b90506108dd565b6040517f08c379a00000000000000000000000000000000000000000000000000000000081526004016108d490615531565b60405180910390fd5b95945050505050565b6060600080600190505b600b548111610984578373ffffffffffffffffffffffffffffffffffffffff16600c600083815260200190815260200160002060020160009054906101000a900473ffffffffffffffffffffffffffffffffffffffff1673ffffffffffffffffffffffffffffffffffffffff160361097157818061096d90615120565b9250505b808061097c90615120565b9150506108f0565b5060008167ffffffffffffffff8111156109a1576109a0613b21565b5b6040519080825280602002602001820160405280156109da57816020015b6109c761377c565b8152602001906001900390816109bf5790505b509050600080600190505b600b548111610b83578573ffffffffffffffffffffffffffffffffffffffff16600c600083815260200190815260200160002060020160009054906101000a900473ffffffffffffffffffffffffffffffffffffffff1673ffffffffffffffffffffffffffffffffffffffff1603610b7057600c60008281526020019081526020016000206040518061010001604052908160008201548152602001600182015481526020016002820160009054906101000a900473ffffffffffffffffffffffffffffffffffffffff1673ffffffffffffffffffffffffffffffffffffffff1673ffffffffffffffffffffffffffffffffffffffff168152602001600382015481526020016004820160009054906101000a900460ff166002811115610b0f57610b0e613f06565b5b6002811115610b2157610b20613f06565b5b81526020016005820154815260200160068201548152602001600782015481525050838381518110610b5657610b55615551565b5b60200260200101819052508180610b6c90615120565b9250505b8080610b7b90615120565b9150506109e5565b50819350505050919050565b60075481565b610b9d6137e9565b600083118015610baf5750600a548311155b610bee576040517f08c379a0000000000000000000000000000000000000000000000000000000008152600401610be5906155cc565b60405180910390fd5b600082118015610c2457508160056000858152602001908152602001600020600084815260200190815260200160002060000154145b610c63576040517f08c379a0000000000000000000000000000000000000000000000000000000008152600401610c5a90615638565b60405180910390fd5b6005600084815260200190815260200160002060008381526020019081526020016000206040518060e001604052908160008201548152602001600182015481526020016002820160009054906101000a900473ffffffffffffffffffffffffffffffffffffffff1673ffffffffffffffffffffffffffffffffffffffff1673ffffffffffffffffffffffffffffffffffffffff168152602001600382018054610d0c90615197565b80601f0160208091040260200160405190810160405280929190818152602001828054610d3890615197565b8015610d855780601f10610d5a57610100808354040283529160200191610d85565b820191906000526020600020905b815481529060010190602001808311610d6857829003601f168201915b505050505081526020016004820154815260200160058201548152602001600682015481525050905092915050565b806006600085815260200190815260200160002060008473ffffffffffffffffffffffffffffffffffffffff1673ffffffffffffffffffffffffffffffffffffffff16815260200190815260200160002081905550505050565b8060008082815260200190815260200160002060010160009054906101000a900473ffffffffffffffffffffffffffffffffffffffff1673ffffffffffffffffffffffffffffffffffffffff163373ffffffffffffffffffffffffffffffffffffffff1614610eb2576040517f08c379a0000000000000000000000000000000000000000000000000000000008152600401610ea9906156ca565b60405180910390fd5b600060016004600088815260200190815260200160002054610ed491906156ea565b9050600460008781526020019081526020016000206000815480929190610efa90615120565b9190505550600360008781526020019081526020016000206006018190806001815401808255809150506001900390600052602060002001600090919091909150556040518060e00160405280878152602001828152602001600073ffffffffffffffffffffffffffffffffffffffff1681526020018681526020014281526020016201518042610f8b919061574d565b815260200185815250600560008881526020019081526020016000206000838152602001908152602001600020600082015181600001556020820151816001015560408201518160020160006101000a81548173ffffffffffffffffffffffffffffffffffffffff021916908373ffffffffffffffffffffffffffffffffffffffff16021790555060608201518160030190816110289190615374565b506080820151816004015560a0820151816005015560c082015181600601559050507f6746258bd4dc3961de3bd0fef53a987639aae292ced878d1044663960b5b3e5981878660405161107d9392919061577e565b60405180910390a1505050505050565b600e5481565b600a5481565b6000816000600c60008381526020019081526020016000209050600160028111156110c7576110c6613f06565b5b8160040160009054906101000a900460ff1660028111156110eb576110ea613f06565b5b1461112b576040517f08c379a000000000000000000000000000000000000000000000000000000000815260040161112290615801565b60405180910390fd5b6000600260008360030154815260200190815260200160002090506000600281111561115a57611159613f06565b5b8160020160149054906101000a900460ff16600281111561117e5761117d613f06565b5b14806111be575060028081111561119857611197613f06565b5b8160020160149054906101000a900460ff1660028111156111bc576111bb613f06565b5b145b6111fd576040517f08c379a00000000000000000000000000000000000000000000000000000000081526004016111f490615893565b60405180910390fd5b6000600560008a81526020019081526020016000206000898152602001908152602001600020905060008160060154905060008061123b8a8461344d565b9050808261124991906156ea565b915060006112578b856134c9565b90508084111561127457808361126d91906156ea565b9250611282565b600098505050505050611492565b6000600367ffffffffffffffff81111561129f5761129e613b21565b5b6040519080825280602002602001820160405280156112d257816020015b60608152602001906001900390816112bd5790505b5090506040518060400160405280600881526020017f666163656c6966740000000000000000000000000000000000000000000000008152508160008151811061131f5761131e615551565b5b60200260200101819052506040518060400160405280600e81526020017f686169725472616e73706c616e740000000000000000000000000000000000008152508160018151811061137457611373615551565b5b60200260200101819052506040518060400160405280601281526020017f616c7465726e6174697665546865726170790000000000000000000000000000815250816002815181106113c9576113c8615551565b5b602002602001018190525060005b815181101561142c576114048d8383815181106113f7576113f6615551565b5b602002602001015161351c565b156114195760009a5050505050505050611492565b808061142490615120565b9150506113d7565b5060008061143c8e600080613675565b91509150811561145957808661145291906156ea565b955061146a565b60009b505050505050505050611492565b614e20861115611486576127109b505050505050505050611492565b859b5050505050505050505b505050949350505050565b8460008082815260200190815260200160002060010160009054906101000a900473ffffffffffffffffffffffffffffffffffffffff1673ffffffffffffffffffffffffffffffffffffffff163373ffffffffffffffffffffffffffffffffffffffff1614611541576040517f08c379a0000000000000000000000000000000000000000000000000000000008152600401611538906156ca565b60405180910390fd5b600a600081548092919061155490615120565b91905055506040518060e00160405280600a5481526020018681526020018581526020018481526020018373ffffffffffffffffffffffffffffffffffffffff168152602001878152602001600067ffffffffffffffff8111156115bb576115ba613b21565b5b6040519080825280602002602001820160405280156115e95781602001602082028036833780820191505090505b5081525060036000600a5481526020019081526020016000206000820151816000015560208201518160010190816116219190615374565b506040820151816002015560608201518160030190816116419190615374565b5060808201518160040160006101000a81548173ffffffffffffffffffffffffffffffffffffffff021916908373ffffffffffffffffffffffffffffffffffffffff16021790555060a0820151816005015560c08201518160060190805190602001906116af92919061372f565b509050507f6c19f22d83a1ce20713b4c747e3a78c3036498ced71d283c697d587033783bd0600a54866040516116e69291906158ec565b60405180910390a1505050505050565b6007600081548092919061170990615120565b9190505550604051806080016040528060075481526020013373ffffffffffffffffffffffffffffffffffffffff1681526020018381526020018281525060008060075481526020019081526020016000206000820151816000015560208201518160010160006101000a81548173ffffffffffffffffffffffffffffffffffffffff021916908373ffffffffffffffffffffffffffffffffffffffff16021790555060408201518160020190816117c19190615374565b5060608201518160030190805190602001906117de92919061383c565b509050507fa1fd3231f7912e48ffbf52db08250262416750cd0c9618106dd67eee527a1f026007543360405161181592919061592b565b60405180910390a15050565b600c600082815260200190815260200160002060020160009054906101000a900473ffffffffffffffffffffffffffffffffffffffff168073ffffffffffffffffffffffffffffffffffffffff163373ffffffffffffffffffffffffffffffffffffffff16146118c6576040517f08c379a00000000000000000000000000000000000000000000000000000000081526004016118bd90615020565b60405180910390fd5b6002808111156118d9576118d8613f06565b5b600c600084815260200190815260200160002060040160009054906101000a900460ff16600281111561190f5761190e613f06565b5b0361194f576040517f08c379a0000000000000000000000000000000000000000000000000000000008152600401611946906159a0565b60405180910390fd5b6002600c600084815260200190815260200160002060040160006101000a81548160ff0219169083600281111561198957611988613f06565b5b02179055507f56d74882d0df5b525123b8a0a5b1b16cd6918f15897439e113fb15bed337b7e9826040516119bd9190613a83565b60405180910390a15050565b600b60008154809291906119dc90615120565b9190505550600060056000848152602001908152602001600020600083815260200190815260200160002060020160009054906101000a900473ffffffffffffffffffffffffffffffffffffffff16905060006006600085815260200190815260200160002060008373ffffffffffffffffffffffffffffffffffffffff1673ffffffffffffffffffffffffffffffffffffffff1681526020019081526020016000205490506040518061010001604052808581526020018481526020018373ffffffffffffffffffffffffffffffffffffffff16815260200182815260200160006002811115611ad057611acf613f06565b5b815260200142815260200160008152602001600b54815250600c6000600b548152602001908152602001600020600082015181600001556020820151816001015560408201518160020160006101000a81548173ffffffffffffffffffffffffffffffffffffffff021916908373ffffffffffffffffffffffffffffffffffffffff1602179055506060820151816003015560808201518160040160006101000a81548160ff02191690836002811115611b8d57611b8c613f06565b5b021790555060a0820151816005015560c0820151816006015560e082015181600701559050507fc92afee2df9da8514d602cb137349226cae98de592c5ae8199917bfdea9a1e24600b54858386604051611bea94939291906150ac565b60405180910390a150505050565b878073ffffffffffffffffffffffffffffffffffffffff163373ffffffffffffffffffffffffffffffffffffffff1614611c67576040517f08c379a0000000000000000000000000000000000000000000000000000000008152600401611c5e90615020565b60405180910390fd5b60096000815480929190611c7a90615120565b91905055506000801515891515148015611c98575060001515881515145b15611cd8576040517f08c379a0000000000000000000000000000000000000000000000000000000008152600401611ccf90615a0c565b60405180910390fd5b6001151589151503611ced5760009050611d08565b6001151588151503611d025760019050611d07565b600290505b5b60405180610120016040528060095481526020018c81526020018b73ffffffffffffffffffffffffffffffffffffffff168152602001826002811115611d5157611d50613f06565b5b815260200188815260200187815260200186815260200185815260200184815250600260006009548152602001908152602001600020600082015181600001556020820151816001019081611da69190615374565b5060408201518160020160006101000a81548173ffffffffffffffffffffffffffffffffffffffff021916908373ffffffffffffffffffffffffffffffffffffffff16021790555060608201518160020160146101000a81548160ff02191690836002811115611e1957611e18613f06565b5b02179055506080820151816003015560a0820151816004016000820151816000015560208201518160010155505060c0820151816006016000820151816000015560208201518160010155505060e08201518160080160008201518160000160006101000a81548160ff02191690831515021790555060208201518160000160016101000a81548160ff02191690831515021790555060408201518160000160026101000a81548160ff021916908315150217905550505061010082015181600901600082015181600001556020820151816001015550509050507f80968e0cf0f9fbad1f441d6bcbc63de0fe2c2a21dcbd37b22b46e61c7695031f6009548c604051611f279291906158ec565b60405180910390a15050505050505050505050565b600c600082815260200190815260200160002060020160009054906101000a900473ffffffffffffffffffffffffffffffffffffffff168073ffffffffffffffffffffffffffffffffffffffff163373ffffffffffffffffffffffffffffffffffffffff1614611fe1576040517f08c379a0000000000000000000000000000000000000000000000000000000008152600401611fd890615020565b60405180910390fd5b60016002811115611ff557611ff4613f06565b5b600c600084815260200190815260200160002060040160009054906101000a900460ff16600281111561202b5761202a613f06565b5b0361206b576040517f08c379a000000000000000000000000000000000000000000000000000000000815260040161206290615a9e565b60405180910390fd5b6001600c600084815260200190815260200160002060040160006101000a81548160ff021916908360028111156120a5576120a4613f06565b5b021790555042600c6000848152602001908152602001600020600601819055507f109612b3153463a13d8c2840918ef74c26d7d0cae1746f6f5735a8e7e1f8bbb7826040516120f49190613a83565b60405180910390a15050565b60095481565b606060008211801561211a57506007548211155b612159576040517f08c379a000000000000000000000000000000000000000000000000000000000815260040161215090615b0a565b60405180910390fd5b600080600190505b600a5481116121a9578360036000838152602001908152602001600020600501540361219657818061219290615120565b9250505b80806121a190615120565b915050612161565b5060008167ffffffffffffffff8111156121c6576121c5613b21565b5b6040519080825280602002602001820160405280156121ff57816020015b6121ec613895565b8152602001906001900390816121e45790505b509050600080600190505b600a54811161247e578560036000838152602001908152602001600020600501540361246b57600360008281526020019081526020016000206040518060e00160405290816000820154815260200160018201805461226890615197565b80601f016020809104026020016040519081016040528092919081815260200182805461229490615197565b80156122e15780601f106122b6576101008083540402835291602001916122e1565b820191906000526020600020905b8154815290600101906020018083116122c457829003601f168201915b505050505081526020016002820154815260200160038201805461230490615197565b80601f016020809104026020016040519081016040528092919081815260200182805461233090615197565b801561237d5780601f106123525761010080835404028352916020019161237d565b820191906000526020600020905b81548152906001019060200180831161236057829003601f168201915b505050505081526020016004820160009054906101000a900473ffffffffffffffffffffffffffffffffffffffff1673ffffffffffffffffffffffffffffffffffffffff1673ffffffffffffffffffffffffffffffffffffffff168152602001600582015481526020016006820180548060200260200160405190810160405280929190818152602001828054801561243557602002820191906000526020600020905b815481526020019060010190808311612421575b50505050508152505083838151811061245157612450615551565b5b6020026020010181905250818061246790615120565b9250505b808061247690615120565b91505061220a565b50819350505050919050565b60046020528060005260406000206000915090505481565b826003600082815260200190815260200160002060040160009054906101000a900473ffffffffffffffffffffffffffffffffffffffff1673ffffffffffffffffffffffffffffffffffffffff163373ffffffffffffffffffffffffffffffffffffffff1614612547576040517f08c379a000000000000000000000000000000000000000000000000000000000815260040161253e90615b9c565b60405180910390fd5b600073ffffffffffffffffffffffffffffffffffffffff1660056000868152602001908152602001600020600085815260200190815260200160002060020160009054906101000a900473ffffffffffffffffffffffffffffffffffffffff1673ffffffffffffffffffffffffffffffffffffffff1603612666578160056000868152602001908152602001600020600085815260200190815260200160002060020160006101000a81548173ffffffffffffffffffffffffffffffffffffffff021916908373ffffffffffffffffffffffffffffffffffffffff1602179055507fe8dfa1000a377c1be6687e0c2f30a28b8ab10bc929a3272894b169f3385dea8b848360405161265992919061592b565b60405180910390a16126a1565b6040517f08c379a000000000000000000000000000000000000000000000000000000000815260040161269890615c2e565b60405180910390fd5b50505050565b6060600080600190505b6009548111612745578373ffffffffffffffffffffffffffffffffffffffff166002600083815260200190815260200160002060020160009054906101000a900473ffffffffffffffffffffffffffffffffffffffff1673ffffffffffffffffffffffffffffffffffffffff160361273257818061272e90615120565b9250505b808061273d90615120565b9150506126b1565b5060008167ffffffffffffffff81111561276257612761613b21565b5b60405190808252806020026020018201604052801561279b57816020015b6127886138e8565b8152602001906001900390816127805790505b509050600080600190505b6009548111612a8b578573ffffffffffffffffffffffffffffffffffffffff166002600083815260200190815260200160002060020160009054906101000a900473ffffffffffffffffffffffffffffffffffffffff1673ffffffffffffffffffffffffffffffffffffffff1603612a785760026000828152602001908152602001600020604051806101200160405290816000820154815260200160018201805461285190615197565b80601f016020809104026020016040519081016040528092919081815260200182805461287d90615197565b80156128ca5780601f1061289f576101008083540402835291602001916128ca565b820191906000526020600020905b8154815290600101906020018083116128ad57829003601f168201915b505050505081526020016002820160009054906101000a900473ffffffffffffffffffffffffffffffffffffffff1673ffffffffffffffffffffffffffffffffffffffff1673ffffffffffffffffffffffffffffffffffffffff1681526020016002820160149054906101000a900460ff16600281111561294e5761294d613f06565b5b60028111156129605761295f613f06565b5b8152602001600382015481526020016004820160405180604001604052908160008201548152602001600182015481525050815260200160068201604051806040016040529081600082015481526020016001820154815250508152602001600882016040518060600160405290816000820160009054906101000a900460ff161515151581526020016000820160019054906101000a900460ff161515151581526020016000820160029054906101000a900460ff1615151515815250508152602001600982016040518060400160405290816000820154815260200160018201548152505081525050838381518110612a5e57612a5d615551565b5b60200260200101819052508180612a7490615120565b9250505b8080612a8390615120565b9150506127a6565b50819350505050919050565b836003600082815260200190815260200160002060040160009054906101000a900473ffffffffffffffffffffffffffffffffffffffff1673ffffffffffffffffffffffffffffffffffffffff163373ffffffffffffffffffffffffffffffffffffffff1614612b3c576040517f08c379a0000000000000000000000000000000000000000000000000000000008152600401612b3390615b9c565b60405180910390fd5b60016002811115612b5057612b4f613f06565b5b60026000600660008981526020019081526020016000206000600560008b815260200190815260200160002060008a815260200190815260200160002060020160009054906101000a900473ffffffffffffffffffffffffffffffffffffffff1673ffffffffffffffffffffffffffffffffffffffff1673ffffffffffffffffffffffffffffffffffffffff16815260200190815260200160002054815260200190815260200160002060020160149054906101000a900460ff166002811115612c1d57612c1c613f06565b5b1480612d065750600280811115612c3757612c36613f06565b5b60026000600660008981526020019081526020016000206000600560008b815260200190815260200160002060008a815260200190815260200160002060020160009054906101000a900473ffffffffffffffffffffffffffffffffffffffff1673ffffffffffffffffffffffffffffffffffffffff1673ffffffffffffffffffffffffffffffffffffffff16815260200190815260200160002054815260200190815260200160002060020160149054906101000a900460ff166002811115612d0457612d03613f06565b5b145b612d45576040517f08c379a0000000000000000000000000000000000000000000000000000000008152600401612d3c90615cc0565b60405180910390fd5b60056000868152602001908152602001600020600085815260200190815260200160002060060154831115612daf576040517f08c379a0000000000000000000000000000000000000000000000000000000008152600401612da690615d52565b60405180910390fd5b600e6000815480929190612dc290615120565b91905055506040518060e00160405280600e5481526020018681526020018581526020018481526020014281526020016000151581526020018373ffffffffffffffffffffffffffffffffffffffff16815250600d6000600e548152602001908152602001600020600082015181600001556020820151816001015560408201518160020155606082015181600301556080820151816004015560a08201518160050160006101000a81548160ff02191690831515021790555060c08201518160050160016101000a81548173ffffffffffffffffffffffffffffffffffffffff021916908373ffffffffffffffffffffffffffffffffffffffff1602179055509050507fb7448a3b47b0818412226c6ea5ac14898a5b645d67fcaeba16c897f88a5dd191600e54868686604051612efd94939291906150ac565b60405180910390a15050505050565b6000806005600086815260200190815260200160002060008581526020019081526020016000209050600081600601549050600080612f4b868461344d565b90508082612f5991906156ea565b91506000612f6787856134c9565b905080841115612f84578083612f7d91906156ea565b9250612f92565b600095505050505050613186565b6000600367ffffffffffffffff811115612faf57612fae613b21565b5b604051908082528060200260200182016040528015612fe257816020015b6060815260200190600190039081612fcd5790505b5090506040518060400160405280600881526020017f666163656c6966740000000000000000000000000000000000000000000000008152508160008151811061302f5761302e615551565b5b60200260200101819052506040518060400160405280600e81526020017f686169725472616e73706c616e740000000000000000000000000000000000008152508160018151811061308457613083615551565b5b60200260200101819052506040518060400160405280601281526020017f616c7465726e6174697665546865726170790000000000000000000000000000815250816002815181106130d9576130d8615551565b5b602002602001018190525060005b815181101561313c576131148983838151811061310757613106615551565b5b602002602001015161351c565b15613129576000975050505050505050613186565b808061313490615120565b9150506130e7565b5060008061314c8a600080613675565b91509150811561316957808661316291906156ea565b955061317a565b600098505050505050505050613186565b85985050505050505050505b9392505050565b60606000821180156131a15750600a548211155b6131e0576040517f08c379a00000000000000000000000000000000000000000000000000000000081526004016131d7906155cc565b60405180910390fd5b60006003600084815260200190815260200160002060060180548060200260200160405190810160405280929190818152602001828054801561324257602002820191906000526020600020905b81548152602001906001019080831161322e575b505050505090506000815167ffffffffffffffff81111561326657613265613b21565b5b60405190808252806020026020018201604052801561329f57816020015b61328c6137e9565b8152602001906001900390816132845790505b50905060005b8251811015613442576005600086815260200190815260200160002060008483815181106132d6576132d5615551565b5b602002602001015181526020019081526020016000206040518060e001604052908160008201548152602001600182015481526020016002820160009054906101000a900473ffffffffffffffffffffffffffffffffffffffff1673ffffffffffffffffffffffffffffffffffffffff1673ffffffffffffffffffffffffffffffffffffffff16815260200160038201805461337190615197565b80601f016020809104026020016040519081016040528092919081815260200182805461339d90615197565b80156133ea5780601f106133bf576101008083540402835291602001916133ea565b820191906000526020600020905b8154815290600101906020018083116133cd57829003601f168201915b50505050508152602001600482015481526020016005820154815260200160068201548152505082828151811061342457613423615551565b5b6020026020010181905250808061343a90615120565b9150506132a5565b508092505050919050565b6000806002600085815260200190815260200160002090506000808260060160000154111561348157816006016000015490505b6000826006016001015411156134be5760648260060160010154856134a69190615d72565b6134b0919061574d565b816134bb91906156ea565b90505b809250505092915050565b6000806002600085815260200190815260200160002090506000816004016000015484106134fc57816004016000015490505b81600401600101548161350f91906156ea565b9050809250505092915050565b6000806002600085815260200190815260200160002090506040518060400160405280600881526020017f666163656c6966740000000000000000000000000000000000000000000000008152508051906020012083805190602001200361359b578060080160000160009054906101000a900460ff1691505061366f565b6040518060400160405280600e81526020017f686169725472616e73706c616e7400000000000000000000000000000000000081525080519060200120838051906020012003613602578060080160000160019054906101000a900460ff1691505061366f565b6040518060400160405280601281526020017f616c7465726e617469766554686572617079000000000000000000000000000081525080519060200120838051906020012003613669578060080160000160029054906101000a900460ff1691505061366f565b60009150505b92915050565b6000806000600260008781526020019081526020016000209050600081600901600001548611806136ac5750816009016001015485115b156136bf57600080935093505050613727565b816009016000015486116136ee578582600901600001546136e09190615db4565b816136eb91906156ea565b90505b8160090160010154851161371d5784826009016001015461370f9190615db4565b8161371a91906156ea565b90505b6001819350935050505b935093915050565b82805482825590600052602060002090810192821561376b579160200282015b8281111561376a57825182559160200191906001019061374f565b5b5090506137789190613974565b5090565b6040518061010001604052806000815260200160008152602001600073ffffffffffffffffffffffffffffffffffffffff16815260200160008152602001600060028111156137ce576137cd613f06565b5b81526020016000815260200160008152602001600081525090565b6040518060e001604052806000815260200160008152602001600073ffffffffffffffffffffffffffffffffffffffff168152602001606081526020016000815260200160008152602001600081525090565b828054828255906000526020600020908101928215613884579160200282015b828111156138835782518290816138739190615374565b509160200191906001019061385c565b5b5090506138919190613991565b5090565b6040518060e0016040528060008152602001606081526020016000815260200160608152602001600073ffffffffffffffffffffffffffffffffffffffff16815260200160008152602001606081525090565b6040518061012001604052806000815260200160608152602001600073ffffffffffffffffffffffffffffffffffffffff1681526020016000600281111561393357613932613f06565b5b8152602001600081526020016139476139b5565b81526020016139546139cf565b81526020016139616139e9565b815260200161396e613a10565b81525090565b5b8082111561398d576000816000905550600101613975565b5090565b5b808211156139b157600081816139a89190613a2a565b50600101613992565b5090565b604051806040016040528060008152602001600081525090565b604051806040016040528060008152602001600081525090565b60405180606001604052806000151581526020016000151581526020016000151581525090565b604051806040016040528060008152602001600081525090565b508054613a3690615197565b6000825580601f10613a485750613a67565b601f016020900490600052602060002090810190613a669190613974565b5b50565b6000819050919050565b613a7d81613a6a565b82525050565b6000602082019050613a986000830184613a74565b92915050565b6000604051905090565b600080fd5b600080fd5b613abb81613a6a565b8114613ac657600080fd5b50565b600081359050613ad881613ab2565b92915050565b600060208284031215613af457613af3613aa8565b5b6000613b0284828501613ac9565b91505092915050565b600080fd5b6000601f19601f8301169050919050565b7f4e487b7100000000000000000000000000000000000000000000000000000000600052604160045260246000fd5b613b5982613b10565b810181811067ffffffffffffffff82111715613b7857613b77613b21565b5b80604052505050565b6000613b8b613a9e565b9050613b978282613b50565b919050565b600067ffffffffffffffff821115613bb757613bb6613b21565b5b602082029050602081019050919050565b600080fd5b6000613be0613bdb84613b9c565b613b81565b90508083825260208201905060208402830185811115613c0357613c02613bc8565b5b835b81811015613c2c5780613c188882613ac9565b845260208401935050602081019050613c05565b5050509392505050565b600082601f830112613c4b57613c4a613b0b565b5b8135613c5b848260208601613bcd565b91505092915050565b600080fd5b600067ffffffffffffffff821115613c8457613c83613b21565b5b613c8d82613b10565b9050602081019050919050565b82818337600083830152505050565b6000613cbc613cb784613c69565b613b81565b905082815260208101848484011115613cd857613cd7613c64565b5b613ce3848285613c9a565b509392505050565b600082601f830112613d0057613cff613b0b565b5b8135613d10848260208601613ca9565b91505092915050565b60008060408385031215613d3057613d2f613aa8565b5b600083013567ffffffffffffffff811115613d4e57613d4d613aad565b5b613d5a85828601613c36565b925050602083013567ffffffffffffffff811115613d7b57613d7a613aad565b5b613d8785828601613ceb565b9150509250929050565b60028110613d9e57600080fd5b50565b600081359050613db081613d91565b92915050565b600080600080600060a08688031215613dd257613dd1613aa8565b5b6000613de088828901613ac9565b9550506020613df188828901613ac9565b9450506040613e0288828901613ac9565b9350506060613e1388828901613ac9565b9250506080613e2488828901613da1565b9150509295509295909350565b600073ffffffffffffffffffffffffffffffffffffffff82169050919050565b6000613e5c82613e31565b9050919050565b613e6c81613e51565b8114613e7757600080fd5b50565b600081359050613e8981613e63565b92915050565b600060208284031215613ea557613ea4613aa8565b5b6000613eb384828501613e7a565b91505092915050565b600081519050919050565b600082825260208201905092915050565b6000819050602082019050919050565b613ef181613a6a565b82525050565b613f0081613e51565b82525050565b7f4e487b7100000000000000000000000000000000000000000000000000000000600052602160045260246000fd5b60038110613f4657613f45613f06565b5b50565b6000819050613f5782613f35565b919050565b6000613f6782613f49565b9050919050565b613f7781613f5c565b82525050565b61010082016000820151613f946000850182613ee8565b506020820151613fa76020850182613ee8565b506040820151613fba6040850182613ef7565b506060820151613fcd6060850182613ee8565b506080820151613fe06080850182613f6e565b5060a0820151613ff360a0850182613ee8565b5060c082015161400660c0850182613ee8565b5060e082015161401960e0850182613ee8565b50505050565b600061402b8383613f7d565b6101008301905092915050565b6000602082019050919050565b600061405082613ebc565b61405a8185613ec7565b935061406583613ed8565b8060005b8381101561409657815161407d888261401f565b975061408883614038565b925050600181019050614069565b5085935050505092915050565b600060208201905081810360008301526140bd8184614045565b905092915050565b600080604083850312156140dc576140db613aa8565b5b60006140ea85828601613ac9565b92505060206140fb85828601613ac9565b9150509250929050565b600081519050919050565b600082825260208201905092915050565b60005b8381101561413f578082015181840152602081019050614124565b60008484015250505050565b600061415682614105565b6141608185614110565b9350614170818560208601614121565b61417981613b10565b840191505092915050565b600060e08301600083015161419c6000860182613ee8565b5060208301516141af6020860182613ee8565b5060408301516141c26040860182613ef7565b50606083015184820360608601526141da828261414b565b91505060808301516141ef6080860182613ee8565b5060a083015161420260a0860182613ee8565b5060c083015161421560c0860182613ee8565b508091505092915050565b6000602082019050818103600083015261423a8184614184565b905092915050565b60008060006060848603121561425b5761425a613aa8565b5b600061426986828701613ac9565b935050602061427a86828701613e7a565b925050604061428b86828701613ac9565b9150509250925092565b600080600080608085870312156142af576142ae613aa8565b5b60006142bd87828801613ac9565b945050602085013567ffffffffffffffff8111156142de576142dd613aad565b5b6142ea87828801613ceb565b93505060406142fb87828801613ac9565b925050606061430c87828801613ac9565b91505092959194509250565b6000806000806080858703121561433257614331613aa8565b5b600061434087828801613ac9565b945050602061435187828801613ac9565b935050604061436287828801613ac9565b925050606061437387828801613ac9565b91505092959194509250565b600080600080600060a0868803121561439b5761439a613aa8565b5b60006143a988828901613ac9565b955050602086013567ffffffffffffffff8111156143ca576143c9613aad565b5b6143d688828901613ceb565b94505060406143e788828901613ac9565b935050606086013567ffffffffffffffff81111561440857614407613aad565b5b61441488828901613ceb565b925050608061442588828901613e7a565b9150509295509295909350565b600067ffffffffffffffff82111561444d5761444c613b21565b5b602082029050602081019050919050565b600061447161446c84614432565b613b81565b9050808382526020820190506020840283018581111561449457614493613bc8565b5b835b818110156144db57803567ffffffffffffffff8111156144b9576144b8613b0b565b5b8086016144c68982613ceb565b85526020850194505050602081019050614496565b5050509392505050565b600082601f8301126144fa576144f9613b0b565b5b813561450a84826020860161445e565b91505092915050565b6000806040838503121561452a57614529613aa8565b5b600083013567ffffffffffffffff81111561454857614547613aad565b5b61455485828601613ceb565b925050602083013567ffffffffffffffff81111561457557614574613aad565b5b614581858286016144e5565b9150509250929050565b60008115159050919050565b6145a08161458b565b81146145ab57600080fd5b50565b6000813590506145bd81614597565b92915050565b600080fd5b6000604082840312156145de576145dd6145c3565b5b6145e86040613b81565b905060006145f884828501613ac9565b600083015250602061460c84828501613ac9565b60208301525092915050565b60006040828403121561462e5761462d6145c3565b5b6146386040613b81565b9050600061464884828501613ac9565b600083015250602061465c84828501613ac9565b60208301525092915050565b60006060828403121561467e5761467d6145c3565b5b6146886060613b81565b90506000614698848285016145ae565b60008301525060206146ac848285016145ae565b60208301525060406146c0848285016145ae565b60408301525092915050565b6000604082840312156146e2576146e16145c3565b5b6146ec6040613b81565b905060006146fc84828501613ac9565b600083015250602061471084828501613ac9565b60208301525092915050565b60008060008060008060008060006101c08a8c03121561473f5761473e613aa8565b5b60008a013567ffffffffffffffff81111561475d5761475c613aad565b5b6147698c828d01613ceb565b995050602061477a8c828d01613e7a565b985050604061478b8c828d016145ae565b975050606061479c8c828d016145ae565b96505060806147ad8c828d01613ac9565b95505060a06147be8c828d016145c8565b94505060e06147cf8c828d01614618565b9350506101206147e18c828d01614668565b9250506101806147f38c828d016146cc565b9150509295985092959850929598565b600081519050919050565b600082825260208201905092915050565b6000819050602082019050919050565b600081519050919050565b600082825260208201905092915050565b6000819050602082019050919050565b60006148678383613ee8565b60208301905092915050565b6000602082019050919050565b600061488b8261482f565b614895818561483a565b93506148a08361484b565b8060005b838110156148d15781516148b8888261485b565b97506148c383614873565b9250506001810190506148a4565b5085935050505092915050565b600060e0830160008301516148f66000860182613ee8565b506020830151848203602086015261490e828261414b565b91505060408301516149236040860182613ee8565b506060830151848203606086015261493b828261414b565b91505060808301516149506080860182613ef7565b5060a083015161496360a0860182613ee8565b5060c083015184820360c086015261497b8282614880565b9150508091505092915050565b600061499483836148de565b905092915050565b6000602082019050919050565b60006149b482614803565b6149be818561480e565b9350836020820285016149d08561481f565b8060005b85811015614a0c57848403895281516149ed8582614988565b94506149f88361499c565b925060208a019950506001810190506149d4565b50829750879550505050505092915050565b60006020820190508181036000830152614a3881846149a9565b905092915050565b600080600060608486031215614a5957614a58613aa8565b5b6000614a6786828701613ac9565b9350506020614a7886828701613ac9565b9250506040614a8986828701613e7a565b9150509250925092565b600081519050919050565b600082825260208201905092915050565b6000819050602082019050919050565b60038110614ad057614acf613f06565b5b50565b6000819050614ae182614abf565b919050565b6000614af182614ad3565b9050919050565b614b0181614ae6565b82525050565b604082016000820151614b1d6000850182613ee8565b506020820151614b306020850182613ee8565b50505050565b604082016000820151614b4c6000850182613ee8565b506020820151614b5f6020850182613ee8565b50505050565b614b6e8161458b565b82525050565b606082016000820151614b8a6000850182614b65565b506020820151614b9d6020850182614b65565b506040820151614bb06040850182614b65565b50505050565b604082016000820151614bcc6000850182613ee8565b506020820151614bdf6020850182613ee8565b50505050565b60006101c083016000830151614bfe6000860182613ee8565b5060208301518482036020860152614c16828261414b565b9150506040830151614c2b6040860182613ef7565b506060830151614c3e6060860182614af8565b506080830151614c516080860182613ee8565b5060a0830151614c6460a0860182614b07565b5060c0830151614c7760e0860182614b36565b5060e0830151614c8b610120860182614b74565b50610100830151614ca0610180860182614bb6565b508091505092915050565b6000614cb78383614be5565b905092915050565b6000602082019050919050565b6000614cd782614a93565b614ce18185614a9e565b935083602082028501614cf385614aaf565b8060005b85811015614d2f5784840389528151614d108582614cab565b9450614d1b83614cbf565b925060208a01995050600181019050614cf7565b50829750879550505050505092915050565b60006020820190508181036000830152614d5b8184614ccc565b905092915050565b60008060008060808587031215614d7d57614d7c613aa8565b5b6000614d8b87828801613ac9565b9450506020614d9c87828801613ac9565b9350506040614dad87828801613ac9565b9250506060614dbe87828801613e7a565b91505092959194509250565b600080600060608486031215614de357614de2613aa8565b5b6000614df186828701613ac9565b9350506020614e0286828701613ac9565b9250506040614e1386828701613ac9565b9150509250925092565b600081519050919050565b600082825260208201905092915050565b6000819050602082019050919050565b600060e083016000830151614e616000860182613ee8565b506020830151614e746020860182613ee8565b506040830151614e876040860182613ef7565b5060608301518482036060860152614e9f828261414b565b9150506080830151614eb46080860182613ee8565b5060a0830151614ec760a0860182613ee8565b5060c0830151614eda60c0860182613ee8565b508091505092915050565b6000614ef18383614e49565b905092915050565b6000602082019050919050565b6000614f1182614e1d565b614f1b8185614e28565b935083602082028501614f2d85614e39565b8060005b85811015614f695784840389528151614f4a8582614ee5565b9450614f5583614ef9565b925060208a01995050600181019050614f31565b50829750879550505050505092915050565b60006020820190508181036000830152614f958184614f06565b905092915050565b600082825260208201905092915050565b7f4f6e6c792074686520696e737572616e636520636f6d70616e792063616e207060008201527f6572666f726d207468697320616374696f6e0000000000000000000000000000602082015250565b600061500a603283614f9d565b915061501582614fae565b604082019050919050565b6000602082019050818103600083015261503981614ffd565b9050919050565b7f436c61696d20616c726561647920736574746c65640000000000000000000000600082015250565b6000615076601583614f9d565b915061508182615040565b602082019050919050565b600060208201905081810360008301526150a581615069565b9050919050565b60006080820190506150c16000830187613a74565b6150ce6020830186613a74565b6150db6040830185613a74565b6150e86060830184613a74565b95945050505050565b7f4e487b7100000000000000000000000000000000000000000000000000000000600052601160045260246000fd5b600061512b82613a6a565b91507fffffffffffffffffffffffffffffffffffffffffffffffffffffffffffffffff820361515d5761515c6150f1565b5b600182019050919050565b7f4e487b7100000000000000000000000000000000000000000000000000000000600052602260045260246000fd5b600060028204905060018216806151af57607f821691505b6020821081036151c2576151c1615168565b5b50919050565b60008190508160005260206000209050919050565b60006020601f8301049050919050565b600082821b905092915050565b60006008830261522a7fffffffffffffffffffffffffffffffffffffffffffffffffffffffffffffffff826151ed565b61523486836151ed565b95508019841693508086168417925050509392505050565b6000819050919050565b600061527161526c61526784613a6a565b61524c565b613a6a565b9050919050565b6000819050919050565b61528b83615256565b61529f61529782615278565b8484546151fa565b825550505050565b600090565b6152b46152a7565b6152bf818484615282565b505050565b5b818110156152e3576152d86000826152ac565b6001810190506152c5565b5050565b601f821115615328576152f9816151c8565b615302846151dd565b81016020851015615311578190505b61532561531d856151dd565b8301826152c4565b50505b505050565b600082821c905092915050565b600061534b6000198460080261532d565b1980831691505092915050565b6000615364838361533a565b9150826002028217905092915050565b61537d82614105565b67ffffffffffffffff81111561539657615395613b21565b5b6153a08254615197565b6153ab8282856152e7565b600060209050601f8311600181146153de57600084156153cc578287015190505b6153d68582615358565b86555061543e565b601f1984166153ec866151c8565b60005b82811015615414578489015182556001820191506020850194506020810190506153ef565b86831015615431578489015161542d601f89168261533a565b8355505b6001600288020188555050505b505050505050565b600082825260208201905092915050565b60006154628261482f565b61546c8185615446565b93506154778361484b565b8060005b838110156154a857815161548f888261485b565b975061549a83614873565b92505060018101905061547b565b5085935050505092915050565b60006040820190506154ca6000830185613a74565b81810360208301526154dc8184615457565b90509392505050565b7f496e76616c6964207061796d656e742074797065000000000000000000000000600082015250565b600061551b601483614f9d565b9150615526826154e5565b602082019050919050565b6000602082019050818103600083015261554a8161550e565b9050919050565b7f4e487b7100000000000000000000000000000000000000000000000000000000600052603260045260246000fd5b7f496e76616c69642070617469656e742049440000000000000000000000000000600082015250565b60006155b6601283614f9d565b91506155c182615580565b602082019050919050565b600060208201905081810360008301526155e5816155a9565b9050919050565b7f496e76616c69642062696c6c2049440000000000000000000000000000000000600082015250565b6000615622600f83614f9d565b915061562d826155ec565b602082019050919050565b6000602082019050818103600083015261565181615615565b9050919050565b7f4f6e6c792074686520686f73706974616c2063616e20706572666f726d20746860008201527f697320616374696f6e0000000000000000000000000000000000000000000000602082015250565b60006156b4602983614f9d565b91506156bf82615658565b604082019050919050565b600060208201905081810360008301526156e3816156a7565b9050919050565b60006156f582613a6a565b915061570083613a6a565b9250828201905080821115615718576157176150f1565b5b92915050565b7f4e487b7100000000000000000000000000000000000000000000000000000000600052601260045260246000fd5b600061575882613a6a565b915061576383613a6a565b9250826157735761577261571e565b5b828204905092915050565b60006060820190506157936000830186613a74565b6157a06020830185613a74565b6157ad6040830184613a74565b949350505050565b7f507265617574686f72697a6174696f6e206e6f7420617070726f766564000000600082015250565b60006157eb601d83614f9d565b91506157f6826157b5565b602082019050919050565b6000602082019050818103600083015261581a816157de565b9050919050565b7f506f6c69637920646f6573206e6f7420636f76657220636173686c657373207460008201527f726561746d656e74000000000000000000000000000000000000000000000000602082015250565b600061587d602883614f9d565b915061588882615821565b604082019050919050565b600060208201905081810360008301526158ac81615870565b9050919050565b60006158be82614105565b6158c88185614f9d565b93506158d8818560208601614121565b6158e181613b10565b840191505092915050565b60006040820190506159016000830185613a74565b818103602083015261591381846158b3565b90509392505050565b61592581613e51565b82525050565b60006040820190506159406000830185613a74565b61594d602083018461591c565b9392505050565b7f497420697320616c72656164792072656a656374656400000000000000000000600082015250565b600061598a601683614f9d565b915061599582615954565b602082019050919050565b600060208201905081810360008301526159b98161597d565b9050919050565b7f506c656173652053656c656374204f6e65205479706500000000000000000000600082015250565b60006159f6601683614f9d565b9150615a01826159c0565b602082019050919050565b60006020820190508181036000830152615a25816159e9565b9050919050565b7f507265617574686f72697a6174696f6e20616c72656164792070726f6365737360008201527f6564000000000000000000000000000000000000000000000000000000000000602082015250565b6000615a88602283614f9d565b9150615a9382615a2c565b604082019050919050565b60006020820190508181036000830152615ab781615a7b565b9050919050565b7f496e76616c696420686f73706974616c20494400000000000000000000000000600082015250565b6000615af4601383614f9d565b9150615aff82615abe565b602082019050919050565b60006020820190508181036000830152615b2381615ae7565b9050919050565b7f4f6e6c79207468652070617469656e742063616e20706572666f726d2074686960008201527f7320616374696f6e000000000000000000000000000000000000000000000000602082015250565b6000615b86602883614f9d565b9150615b9182615b2a565b604082019050919050565b60006020820190508181036000830152615bb581615b79565b9050919050565b7f496e737572616e636520436f6d70616e7920616c72656164792061737369676e60008201527f6564000000000000000000000000000000000000000000000000000000000000602082015250565b6000615c18602283614f9d565b9150615c2382615bbc565b604082019050919050565b60006020820190508181036000830152615c4781615c0b565b9050919050565b7f506f6c69637920646f6573206e6f7420636f766572207265696d62757273656d60008201527f656e7420636c61696d7300000000000000000000000000000000000000000000602082015250565b6000615caa602a83614f9d565b9150615cb582615c4e565b604082019050919050565b60006020820190508181036000830152615cd981615c9d565b9050919050565b7f436c61696d20616d6f756e742063616e6e6f742065786365656420746865206260008201527f696c6c20616d6f756e7400000000000000000000000000000000000000000000602082015250565b6000615d3c602a83614f9d565b9150615d4782615ce0565b604082019050919050565b60006020820190508181036000830152615d6b81615d2f565b9050919050565b6000615d7d82613a6a565b9150615d8883613a6a565b9250828202615d9681613a6a565b91508282048414831517615dad57615dac6150f1565b5b5092915050565b6000615dbf82613a6a565b9150615dca83613a6a565b9250828203905081811115615de257615de16150f1565b5b9291505056fea264697066735822122047ba86f75765d4b67caf1b23321e44c3b48ea61ae07f12d3835c81c3b885238b64736f6c63430008110033",
  "immutableReferences": {},
  "source": "// SPDX-License-Identifier: MIT\r\npragma solidity ^0.8.0;\r\n// pragma optimizer enabled;\r\npragma experimental ABIEncoderV2;\r\n\r\n\r\nimport {Cashless} from \"./Cashless.sol\";\r\nimport {Reimbursement} from \"./Reimbursement.sol\";\r\n\r\ncontract PatientManagementSystem is Cashless, Reimbursement{\r\n    enum PaymentType { CASHLESS, REIMBURSEMENT }\r\n\r\n    function calculateFinalAmount(\r\n        uint256 _patientId,\r\n        uint256 _billId,\r\n        uint256 _policyId,\r\n        uint256 _preauthorizationId,\r\n        PaymentType _paymentType\r\n    ) public view returns (uint256) {\r\n        if (_paymentType == PaymentType.CASHLESS) {\r\n            return calculateFinalClaimAmount(_patientId, _billId, _policyId, _preauthorizationId);\r\n        } else if (_paymentType == PaymentType.REIMBURSEMENT) {\r\n            return calculateFinalClaimAmountReimbursement(_patientId, _billId, _policyId);\r\n        }  else {\r\n            revert(\"Invalid payment type\");\r\n        }\r\n    }\r\n\r\n    function calculateFinalClaimAmount(uint256 _patientId, uint256 _billId, uint256 _policyId,uint256 _preauthorizationId) \r\n    public cashlessTreatment(_preauthorizationId) view returns (uint256) {\r\n        MedicalBill storage bill = medicalBills[_patientId][_billId];\r\n        uint256 originalBillAmount = bill.amount;\r\n        uint256 claimableAmount=0;\r\n\r\n        uint256 copayment = calculateCopayment(_policyId, originalBillAmount);\r\n        claimableAmount +=  copayment;\r\n\r\n        uint256 deductible = calculateDeductible(_policyId, originalBillAmount);\r\n        if (originalBillAmount > deductible) {\r\n            claimableAmount += deductible;\r\n        } else {\r\n            return 0; \r\n        }\r\n\r\n        string[] memory nonCoveredExpenses = new string[](3);\r\n        nonCoveredExpenses[0] = \"facelift\";\r\n        nonCoveredExpenses[1] = \"hairTransplant\";\r\n        nonCoveredExpenses[2] = \"alternativeTherapy\";\r\n\r\n        for (uint256 i = 0; i < nonCoveredExpenses.length; i++) {\r\n            if (isNonCoveredExpense(_policyId, nonCoveredExpenses[i])) {\r\n                return 0; \r\n            }\r\n        }\r\n\r\n        (bool sublimitsValid, uint256 sublimitsOff) = checkSublimits(_policyId, 0,0);\r\n        if(sublimitsValid){\r\n            claimableAmount += sublimitsOff; \r\n        } else {\r\n            return 0;\r\n        }\r\n\r\n        if(claimableAmount>20000){\r\n            return 10000;\r\n        }\r\n        else{\r\n            return claimableAmount;\r\n        }\r\n\r\n        \r\n    }        \r\n\r\n \r\n    function calculateFinalClaimAmountReimbursement(uint256 _patientId, uint256 _billId, uint256 _policyId) \r\n    public view returns (uint256) {\r\n        MedicalBill storage bill = medicalBills[_patientId][_billId];\r\n        uint256 originalBillAmount = bill.amount;\r\n        uint256 claimableAmount=0;\r\n\r\n        uint256 copayment = calculateCopayment(_policyId, originalBillAmount);\r\n        claimableAmount +=  copayment;\r\n\r\n        uint256 deductible = calculateDeductible(_policyId, originalBillAmount);\r\n        if (originalBillAmount > deductible) {\r\n            claimableAmount += deductible;\r\n        } else {\r\n            return 0; \r\n        }\r\n\r\n        string[] memory nonCoveredExpenses = new string[](3);\r\n        nonCoveredExpenses[0] = \"facelift\";\r\n        nonCoveredExpenses[1] = \"hairTransplant\";\r\n        nonCoveredExpenses[2] = \"alternativeTherapy\";\r\n\r\n        for (uint256 i = 0; i < nonCoveredExpenses.length; i++) {\r\n            if (isNonCoveredExpense(_policyId, nonCoveredExpenses[i])) {\r\n                return 0; \r\n            }\r\n        }\r\n\r\n        (bool sublimitsValid, uint256 sublimitsOff) = checkSublimits(_policyId, 0,0);\r\n        if(sublimitsValid){\r\n            claimableAmount += sublimitsOff; \r\n        } else {\r\n            return 0;\r\n        }\r\n\r\n        return claimableAmount;\r\n    }\r\n\r\n}",
  "sourcePath": "D:\\semester 6\\Block Chain\\Patient-Management-System-Decentralized-App\\contracts\\Patient_Management_System.sol",
  "compiler": {
    "name": "solc",
    "version": "0.8.17+commit.8df45f5f.Emscripten.clang"
  },
  "schemaVersion": "3.4.16",
  "updatedAt": "2024-05-21T09:11:34.174Z",
  "networkType": "ethereum",
  "devdoc": {
    "kind": "dev",
    "methods": {},
    "version": 1
  },
  "userdoc": {
    "kind": "user",
    "methods": {},
    "version": 1
  }
}