{
  "contractName": "Reimbursement",
  "abi": [
    {
      "anonymous": false,
      "inputs": [
        {
          "indexed": false,
          "internalType": "uint256",
          "name": "billId",
          "type": "uint256"
        },
        {
          "indexed": false,
          "internalType": "uint256",
          "name": "patientId",
          "type": "uint256"
        },
        {
          "indexed": false,
          "internalType": "uint256",
          "name": "amount",
          "type": "uint256"
        }
      ],
      "name": "BillGenerated",
      "type": "event"
    },
    {
      "anonymous": false,
      "inputs": [
        {
          "indexed": false,
          "internalType": "uint256",
          "name": "hospitalId",
          "type": "uint256"
        },
        {
          "indexed": false,
          "internalType": "address",
          "name": "hospitalAddress",
          "type": "address"
        }
      ],
      "name": "HospitalRegistered",
      "type": "event"
    },
    {
      "anonymous": false,
      "inputs": [
        {
          "indexed": false,
          "internalType": "uint256",
          "name": "patientId",
          "type": "uint256"
        },
        {
          "indexed": false,
          "internalType": "address",
          "name": "insuranceCompany",
          "type": "address"
        }
      ],
      "name": "InsuranceCompanyAssigned",
      "type": "event"
    },
    {
      "anonymous": false,
      "inputs": [
        {
          "indexed": false,
          "internalType": "uint256",
          "name": "insuranceCompanyId",
          "type": "uint256"
        },
        {
          "indexed": false,
          "internalType": "uint256[]",
          "name": "networkHospitals",
          "type": "uint256[]"
        }
      ],
      "name": "InsuranceCompanyRegistered",
      "type": "event"
    },
    {
      "anonymous": false,
      "inputs": [
        {
          "indexed": false,
          "internalType": "uint256",
          "name": "patientId",
          "type": "uint256"
        },
        {
          "indexed": false,
          "internalType": "string",
          "name": "name",
          "type": "string"
        }
      ],
      "name": "PatientRegistered",
      "type": "event"
    },
    {
      "anonymous": false,
      "inputs": [
        {
          "indexed": false,
          "internalType": "uint256",
          "name": "policyId",
          "type": "uint256"
        },
        {
          "indexed": false,
          "internalType": "string",
          "name": "description",
          "type": "string"
        }
      ],
      "name": "PolicyCreated",
      "type": "event"
    },
    {
      "anonymous": false,
      "inputs": [
        {
          "indexed": false,
          "internalType": "uint256",
          "name": "claimId",
          "type": "uint256"
        },
        {
          "indexed": false,
          "internalType": "uint256",
          "name": "patientId",
          "type": "uint256"
        },
        {
          "indexed": false,
          "internalType": "uint256",
          "name": "billId",
          "type": "uint256"
        },
        {
          "indexed": false,
          "internalType": "uint256",
          "name": "claimAmount",
          "type": "uint256"
        }
      ],
      "name": "ReimbursementClaimSettled",
      "type": "event"
    },
    {
      "anonymous": false,
      "inputs": [
        {
          "indexed": false,
          "internalType": "uint256",
          "name": "claimId",
          "type": "uint256"
        },
        {
          "indexed": false,
          "internalType": "uint256",
          "name": "patientId",
          "type": "uint256"
        },
        {
          "indexed": false,
          "internalType": "uint256",
          "name": "billId",
          "type": "uint256"
        },
        {
          "indexed": false,
          "internalType": "uint256",
          "name": "claimAmount",
          "type": "uint256"
        }
      ],
      "name": "ReimbursementClaimSubmitted",
      "type": "event"
    },
    {
      "inputs": [
        {
          "internalType": "uint256",
          "name": "_patientId",
          "type": "uint256"
        },
        {
          "internalType": "uint256",
          "name": "billId",
          "type": "uint256"
        },
        {
          "internalType": "address",
          "name": "_insuranceCompany",
          "type": "address"
        }
      ],
      "name": "assignInsuranceCompanyForMedicalBill",
      "outputs": [],
      "stateMutability": "nonpayable",
      "type": "function"
    },
    {
      "inputs": [
        {
          "internalType": "uint256",
          "name": "_patientId",
          "type": "uint256"
        },
        {
          "internalType": "address",
          "name": "_insuranceCompany",
          "type": "address"
        },
        {
          "internalType": "uint256",
          "name": "_policyId",
          "type": "uint256"
        }
      ],
      "name": "assignInsurancePolicy",
      "outputs": [],
      "stateMutability": "nonpayable",
      "type": "function"
    },
    {
      "inputs": [
        {
          "internalType": "uint256",
          "name": "",
          "type": "uint256"
        }
      ],
      "name": "billCounters",
      "outputs": [
        {
          "internalType": "uint256",
          "name": "",
          "type": "uint256"
        }
      ],
      "stateMutability": "view",
      "type": "function",
      "constant": true
    },
    {
      "inputs": [
        {
          "internalType": "uint256",
          "name": "_patientId",
          "type": "uint256"
        },
        {
          "internalType": "string",
          "name": "_details",
          "type": "string"
        },
        {
          "internalType": "uint256",
          "name": "_amount",
          "type": "uint256"
        },
        {
          "internalType": "uint256",
          "name": "_hospitalId",
          "type": "uint256"
        }
      ],
      "name": "createMedicalBill",
      "outputs": [],
      "stateMutability": "nonpayable",
      "type": "function"
    },
    {
      "inputs": [
        {
          "internalType": "string",
          "name": "_description",
          "type": "string"
        },
        {
          "internalType": "address",
          "name": "_insuranceCompany",
          "type": "address"
        },
        {
          "internalType": "bool",
          "name": "_isPolicyCashless",
          "type": "bool"
        },
        {
          "internalType": "bool",
          "name": "_isPolicyReimbursement",
          "type": "bool"
        },
        {
          "internalType": "uint256",
          "name": "_sumAssured",
          "type": "uint256"
        },
        {
          "components": [
            {
              "internalType": "uint256",
              "name": "annual",
              "type": "uint256"
            },
            {
              "internalType": "uint256",
              "name": "perInstance",
              "type": "uint256"
            }
          ],
          "internalType": "struct MainStructure.Deductible",
          "name": "_deductible",
          "type": "tuple"
        },
        {
          "components": [
            {
              "internalType": "uint256",
              "name": "fixedCharge",
              "type": "uint256"
            },
            {
              "internalType": "uint256",
              "name": "percentageCharge",
              "type": "uint256"
            }
          ],
          "internalType": "struct MainStructure.Copayment",
          "name": "_copayment",
          "type": "tuple"
        },
        {
          "components": [
            {
              "internalType": "bool",
              "name": "facelift",
              "type": "bool"
            },
            {
              "internalType": "bool",
              "name": "hairTransplant",
              "type": "bool"
            },
            {
              "internalType": "bool",
              "name": "alternativeTherapy",
              "type": "bool"
            }
          ],
          "internalType": "struct MainStructure.NoncoveredExpense",
          "name": "_noncoveredExpense",
          "type": "tuple"
        },
        {
          "components": [
            {
              "internalType": "uint256",
              "name": "roomRentLimit",
              "type": "uint256"
            },
            {
              "internalType": "uint256",
              "name": "surgeryLimit",
              "type": "uint256"
            }
          ],
          "internalType": "struct MainStructure.Sublimit",
          "name": "_sublimit",
          "type": "tuple"
        }
      ],
      "name": "createPolicy",
      "outputs": [],
      "stateMutability": "nonpayable",
      "type": "function"
    },
    {
      "inputs": [
        {
          "internalType": "uint256",
          "name": "_patientId",
          "type": "uint256"
        }
      ],
      "name": "getAllMedicalBillByPatientId",
      "outputs": [
        {
          "components": [
            {
              "internalType": "uint256",
              "name": "billId",
              "type": "uint256"
            },
            {
              "internalType": "uint256",
              "name": "patientId",
              "type": "uint256"
            },
            {
              "internalType": "address",
              "name": "assignedInsuranceCompany",
              "type": "address"
            },
            {
              "internalType": "string",
              "name": "details",
              "type": "string"
            },
            {
              "internalType": "uint256",
              "name": "timestamp",
              "type": "uint256"
            },
            {
              "internalType": "uint256",
              "name": "treatmentDate",
              "type": "uint256"
            },
            {
              "internalType": "uint256",
              "name": "amount",
              "type": "uint256"
            }
          ],
          "internalType": "struct MainStructure.MedicalBill[]",
          "name": "",
          "type": "tuple[]"
        }
      ],
      "stateMutability": "view",
      "type": "function",
      "constant": true
    },
    {
      "inputs": [
        {
          "internalType": "uint256",
          "name": "_hospitalId",
          "type": "uint256"
        }
      ],
      "name": "getAllPatientsByHospital",
      "outputs": [
        {
          "components": [
            {
              "internalType": "uint256",
              "name": "patientId",
              "type": "uint256"
            },
            {
              "internalType": "string",
              "name": "name",
              "type": "string"
            },
            {
              "internalType": "uint256",
              "name": "age",
              "type": "uint256"
            },
            {
              "internalType": "string",
              "name": "otherDetails",
              "type": "string"
            },
            {
              "internalType": "address",
              "name": "patientAddress",
              "type": "address"
            },
            {
              "internalType": "uint256",
              "name": "hospitalId",
              "type": "uint256"
            },
            {
              "internalType": "uint256[]",
              "name": "billIds",
              "type": "uint256[]"
            }
          ],
          "internalType": "struct MainStructure.Patient[]",
          "name": "",
          "type": "tuple[]"
        }
      ],
      "stateMutability": "view",
      "type": "function",
      "constant": true
    },
    {
      "inputs": [
        {
          "internalType": "address",
          "name": "_insuranceCompanyAddress",
          "type": "address"
        }
      ],
      "name": "getPoliciesByInsuranceCompany",
      "outputs": [
        {
          "components": [
            {
              "internalType": "uint256",
              "name": "policyId",
              "type": "uint256"
            },
            {
              "internalType": "string",
              "name": "description",
              "type": "string"
            },
            {
              "internalType": "address",
              "name": "insuranceCompany",
              "type": "address"
            },
            {
              "internalType": "enum MainStructure.PolicyType",
              "name": "policyType",
              "type": "uint8"
            },
            {
              "internalType": "uint256",
              "name": "sumAssured",
              "type": "uint256"
            },
            {
              "components": [
                {
                  "internalType": "uint256",
                  "name": "annual",
                  "type": "uint256"
                },
                {
                  "internalType": "uint256",
                  "name": "perInstance",
                  "type": "uint256"
                }
              ],
              "internalType": "struct MainStructure.Deductible",
              "name": "deductible",
              "type": "tuple"
            },
            {
              "components": [
                {
                  "internalType": "uint256",
                  "name": "fixedCharge",
                  "type": "uint256"
                },
                {
                  "internalType": "uint256",
                  "name": "percentageCharge",
                  "type": "uint256"
                }
              ],
              "internalType": "struct MainStructure.Copayment",
              "name": "copayment",
              "type": "tuple"
            },
            {
              "components": [
                {
                  "internalType": "bool",
                  "name": "facelift",
                  "type": "bool"
                },
                {
                  "internalType": "bool",
                  "name": "hairTransplant",
                  "type": "bool"
                },
                {
                  "internalType": "bool",
                  "name": "alternativeTherapy",
                  "type": "bool"
                }
              ],
              "internalType": "struct MainStructure.NoncoveredExpense",
              "name": "noncoveredExpense",
              "type": "tuple"
            },
            {
              "components": [
                {
                  "internalType": "uint256",
                  "name": "roomRentLimit",
                  "type": "uint256"
                },
                {
                  "internalType": "uint256",
                  "name": "surgeryLimit",
                  "type": "uint256"
                }
              ],
              "internalType": "struct MainStructure.Sublimit",
              "name": "sublimit",
              "type": "tuple"
            }
          ],
          "internalType": "struct MainStructure.Policy[]",
          "name": "",
          "type": "tuple[]"
        }
      ],
      "stateMutability": "view",
      "type": "function",
      "constant": true
    },
    {
      "inputs": [
        {
          "internalType": "uint256",
          "name": "_patientId",
          "type": "uint256"
        },
        {
          "internalType": "uint256",
          "name": "_billId",
          "type": "uint256"
        }
      ],
      "name": "getSingleMedicalBill",
      "outputs": [
        {
          "components": [
            {
              "internalType": "uint256",
              "name": "billId",
              "type": "uint256"
            },
            {
              "internalType": "uint256",
              "name": "patientId",
              "type": "uint256"
            },
            {
              "internalType": "address",
              "name": "assignedInsuranceCompany",
              "type": "address"
            },
            {
              "internalType": "string",
              "name": "details",
              "type": "string"
            },
            {
              "internalType": "uint256",
              "name": "timestamp",
              "type": "uint256"
            },
            {
              "internalType": "uint256",
              "name": "treatmentDate",
              "type": "uint256"
            },
            {
              "internalType": "uint256",
              "name": "amount",
              "type": "uint256"
            }
          ],
          "internalType": "struct MainStructure.MedicalBill",
          "name": "",
          "type": "tuple"
        }
      ],
      "stateMutability": "view",
      "type": "function",
      "constant": true
    },
    {
      "inputs": [],
      "name": "hospitalCount",
      "outputs": [
        {
          "internalType": "uint256",
          "name": "",
          "type": "uint256"
        }
      ],
      "stateMutability": "view",
      "type": "function",
      "constant": true
    },
    {
      "inputs": [],
      "name": "insuranceCompanyCount",
      "outputs": [
        {
          "internalType": "uint256",
          "name": "",
          "type": "uint256"
        }
      ],
      "stateMutability": "view",
      "type": "function",
      "constant": true
    },
    {
      "inputs": [],
      "name": "patientCount",
      "outputs": [
        {
          "internalType": "uint256",
          "name": "",
          "type": "uint256"
        }
      ],
      "stateMutability": "view",
      "type": "function",
      "constant": true
    },
    {
      "inputs": [],
      "name": "policyCount",
      "outputs": [
        {
          "internalType": "uint256",
          "name": "",
          "type": "uint256"
        }
      ],
      "stateMutability": "view",
      "type": "function",
      "constant": true
    },
    {
      "inputs": [],
      "name": "preauthorizationCount",
      "outputs": [
        {
          "internalType": "uint256",
          "name": "",
          "type": "uint256"
        }
      ],
      "stateMutability": "view",
      "type": "function",
      "constant": true
    },
    {
      "inputs": [
        {
          "internalType": "string",
          "name": "_hospitalName",
          "type": "string"
        },
        {
          "internalType": "string[]",
          "name": "_doctorList",
          "type": "string[]"
        }
      ],
      "name": "registerHospital",
      "outputs": [],
      "stateMutability": "nonpayable",
      "type": "function"
    },
    {
      "inputs": [
        {
          "internalType": "uint256[]",
          "name": "_networkHospitals",
          "type": "uint256[]"
        },
        {
          "internalType": "string",
          "name": "_details",
          "type": "string"
        }
      ],
      "name": "registerInsuranceCompany",
      "outputs": [],
      "stateMutability": "nonpayable",
      "type": "function"
    },
    {
      "inputs": [
        {
          "internalType": "uint256",
          "name": "_hospitalId",
          "type": "uint256"
        },
        {
          "internalType": "string",
          "name": "_name",
          "type": "string"
        },
        {
          "internalType": "uint256",
          "name": "_age",
          "type": "uint256"
        },
        {
          "internalType": "string",
          "name": "_otherDetails",
          "type": "string"
        },
        {
          "internalType": "address",
          "name": "_patientAddress",
          "type": "address"
        }
      ],
      "name": "registerPatient",
      "outputs": [],
      "stateMutability": "nonpayable",
      "type": "function"
    },
    {
      "inputs": [],
      "name": "reimbursementClaimCount",
      "outputs": [
        {
          "internalType": "uint256",
          "name": "",
          "type": "uint256"
        }
      ],
      "stateMutability": "view",
      "type": "function",
      "constant": true
    },
    {
      "inputs": [
        {
          "internalType": "uint256",
          "name": "_patientId",
          "type": "uint256"
        },
        {
          "internalType": "uint256",
          "name": "_billId",
          "type": "uint256"
        },
        {
          "internalType": "uint256",
          "name": "_claimAmount",
          "type": "uint256"
        },
        {
          "internalType": "address",
          "name": "_insuranceCompanyAddress",
          "type": "address"
        }
      ],
      "name": "submitReimbursementClaim",
      "outputs": [],
      "stateMutability": "nonpayable",
      "type": "function"
    },
    {
      "inputs": [
        {
          "internalType": "uint256",
          "name": "_claimId",
          "type": "uint256"
        }
      ],
      "name": "settleReimbursementClaim",
      "outputs": [],
      "stateMutability": "nonpayable",
      "type": "function"
    }
  ],
  "bytecode": "0x608060405234801561001057600080fd5b506143c0806100206000396000f3fe608060405234801561001057600080fd5b506004361061012c5760003560e01c8063a5e6e51d116100ad578063f2b650d011610071578063f2b650d014610309578063f4300c3e14610339578063f535befb14610355578063f974fdd814610385578063fc941bbd146103a15761012c565b8063a5e6e51d14610267578063ac12aaaa14610283578063c44a92771461029f578063de54d429146102bb578063ea1b22be146102d95761012c565b806341f9fbba116100f457806341f9fbba146101c35780634c53b9df146101f357806358b799461461020f5780638f413b191461022b578063a0303c41146102495761012c565b80630419179314610131578063044554191461014f578063134e24b51461016d57806315a3f26214610189578063350dadb7146101a5575b600080fd5b6101396103d1565b6040516101469190612619565b60405180910390f35b6101576103d7565b6040516101649190612619565b60405180910390f35b61018760048036038101906101829190612674565b6103dd565b005b6101a3600480360381019061019e91906128af565b610568565b005b6101ad610694565b6040516101ba9190612619565b60405180910390f35b6101dd60048036038101906101d89190612927565b61069a565b6040516101ea9190612ad2565b60405180910390f35b61020d60048036038101906102089190612b20565b6108b9565b005b61022960048036038101906102249190612b73565b610913565b005b610233610b92565b6040516102409190612619565b60405180910390f35b610251610b98565b60405161025e9190612619565b60405180910390f35b610281600480360381019061027c9190612bf6565b610b9e565b005b61029d60048036038101906102989190612d8a565b610df7565b005b6102b960048036038101906102b49190612f93565b610f22565b005b6102c3611266565b6040516102d09190612619565b60405180910390f35b6102f360048036038101906102ee9190612674565b61126c565b6040516103009190613295565b60405180910390f35b610323600480360381019061031e9190612674565b6115f0565b6040516103309190612619565b60405180910390f35b610353600480360381019061034e91906132b7565b611608565b005b61036f600480360381019061036a919061330a565b61180d565b60405161037c9190613614565b60405180910390f35b61039f600480360381019061039a9190613636565b611bfd565b005b6103bb60048036038101906103b69190612674565b612072565b6040516103c891906137fb565b60405180910390f35b600b5481565b60085481565b600c600082815260200190815260200160002060050160019054906101000a900473ffffffffffffffffffffffffffffffffffffffff168073ffffffffffffffffffffffffffffffffffffffff163373ffffffffffffffffffffffffffffffffffffffff1614610482576040517f08c379a0000000000000000000000000000000000000000000000000000000008152600401610479906138a0565b60405180910390fd5b600c600083815260200190815260200160002060050160009054906101000a900460ff16156104e6576040517f08c379a00000000000000000000000000000000000000000000000000000000081526004016104dd9061390c565b60405180910390fd5b6000600c6000848152602001908152602001600020905060018160050160006101000a81548160ff0219169083151502179055507f97975cfa1abf3cca6a70f79bc9433ba2a6064ca345ffae03892cefbc37795aac8382600101548360020154846003015460405161055b949392919061392c565b60405180910390a1505050565b6008600081548092919061057b906139a0565b9190505550604051806080016040528060085481526020018381526020018281526020013373ffffffffffffffffffffffffffffffffffffffff168152506001600060085481526020019081526020016000206000820151816000015560208201518160010190805190602001906105f4929190612332565b50604082015181600201908161060a9190613bf4565b5060608201518160030160006101000a81548173ffffffffffffffffffffffffffffffffffffffff021916908373ffffffffffffffffffffffffffffffffffffffff1602179055509050507fe77c8f37e34b74b41e1166c293f6133d1504890d12bb06d801af627515495cf360085483604051610688929190613d35565b60405180910390a15050565b60075481565b6106a261237f565b6000831180156106b45750600a548311155b6106f3576040517f08c379a00000000000000000000000000000000000000000000000000000000081526004016106ea90613db1565b60405180910390fd5b60008211801561072957508160056000858152602001908152602001600020600084815260200190815260200160002060000154145b610768576040517f08c379a000000000000000000000000000000000000000000000000000000000815260040161075f90613e1d565b60405180910390fd5b6005600084815260200190815260200160002060008381526020019081526020016000206040518060e001604052908160008201548152602001600182015481526020016002820160009054906101000a900473ffffffffffffffffffffffffffffffffffffffff1673ffffffffffffffffffffffffffffffffffffffff1673ffffffffffffffffffffffffffffffffffffffff16815260200160038201805461081190613a17565b80601f016020809104026020016040519081016040528092919081815260200182805461083d90613a17565b801561088a5780601f1061085f5761010080835404028352916020019161088a565b820191906000526020600020905b81548152906001019060200180831161086d57829003601f168201915b505050505081526020016004820154815260200160058201548152602001600682015481525050905092915050565b806006600085815260200190815260200160002060008473ffffffffffffffffffffffffffffffffffffffff1673ffffffffffffffffffffffffffffffffffffffff16815260200190815260200160002081905550505050565b8060008082815260200190815260200160002060010160009054906101000a900473ffffffffffffffffffffffffffffffffffffffff1673ffffffffffffffffffffffffffffffffffffffff163373ffffffffffffffffffffffffffffffffffffffff16146109b7576040517f08c379a00000000000000000000000000000000000000000000000000000000081526004016109ae90613eaf565b60405180910390fd5b6000600160046000888152602001908152602001600020546109d99190613ecf565b90506004600087815260200190815260200160002060008154809291906109ff906139a0565b9190505550600360008781526020019081526020016000206006018190806001815401808255809150506001900390600052602060002001600090919091909150556040518060e00160405280878152602001828152602001600073ffffffffffffffffffffffffffffffffffffffff1681526020018681526020014281526020016201518042610a909190613f32565b815260200185815250600560008881526020019081526020016000206000838152602001908152602001600020600082015181600001556020820151816001015560408201518160020160006101000a81548173ffffffffffffffffffffffffffffffffffffffff021916908373ffffffffffffffffffffffffffffffffffffffff1602179055506060820151816003019081610b2d9190613bf4565b506080820151816004015560a0820151816005015560c082015181600601559050507f6746258bd4dc3961de3bd0fef53a987639aae292ced878d1044663960b5b3e59818786604051610b8293929190613f63565b60405180910390a1505050505050565b600d5481565b600a5481565b8460008082815260200190815260200160002060010160009054906101000a900473ffffffffffffffffffffffffffffffffffffffff1673ffffffffffffffffffffffffffffffffffffffff163373ffffffffffffffffffffffffffffffffffffffff1614610c42576040517f08c379a0000000000000000000000000000000000000000000000000000000008152600401610c3990613eaf565b60405180910390fd5b600a6000815480929190610c55906139a0565b91905055506040518060e00160405280600a5481526020018681526020018581526020018481526020018373ffffffffffffffffffffffffffffffffffffffff168152602001878152602001600067ffffffffffffffff811115610cbc57610cbb6126b7565b5b604051908082528060200260200182016040528015610cea5781602001602082028036833780820191505090505b5081525060036000600a548152602001908152602001600020600082015181600001556020820151816001019081610d229190613bf4565b50604082015181600201556060820151816003019081610d429190613bf4565b5060808201518160040160006101000a81548173ffffffffffffffffffffffffffffffffffffffff021916908373ffffffffffffffffffffffffffffffffffffffff16021790555060a0820151816005015560c0820151816006019080519060200190610db0929190612332565b509050507f6c19f22d83a1ce20713b4c747e3a78c3036498ced71d283c697d587033783bd0600a5486604051610de7929190613fd3565b60405180910390a1505050505050565b60076000815480929190610e0a906139a0565b9190505550604051806080016040528060075481526020013373ffffffffffffffffffffffffffffffffffffffff1681526020018381526020018281525060008060075481526020019081526020016000206000820151816000015560208201518160010160006101000a81548173ffffffffffffffffffffffffffffffffffffffff021916908373ffffffffffffffffffffffffffffffffffffffff1602179055506040820151816002019081610ec29190613bf4565b506060820151816003019080519060200190610edf9291906123d2565b509050507fa1fd3231f7912e48ffbf52db08250262416750cd0c9618106dd67eee527a1f0260075433604051610f16929190614012565b60405180910390a15050565b878073ffffffffffffffffffffffffffffffffffffffff163373ffffffffffffffffffffffffffffffffffffffff1614610f91576040517f08c379a0000000000000000000000000000000000000000000000000000000008152600401610f88906138a0565b60405180910390fd5b60096000815480929190610fa4906139a0565b91905055506000801515891515148015610fc2575060001515881515145b15611002576040517f08c379a0000000000000000000000000000000000000000000000000000000008152600401610ff990614087565b60405180910390fd5b60011515891515036110175760009050611032565b600115158815150361102c5760019050611031565b600290505b5b60405180610120016040528060095481526020018c81526020018b73ffffffffffffffffffffffffffffffffffffffff16815260200182600281111561107b5761107a613363565b5b8152602001888152602001878152602001868152602001858152602001848152506002600060095481526020019081526020016000206000820151816000015560208201518160010190816110d09190613bf4565b5060408201518160020160006101000a81548173ffffffffffffffffffffffffffffffffffffffff021916908373ffffffffffffffffffffffffffffffffffffffff16021790555060608201518160020160146101000a81548160ff0219169083600281111561114357611142613363565b5b02179055506080820151816003015560a0820151816004016000820151816000015560208201518160010155505060c0820151816006016000820151816000015560208201518160010155505060e08201518160080160008201518160000160006101000a81548160ff02191690831515021790555060208201518160000160016101000a81548160ff02191690831515021790555060408201518160000160026101000a81548160ff021916908315150217905550505061010082015181600901600082015181600001556020820151816001015550509050507f80968e0cf0f9fbad1f441d6bcbc63de0fe2c2a21dcbd37b22b46e61c7695031f6009548c604051611251929190613fd3565b60405180910390a15050505050505050505050565b60095481565b606060008211801561128057506007548211155b6112bf576040517f08c379a00000000000000000000000000000000000000000000000000000000081526004016112b6906140f3565b60405180910390fd5b600080600190505b600a54811161130f57836003600083815260200190815260200160002060050154036112fc5781806112f8906139a0565b9250505b8080611307906139a0565b9150506112c7565b5060008167ffffffffffffffff81111561132c5761132b6126b7565b5b60405190808252806020026020018201604052801561136557816020015b61135261242b565b81526020019060019003908161134a5790505b509050600080600190505b600a5481116115e457856003600083815260200190815260200160002060050154036115d157600360008281526020019081526020016000206040518060e0016040529081600082015481526020016001820180546113ce90613a17565b80601f01602080910402602001604051908101604052809291908181526020018280546113fa90613a17565b80156114475780601f1061141c57610100808354040283529160200191611447565b820191906000526020600020905b81548152906001019060200180831161142a57829003601f168201915b505050505081526020016002820154815260200160038201805461146a90613a17565b80601f016020809104026020016040519081016040528092919081815260200182805461149690613a17565b80156114e35780601f106114b8576101008083540402835291602001916114e3565b820191906000526020600020905b8154815290600101906020018083116114c657829003601f168201915b505050505081526020016004820160009054906101000a900473ffffffffffffffffffffffffffffffffffffffff1673ffffffffffffffffffffffffffffffffffffffff1673ffffffffffffffffffffffffffffffffffffffff168152602001600582015481526020016006820180548060200260200160405190810160405280929190818152602001828054801561159b57602002820191906000526020600020905b815481526020019060010190808311611587575b5050505050815250508383815181106115b7576115b6614113565b5b602002602001018190525081806115cd906139a0565b9250505b80806115dc906139a0565b915050611370565b50819350505050919050565b60046020528060005260406000206000915090505481565b826003600082815260200190815260200160002060040160009054906101000a900473ffffffffffffffffffffffffffffffffffffffff1673ffffffffffffffffffffffffffffffffffffffff163373ffffffffffffffffffffffffffffffffffffffff16146116ad576040517f08c379a00000000000000000000000000000000000000000000000000000000081526004016116a4906141b4565b60405180910390fd5b600073ffffffffffffffffffffffffffffffffffffffff1660056000868152602001908152602001600020600085815260200190815260200160002060020160009054906101000a900473ffffffffffffffffffffffffffffffffffffffff1673ffffffffffffffffffffffffffffffffffffffff16036117cc578160056000868152602001908152602001600020600085815260200190815260200160002060020160006101000a81548173ffffffffffffffffffffffffffffffffffffffff021916908373ffffffffffffffffffffffffffffffffffffffff1602179055507fe8dfa1000a377c1be6687e0c2f30a28b8ab10bc929a3272894b169f3385dea8b84836040516117bf929190614012565b60405180910390a1611807565b6040517f08c379a00000000000000000000000000000000000000000000000000000000081526004016117fe90614246565b60405180910390fd5b50505050565b6060600080600190505b60095481116118ab578373ffffffffffffffffffffffffffffffffffffffff166002600083815260200190815260200160002060020160009054906101000a900473ffffffffffffffffffffffffffffffffffffffff1673ffffffffffffffffffffffffffffffffffffffff1603611898578180611894906139a0565b9250505b80806118a3906139a0565b915050611817565b5060008167ffffffffffffffff8111156118c8576118c76126b7565b5b60405190808252806020026020018201604052801561190157816020015b6118ee61247e565b8152602001906001900390816118e65790505b509050600080600190505b6009548111611bf1578573ffffffffffffffffffffffffffffffffffffffff166002600083815260200190815260200160002060020160009054906101000a900473ffffffffffffffffffffffffffffffffffffffff1673ffffffffffffffffffffffffffffffffffffffff1603611bde576002600082815260200190815260200160002060405180610120016040529081600082015481526020016001820180546119b790613a17565b80601f01602080910402602001604051908101604052809291908181526020018280546119e390613a17565b8015611a305780601f10611a0557610100808354040283529160200191611a30565b820191906000526020600020905b815481529060010190602001808311611a1357829003601f168201915b505050505081526020016002820160009054906101000a900473ffffffffffffffffffffffffffffffffffffffff1673ffffffffffffffffffffffffffffffffffffffff1673ffffffffffffffffffffffffffffffffffffffff1681526020016002820160149054906101000a900460ff166002811115611ab457611ab3613363565b5b6002811115611ac657611ac5613363565b5b8152602001600382015481526020016004820160405180604001604052908160008201548152602001600182015481525050815260200160068201604051806040016040529081600082015481526020016001820154815250508152602001600882016040518060600160405290816000820160009054906101000a900460ff161515151581526020016000820160019054906101000a900460ff161515151581526020016000820160029054906101000a900460ff1615151515815250508152602001600982016040518060400160405290816000820154815260200160018201548152505081525050838381518110611bc457611bc3614113565b5b60200260200101819052508180611bda906139a0565b9250505b8080611be9906139a0565b91505061190c565b50819350505050919050565b836003600082815260200190815260200160002060040160009054906101000a900473ffffffffffffffffffffffffffffffffffffffff1673ffffffffffffffffffffffffffffffffffffffff163373ffffffffffffffffffffffffffffffffffffffff1614611ca2576040517f08c379a0000000000000000000000000000000000000000000000000000000008152600401611c99906141b4565b60405180910390fd5b60016002811115611cb657611cb5613363565b5b60026000600660008981526020019081526020016000206000600560008b815260200190815260200160002060008a815260200190815260200160002060020160009054906101000a900473ffffffffffffffffffffffffffffffffffffffff1673ffffffffffffffffffffffffffffffffffffffff1673ffffffffffffffffffffffffffffffffffffffff16815260200190815260200160002054815260200190815260200160002060020160149054906101000a900460ff166002811115611d8357611d82613363565b5b1480611e6c5750600280811115611d9d57611d9c613363565b5b60026000600660008981526020019081526020016000206000600560008b815260200190815260200160002060008a815260200190815260200160002060020160009054906101000a900473ffffffffffffffffffffffffffffffffffffffff1673ffffffffffffffffffffffffffffffffffffffff1673ffffffffffffffffffffffffffffffffffffffff16815260200190815260200160002054815260200190815260200160002060020160149054906101000a900460ff166002811115611e6a57611e69613363565b5b145b611eab576040517f08c379a0000000000000000000000000000000000000000000000000000000008152600401611ea2906142d8565b60405180910390fd5b60056000868152602001908152602001600020600085815260200190815260200160002060060154831115611f15576040517f08c379a0000000000000000000000000000000000000000000000000000000008152600401611f0c9061436a565b60405180910390fd5b600d6000815480929190611f28906139a0565b91905055506040518060e00160405280600d5481526020018681526020018581526020018481526020014281526020016000151581526020018373ffffffffffffffffffffffffffffffffffffffff16815250600c6000600d548152602001908152602001600020600082015181600001556020820151816001015560408201518160020155606082015181600301556080820151816004015560a08201518160050160006101000a81548160ff02191690831515021790555060c08201518160050160016101000a81548173ffffffffffffffffffffffffffffffffffffffff021916908373ffffffffffffffffffffffffffffffffffffffff1602179055509050507fb7448a3b47b0818412226c6ea5ac14898a5b645d67fcaeba16c897f88a5dd191600d54868686604051612063949392919061392c565b60405180910390a15050505050565b60606000821180156120865750600a548211155b6120c5576040517f08c379a00000000000000000000000000000000000000000000000000000000081526004016120bc90613db1565b60405180910390fd5b60006003600084815260200190815260200160002060060180548060200260200160405190810160405280929190818152602001828054801561212757602002820191906000526020600020905b815481526020019060010190808311612113575b505050505090506000815167ffffffffffffffff81111561214b5761214a6126b7565b5b60405190808252806020026020018201604052801561218457816020015b61217161237f565b8152602001906001900390816121695790505b50905060005b8251811015612327576005600086815260200190815260200160002060008483815181106121bb576121ba614113565b5b602002602001015181526020019081526020016000206040518060e001604052908160008201548152602001600182015481526020016002820160009054906101000a900473ffffffffffffffffffffffffffffffffffffffff1673ffffffffffffffffffffffffffffffffffffffff1673ffffffffffffffffffffffffffffffffffffffff16815260200160038201805461225690613a17565b80601f016020809104026020016040519081016040528092919081815260200182805461228290613a17565b80156122cf5780601f106122a4576101008083540402835291602001916122cf565b820191906000526020600020905b8154815290600101906020018083116122b257829003601f168201915b50505050508152602001600482015481526020016005820154815260200160068201548152505082828151811061230957612308614113565b5b6020026020010181905250808061231f906139a0565b91505061218a565b508092505050919050565b82805482825590600052602060002090810192821561236e579160200282015b8281111561236d578251825591602001919060010190612352565b5b50905061237b919061250a565b5090565b6040518060e001604052806000815260200160008152602001600073ffffffffffffffffffffffffffffffffffffffff168152602001606081526020016000815260200160008152602001600081525090565b82805482825590600052602060002090810192821561241a579160200282015b828111156124195782518290816124099190613bf4565b50916020019190600101906123f2565b5b5090506124279190612527565b5090565b6040518060e0016040528060008152602001606081526020016000815260200160608152602001600073ffffffffffffffffffffffffffffffffffffffff16815260200160008152602001606081525090565b6040518061012001604052806000815260200160608152602001600073ffffffffffffffffffffffffffffffffffffffff168152602001600060028111156124c9576124c8613363565b5b8152602001600081526020016124dd61254b565b81526020016124ea612565565b81526020016124f761257f565b81526020016125046125a6565b81525090565b5b8082111561252357600081600090555060010161250b565b5090565b5b80821115612547576000818161253e91906125c0565b50600101612528565b5090565b604051806040016040528060008152602001600081525090565b604051806040016040528060008152602001600081525090565b60405180606001604052806000151581526020016000151581526020016000151581525090565b604051806040016040528060008152602001600081525090565b5080546125cc90613a17565b6000825580601f106125de57506125fd565b601f0160209004906000526020600020908101906125fc919061250a565b5b50565b6000819050919050565b61261381612600565b82525050565b600060208201905061262e600083018461260a565b92915050565b6000604051905090565b600080fd5b600080fd5b61265181612600565b811461265c57600080fd5b50565b60008135905061266e81612648565b92915050565b60006020828403121561268a5761268961263e565b5b60006126988482850161265f565b91505092915050565b600080fd5b6000601f19601f8301169050919050565b7f4e487b7100000000000000000000000000000000000000000000000000000000600052604160045260246000fd5b6126ef826126a6565b810181811067ffffffffffffffff8211171561270e5761270d6126b7565b5b80604052505050565b6000612721612634565b905061272d82826126e6565b919050565b600067ffffffffffffffff82111561274d5761274c6126b7565b5b602082029050602081019050919050565b600080fd5b600061277661277184612732565b612717565b905080838252602082019050602084028301858111156127995761279861275e565b5b835b818110156127c257806127ae888261265f565b84526020840193505060208101905061279b565b5050509392505050565b600082601f8301126127e1576127e06126a1565b5b81356127f1848260208601612763565b91505092915050565b600080fd5b600067ffffffffffffffff82111561281a576128196126b7565b5b612823826126a6565b9050602081019050919050565b82818337600083830152505050565b600061285261284d846127ff565b612717565b90508281526020810184848401111561286e5761286d6127fa565b5b612879848285612830565b509392505050565b600082601f830112612896576128956126a1565b5b81356128a684826020860161283f565b91505092915050565b600080604083850312156128c6576128c561263e565b5b600083013567ffffffffffffffff8111156128e4576128e3612643565b5b6128f0858286016127cc565b925050602083013567ffffffffffffffff81111561291157612910612643565b5b61291d85828601612881565b9150509250929050565b6000806040838503121561293e5761293d61263e565b5b600061294c8582860161265f565b925050602061295d8582860161265f565b9150509250929050565b61297081612600565b82525050565b600073ffffffffffffffffffffffffffffffffffffffff82169050919050565b60006129a182612976565b9050919050565b6129b181612996565b82525050565b600081519050919050565b600082825260208201905092915050565b60005b838110156129f15780820151818401526020810190506129d6565b60008484015250505050565b6000612a08826129b7565b612a1281856129c2565b9350612a228185602086016129d3565b612a2b816126a6565b840191505092915050565b600060e083016000830151612a4e6000860182612967565b506020830151612a616020860182612967565b506040830151612a7460408601826129a8565b5060608301518482036060860152612a8c82826129fd565b9150506080830151612aa16080860182612967565b5060a0830151612ab460a0860182612967565b5060c0830151612ac760c0860182612967565b508091505092915050565b60006020820190508181036000830152612aec8184612a36565b905092915050565b612afd81612996565b8114612b0857600080fd5b50565b600081359050612b1a81612af4565b92915050565b600080600060608486031215612b3957612b3861263e565b5b6000612b478682870161265f565b9350506020612b5886828701612b0b565b9250506040612b698682870161265f565b9150509250925092565b60008060008060808587031215612b8d57612b8c61263e565b5b6000612b9b8782880161265f565b945050602085013567ffffffffffffffff811115612bbc57612bbb612643565b5b612bc887828801612881565b9350506040612bd98782880161265f565b9250506060612bea8782880161265f565b91505092959194509250565b600080600080600060a08688031215612c1257612c1161263e565b5b6000612c208882890161265f565b955050602086013567ffffffffffffffff811115612c4157612c40612643565b5b612c4d88828901612881565b9450506040612c5e8882890161265f565b935050606086013567ffffffffffffffff811115612c7f57612c7e612643565b5b612c8b88828901612881565b9250506080612c9c88828901612b0b565b9150509295509295909350565b600067ffffffffffffffff821115612cc457612cc36126b7565b5b602082029050602081019050919050565b6000612ce8612ce384612ca9565b612717565b90508083825260208201905060208402830185811115612d0b57612d0a61275e565b5b835b81811015612d5257803567ffffffffffffffff811115612d3057612d2f6126a1565b5b808601612d3d8982612881565b85526020850194505050602081019050612d0d565b5050509392505050565b600082601f830112612d7157612d706126a1565b5b8135612d81848260208601612cd5565b91505092915050565b60008060408385031215612da157612da061263e565b5b600083013567ffffffffffffffff811115612dbf57612dbe612643565b5b612dcb85828601612881565b925050602083013567ffffffffffffffff811115612dec57612deb612643565b5b612df885828601612d5c565b9150509250929050565b60008115159050919050565b612e1781612e02565b8114612e2257600080fd5b50565b600081359050612e3481612e0e565b92915050565b600080fd5b600060408284031215612e5557612e54612e3a565b5b612e5f6040612717565b90506000612e6f8482850161265f565b6000830152506020612e838482850161265f565b60208301525092915050565b600060408284031215612ea557612ea4612e3a565b5b612eaf6040612717565b90506000612ebf8482850161265f565b6000830152506020612ed38482850161265f565b60208301525092915050565b600060608284031215612ef557612ef4612e3a565b5b612eff6060612717565b90506000612f0f84828501612e25565b6000830152506020612f2384828501612e25565b6020830152506040612f3784828501612e25565b60408301525092915050565b600060408284031215612f5957612f58612e3a565b5b612f636040612717565b90506000612f738482850161265f565b6000830152506020612f878482850161265f565b60208301525092915050565b60008060008060008060008060006101c08a8c031215612fb657612fb561263e565b5b60008a013567ffffffffffffffff811115612fd457612fd3612643565b5b612fe08c828d01612881565b9950506020612ff18c828d01612b0b565b98505060406130028c828d01612e25565b97505060606130138c828d01612e25565b96505060806130248c828d0161265f565b95505060a06130358c828d01612e3f565b94505060e06130468c828d01612e8f565b9350506101206130588c828d01612edf565b92505061018061306a8c828d01612f43565b9150509295985092959850929598565b600081519050919050565b600082825260208201905092915050565b6000819050602082019050919050565b600081519050919050565b600082825260208201905092915050565b6000819050602082019050919050565b60006130de8383612967565b60208301905092915050565b6000602082019050919050565b6000613102826130a6565b61310c81856130b1565b9350613117836130c2565b8060005b8381101561314857815161312f88826130d2565b975061313a836130ea565b92505060018101905061311b565b5085935050505092915050565b600060e08301600083015161316d6000860182612967565b506020830151848203602086015261318582826129fd565b915050604083015161319a6040860182612967565b50606083015184820360608601526131b282826129fd565b91505060808301516131c760808601826129a8565b5060a08301516131da60a0860182612967565b5060c083015184820360c08601526131f282826130f7565b9150508091505092915050565b600061320b8383613155565b905092915050565b6000602082019050919050565b600061322b8261307a565b6132358185613085565b93508360208202850161324785613096565b8060005b85811015613283578484038952815161326485826131ff565b945061326f83613213565b925060208a0199505060018101905061324b565b50829750879550505050505092915050565b600060208201905081810360008301526132af8184613220565b905092915050565b6000806000606084860312156132d0576132cf61263e565b5b60006132de8682870161265f565b93505060206132ef8682870161265f565b925050604061330086828701612b0b565b9150509250925092565b6000602082840312156133205761331f61263e565b5b600061332e84828501612b0b565b91505092915050565b600081519050919050565b600082825260208201905092915050565b6000819050602082019050919050565b7f4e487b7100000000000000000000000000000000000000000000000000000000600052602160045260246000fd5b600381106133a3576133a2613363565b5b50565b60008190506133b482613392565b919050565b60006133c4826133a6565b9050919050565b6133d4816133b9565b82525050565b6040820160008201516133f06000850182612967565b5060208201516134036020850182612967565b50505050565b60408201600082015161341f6000850182612967565b5060208201516134326020850182612967565b50505050565b61344181612e02565b82525050565b60608201600082015161345d6000850182613438565b5060208201516134706020850182613438565b5060408201516134836040850182613438565b50505050565b60408201600082015161349f6000850182612967565b5060208201516134b26020850182612967565b50505050565b60006101c0830160008301516134d16000860182612967565b50602083015184820360208601526134e982826129fd565b91505060408301516134fe60408601826129a8565b50606083015161351160608601826133cb565b5060808301516135246080860182612967565b5060a083015161353760a08601826133da565b5060c083015161354a60e0860182613409565b5060e083015161355e610120860182613447565b50610100830151613573610180860182613489565b508091505092915050565b600061358a83836134b8565b905092915050565b6000602082019050919050565b60006135aa82613337565b6135b48185613342565b9350836020820285016135c685613353565b8060005b8581101561360257848403895281516135e3858261357e565b94506135ee83613592565b925060208a019950506001810190506135ca565b50829750879550505050505092915050565b6000602082019050818103600083015261362e818461359f565b905092915050565b600080600080608085870312156136505761364f61263e565b5b600061365e8782880161265f565b945050602061366f8782880161265f565b93505060406136808782880161265f565b925050606061369187828801612b0b565b91505092959194509250565b600081519050919050565b600082825260208201905092915050565b6000819050602082019050919050565b600060e0830160008301516136e16000860182612967565b5060208301516136f46020860182612967565b50604083015161370760408601826129a8565b506060830151848203606086015261371f82826129fd565b91505060808301516137346080860182612967565b5060a083015161374760a0860182612967565b5060c083015161375a60c0860182612967565b508091505092915050565b600061377183836136c9565b905092915050565b6000602082019050919050565b60006137918261369d565b61379b81856136a8565b9350836020820285016137ad856136b9565b8060005b858110156137e957848403895281516137ca8582613765565b94506137d583613779565b925060208a019950506001810190506137b1565b50829750879550505050505092915050565b600060208201905081810360008301526138158184613786565b905092915050565b600082825260208201905092915050565b7f4f6e6c792074686520696e737572616e636520636f6d70616e792063616e207060008201527f6572666f726d207468697320616374696f6e0000000000000000000000000000602082015250565b600061388a60328361381d565b91506138958261382e565b604082019050919050565b600060208201905081810360008301526138b98161387d565b9050919050565b7f436c61696d20616c726561647920736574746c65640000000000000000000000600082015250565b60006138f660158361381d565b9150613901826138c0565b602082019050919050565b60006020820190508181036000830152613925816138e9565b9050919050565b6000608082019050613941600083018761260a565b61394e602083018661260a565b61395b604083018561260a565b613968606083018461260a565b95945050505050565b7f4e487b7100000000000000000000000000000000000000000000000000000000600052601160045260246000fd5b60006139ab82612600565b91507fffffffffffffffffffffffffffffffffffffffffffffffffffffffffffffffff82036139dd576139dc613971565b5b600182019050919050565b7f4e487b7100000000000000000000000000000000000000000000000000000000600052602260045260246000fd5b60006002820490506001821680613a2f57607f821691505b602082108103613a4257613a416139e8565b5b50919050565b60008190508160005260206000209050919050565b60006020601f8301049050919050565b600082821b905092915050565b600060088302613aaa7fffffffffffffffffffffffffffffffffffffffffffffffffffffffffffffffff82613a6d565b613ab48683613a6d565b95508019841693508086168417925050509392505050565b6000819050919050565b6000613af1613aec613ae784612600565b613acc565b612600565b9050919050565b6000819050919050565b613b0b83613ad6565b613b1f613b1782613af8565b848454613a7a565b825550505050565b600090565b613b34613b27565b613b3f818484613b02565b505050565b5b81811015613b6357613b58600082613b2c565b600181019050613b45565b5050565b601f821115613ba857613b7981613a48565b613b8284613a5d565b81016020851015613b91578190505b613ba5613b9d85613a5d565b830182613b44565b50505b505050565b600082821c905092915050565b6000613bcb60001984600802613bad565b1980831691505092915050565b6000613be48383613bba565b9150826002028217905092915050565b613bfd826129b7565b67ffffffffffffffff811115613c1657613c156126b7565b5b613c208254613a17565b613c2b828285613b67565b600060209050601f831160018114613c5e5760008415613c4c578287015190505b613c568582613bd8565b865550613cbe565b601f198416613c6c86613a48565b60005b82811015613c9457848901518255600182019150602085019450602081019050613c6f565b86831015613cb15784890151613cad601f891682613bba565b8355505b6001600288020188555050505b505050505050565b600082825260208201905092915050565b6000613ce2826130a6565b613cec8185613cc6565b9350613cf7836130c2565b8060005b83811015613d28578151613d0f88826130d2565b9750613d1a836130ea565b925050600181019050613cfb565b5085935050505092915050565b6000604082019050613d4a600083018561260a565b8181036020830152613d5c8184613cd7565b90509392505050565b7f496e76616c69642070617469656e742049440000000000000000000000000000600082015250565b6000613d9b60128361381d565b9150613da682613d65565b602082019050919050565b60006020820190508181036000830152613dca81613d8e565b9050919050565b7f496e76616c69642062696c6c2049440000000000000000000000000000000000600082015250565b6000613e07600f8361381d565b9150613e1282613dd1565b602082019050919050565b60006020820190508181036000830152613e3681613dfa565b9050919050565b7f4f6e6c792074686520686f73706974616c2063616e20706572666f726d20746860008201527f697320616374696f6e0000000000000000000000000000000000000000000000602082015250565b6000613e9960298361381d565b9150613ea482613e3d565b604082019050919050565b60006020820190508181036000830152613ec881613e8c565b9050919050565b6000613eda82612600565b9150613ee583612600565b9250828201905080821115613efd57613efc613971565b5b92915050565b7f4e487b7100000000000000000000000000000000000000000000000000000000600052601260045260246000fd5b6000613f3d82612600565b9150613f4883612600565b925082613f5857613f57613f03565b5b828204905092915050565b6000606082019050613f78600083018661260a565b613f85602083018561260a565b613f92604083018461260a565b949350505050565b6000613fa5826129b7565b613faf818561381d565b9350613fbf8185602086016129d3565b613fc8816126a6565b840191505092915050565b6000604082019050613fe8600083018561260a565b8181036020830152613ffa8184613f9a565b90509392505050565b61400c81612996565b82525050565b6000604082019050614027600083018561260a565b6140346020830184614003565b9392505050565b7f506c656173652053656c656374204f6e65205479706500000000000000000000600082015250565b600061407160168361381d565b915061407c8261403b565b602082019050919050565b600060208201905081810360008301526140a081614064565b9050919050565b7f496e76616c696420686f73706974616c20494400000000000000000000000000600082015250565b60006140dd60138361381d565b91506140e8826140a7565b602082019050919050565b6000602082019050818103600083015261410c816140d0565b9050919050565b7f4e487b7100000000000000000000000000000000000000000000000000000000600052603260045260246000fd5b7f4f6e6c79207468652070617469656e742063616e20706572666f726d2074686960008201527f7320616374696f6e000000000000000000000000000000000000000000000000602082015250565b600061419e60288361381d565b91506141a982614142565b604082019050919050565b600060208201905081810360008301526141cd81614191565b9050919050565b7f496e737572616e636520436f6d70616e7920616c72656164792061737369676e60008201527f6564000000000000000000000000000000000000000000000000000000000000602082015250565b600061423060228361381d565b915061423b826141d4565b604082019050919050565b6000602082019050818103600083015261425f81614223565b9050919050565b7f506f6c69637920646f6573206e6f7420636f766572207265696d62757273656d60008201527f656e7420636c61696d7300000000000000000000000000000000000000000000602082015250565b60006142c2602a8361381d565b91506142cd82614266565b604082019050919050565b600060208201905081810360008301526142f1816142b5565b9050919050565b7f436c61696d20616d6f756e742063616e6e6f742065786365656420746865206260008201527f696c6c20616d6f756e7400000000000000000000000000000000000000000000602082015250565b6000614354602a8361381d565b915061435f826142f8565b604082019050919050565b6000602082019050818103600083015261438381614347565b905091905056fea26469706673582212205a14515a49dd6c1a75e75ff51353d8e390b1656feeb6a7fb14e82e2afb4e73dd64736f6c63430008110033",
  "immutableReferences": {},
  "source": "// SPDX-License-Identifier: MIT\r\npragma solidity ^0.8.0;\r\n\r\nimport {MainStructure} from \"./Main_Structure.sol\";\r\n\r\ncontract Reimbursement is MainStructure{\r\n      struct ReimbursementClaim {\r\n        uint256 claimId;\r\n        uint256 patientId;\r\n        uint256 billId;\r\n        uint256 claimAmount;\r\n        uint256 submittedTimestamp;\r\n        bool isSettled;\r\n        address insuranceCompanyAddress;\r\n    }\r\n\r\n    mapping(uint256 => ReimbursementClaim) reimbursementClaims;\r\n    uint256 public reimbursementClaimCount;\r\n\r\n    event ReimbursementClaimSubmitted(uint256 claimId, uint256 patientId, uint256 billId, uint256 claimAmount);\r\n    event ReimbursementClaimSettled(uint256 claimId, uint256 patientId, uint256 billId, uint256 claimAmount);\r\n\r\n    function submitReimbursementClaim(uint256 _patientId, uint256 _billId, uint256 _claimAmount, address _insuranceCompanyAddress) public onlyPatient(_patientId) {\r\n        require(policies[patientInsurancePolicies[_patientId][medicalBills[_patientId][_billId].assignedInsuranceCompany]].policyType == PolicyType.REIMBURSEMENT \r\n        || policies[patientInsurancePolicies[_patientId][medicalBills[_patientId][_billId].assignedInsuranceCompany]].policyType == PolicyType.BOTH, \"Policy does not cover reimbursement claims\");\r\n        require(_claimAmount <= medicalBills[_patientId][_billId].amount, \"Claim amount cannot exceed the bill amount\");\r\n\r\n        reimbursementClaimCount++;\r\n        reimbursementClaims[reimbursementClaimCount] = ReimbursementClaim(\r\n            reimbursementClaimCount,\r\n            _patientId,\r\n            _billId,\r\n            _claimAmount,\r\n            block.timestamp,\r\n            false,\r\n            _insuranceCompanyAddress\r\n        );\r\n\r\n        emit ReimbursementClaimSubmitted(reimbursementClaimCount, _patientId, _billId, _claimAmount);\r\n    }\r\n\r\n    function settleReimbursementClaim(uint256 _claimId) public onlyInsuranceCompany(reimbursementClaims[_claimId].insuranceCompanyAddress) {\r\n        require(!reimbursementClaims[_claimId].isSettled, \"Claim already settled\");\r\n\r\n        ReimbursementClaim storage claim = reimbursementClaims[_claimId];\r\n        claim.isSettled = true;\r\n\r\n        emit ReimbursementClaimSettled(_claimId, claim.patientId, claim.billId, claim.claimAmount);\r\n    }\r\n}",
  "sourcePath": "D:\\semester 6\\Block Chain\\Patient-Management-System-Decentralized-App\\contracts\\Reimbursement.sol",
  "compiler": {
    "name": "solc",
    "version": "0.8.17+commit.8df45f5f.Emscripten.clang"
  },
  "schemaVersion": "3.4.16",
  "updatedAt": "2024-05-21T09:11:34.131Z",
  "networkType": "ethereum",
  "devdoc": {
    "kind": "dev",
    "methods": {},
    "version": 1
  },
  "userdoc": {
    "kind": "user",
    "methods": {},
    "version": 1
  }
}